:040000000077777797
:040001000077777796
:040002000078787892
:040003000078787891
:040004000078787890
:04000500007878788F
:04000600007878788E
:04000700007878788D
:04000800007878788C
:04000900007878788B
:04000A000079797987
:04000B000079797986
:04000C000079797985
:04000D000079797984
:04000E000079797983
:04000F000079797982
:040010000078787884
:040011000078787883
:040012000078787882
:040013000077777784
:040014000077777783
:040015000076767685
:040016000076767684
:040017000076767683
:04001800007777777F
:04001900007777777E
:04001A00007777777D
:04001B00007777777C
:04001C00007777777B
:04001D00007777777A
:04001E000077777779
:04001F000077777778
:04002000007575757D
:04002100007575757C
:04002200007575757B
:040023000076767677
:040024000076767676
:040025000077777772
:040026000077777771
:040027000077777770
:04002800007F7F7F57
:04002900007E7E7E59
:04002A00007D7D7D5B
:04002B00007C7C7C5D
:04002C00007B7B7B5F
:04002D000079797964
:04002E000078787866
:04002F000078787865
:04003000006C6C6C88
:04003100007C7C7C57
:04003200007C7C7C56
:040033000083838340
:04003400006B6B6B87
:04003500007979795C
:04003600007878785E
:04003700007A7A7A57
:04003800007B7B7B53
:04003900007B7B7B52
:04003A00007B7B7B51
:04003B00007B7B7B50
:04003C00007B7B7B4F
:04003D00007B7B7B4E
:04003E00007B7B7B4D
:04003F00007B7B7B4C
:040040000079797951
:040041000079797950
:04004200007979794F
:04004300007979794E
:04004400007979794D
:04004500007979794C
:04004600007979794B
:04004700007979794A
:04004800007A7A7A46
:04004900007878784B
:04004A000075757553
:04004B00007272725B
:04004C00007272725A
:04004D000073737356
:04004E00007676764C
:04004F000078787845
:04005000007F7F7F2F
:04005100007A7A7A3D
:040052000076767648
:040053000078787841
:04005400007D7D7D31
:040055000080808027
:04005600007D7D7D2F
:04005700007979793A
:04005800007373734B
:04005900007373734A
:04005A000073737349
:04005B000073737348
:04005C000073737347
:04005D000073737346
:04005E000074747442
:04005F000074747441
:04006000007575753D
:04006100007575753C
:04006200007575753B
:04006300007575753A
:040064000075757539
:040065000075757538
:040066000075757537
:040067000075757536
:040068000074747438
:040069000074747437
:04006A000074747436
:04006B000074747435
:04006C000074747434
:04006D000075757530
:04006E00007575752F
:04006F00007575752E
:04007000007575752D
:040071000076767629
:040072000077777725
:040073000078787821
:04007400007979791D
:04007500007979791C
:04007600007979791B
:04007700007A7A7A17
:04007800007777771F
:04007900007777771E
:04007A00007777771D
:04007B00007676761F
:04007C00007676761E
:04007D00007676761D
:04007E00007676761C
:04007F00007676761B
:040080000077777717
:040081000077777716
:040082000077777715
:040083000077777714
:040084000077777713
:040085000077777712
:040086000077777711
:04008700007878780D
:04008800007878780C
:04008900007878780B
:04008A00007878780A
:04008B000078787809
:04008C000078787808
:04008D000078787807
:04008E000078787806
:04008F000078787805
:040090000078787804
:040091000078787803
:040092000078787802
:040093000078787801
:040094000078787800
:0400950000787878FF
:0400960000787878FE
:0400970000787878FD
:0400980000797979F9
:0400990000797979F8
:04009A0000797979F7
:04009B0000797979F6
:04009C0000797979F5
:04009D0000797979F4
:04009E0000797979F3
:04009F0000797979F2
:0400A00000787878F4
:0400A10000787878F3
:0400A20000787878F2
:0400A30000787878F1
:0400A40000787878F0
:0400A50000787878EF
:0400A60000777777F1
:0400A70000777777F0
:0400A80000797979E9
:0400A90000797979E8
:0400AA0000797979E7
:0400AB0000797979E6
:0400AC0000797979E5
:0400AD0000797979E4
:0400AE0000797979E3
:0400AF0000797979E2
:0400B00000787878E4
:0400B10000787878E3
:0400B20000787878E2
:0400B30000787878E1
:0400B40000787878E0
:0400B50000787878DF
:0400B60000787878DE
:0400B70000787878DD
:0400B80000777777DF
:0400B90000777777DE
:0400BA0000777777DD
:0400BB0000777777DC
:0400BC0000777777DB
:0400BD0000777777DA
:0400BE0000777777D9
:0400BF0000777777D8
:0400C00000797979D1
:0400C10000787878D3
:0400C20000787878D2
:0400C30000787878D1
:0400C40000787878D0
:0400C50000787878CF
:0400C60000787878CE
:0400C70000787878CD
:0400C80000787878CC
:0400C90000777777CE
:0400CA0000777777CD
:0400CB0000777777CC
:0400CC0000777777CB
:0400CD0000777777CA
:0400CE0000777777C9
:0400CF0000777777C8
:0400D00000777777C7
:0400D10000777777C6
:0400D20000767676C8
:0400D30000767676C7
:0400D40000767676C6
:0400D50000767676C5
:0400D60000767676C4
:0400D70000767676C3
:0400D80000767676C2
:0400D90000767676C1
:0400DA0000767676C0
:0400DB0000767676BF
:0400DC0000767676BE
:0400DD0000767676BD
:0400DE0000767676BC
:0400DF0000767676BB
:0400E00000777777B7
:0400E10000777777B6
:0400E20000787878B2
:0400E30000787878B1
:0400E40000787878B0
:0400E50000787878AF
:0400E60000787878AE
:0400E70000787878AD
:0400E80000787878AC
:0400E90000797979A8
:0400EA0000797979A7
:0400EB0000797979A6
:0400EC0000797979A5
:0400ED0000797979A4
:0400EE0000797979A3
:0400EF0000797979A2
:0400F00000787878A4
:0400F10000787878A3
:0400F20000787878A2
:0400F30000787878A1
:0400F40000777777A3
:0400F50000777777A2
:0400F60000767676A4
:0400F70000767676A3
:0400F80000767676A2
:0400F900007777779E
:0400FA00007777779D
:0400FB00007777779C
:0400FC00007777779B
:0400FD00007777779A
:0400FE000077777799
:0400FF000077777798
:040100000077777796
:04010100007575759B
:04010200007575759A
:040103000076767696
:040104000076767695
:040105000076767694
:040106000077777790
:04010700007777778F
:04010800007777778E
:040109000076767690
:04010A00007676768F
:04010B000075757591
:04010C000074747493
:04010D000073737395
:04010E000072727297
:04010F000071717199
:040110000071717198
:040111000077777785
:040112000077777784
:04011300006E6E6E9E
:04011400007878787F
:04011500006F6F6F99
:040116000080808065
:040117000079797979
:04011800007878787B
:04011900007777777D
:04011A00007777777C
:04011B00007777777B
:04011C00007777777A
:04011D000077777779
:04011E000077777778
:04011F000077777777
:040120000077777776
:040121000078787872
:040122000078787871
:040123000078787870
:04012400007878786F
:04012500007878786E
:04012600007878786D
:04012700007878786C
:04012800007878786B
:04012900007C7C7C5E
:04012A00007B7B7B60
:04012B00007B7B7B5F
:04012C00007B7B7B5E
:04012D00007C7C7C5A
:04012E00007D7D7D56
:04012F00007F7F7F4F
:04013000008080804B
:04013100006C6C6C86
:04013200006F6F6F7C
:04013300007474746C
:040134000076767665
:040135000075757567
:04013600007272726F
:04013700006F6F6F77
:04013800006D6D6D7C
:040139000079797957
:04013A000079797956
:04013B000079797955
:04013C000079797954
:04013D000079797953
:04013E000079797952
:04013F000079797951
:040140000079797950
:04014100007B7B7B49
:04014200007B7B7B48
:04014300007B7B7B47
:04014400007B7B7B46
:04014500007B7B7B45
:04014600007B7B7B44
:04014700007B7B7B43
:04014800007B7B7B42
:04014900007A7A7A44
:04014A00007A7A7A43
:04014B00007A7A7A42
:04014C00007A7A7A41
:04014D00007A7A7A40
:04014E00007A7A7A3F
:04014F00007A7A7A3E
:04015000007A7A7A3D
:04015100007474744E
:040152000077777744
:04015300007B7B7B37
:04015400007D7D7D30
:04015500007D7D7D2F
:04015600007979793A
:040157000075757545
:04015800007272724D
:04015900007777773D
:04015A00007777773C
:04015B00007777773B
:04015C00007777773A
:04015D00007676763C
:04015E00007676763B
:04015F00007676763A
:040160000076767639
:040161000077777735
:040162000077777734
:040163000077777733
:040164000077777732
:04016500007878782E
:04016600007878782D
:04016700007878782C
:04016800007878782B
:04016900007878782A
:04016A000078787829
:04016B000078787828
:04016C000078787827
:04016D000078787826
:04016E000078787825
:04016F000078787824
:040170000078787823
:040171000078787822
:040172000078787821
:040173000078787820
:04017400007878781F
:04017500007878781E
:04017600007878781D
:04017700007878781C
:04017800007878781B
:040179000079797917
:04017A000079797916
:04017B000079797915
:04017C000079797914
:04017D000079797913
:04017E000079797912
:04017F000079797911
:040180000079797910
:040181000078787812
:040182000078787811
:040183000078787810
:04018400007878780F
:04018500007878780E
:04018600007878780D
:04018700007878780C
:04018800007878780B
:040189000079797907
:04018A000079797906
:04018B000079797905
:04018C000079797904
:04018D000079797903
:04018E000079797902
:04018F000079797901
:040190000079797900
:040191000078787802
:040192000078787801
:040193000078787800
:0401940000787878FF
:0401950000787878FE
:0401960000787878FD
:0401970000787878FC
:0401980000787878FB
:0401990000777777FD
:04019A0000777777FC
:04019B0000777777FB
:04019C0000777777FA
:04019D0000777777F9
:04019E0000777777F8
:04019F0000777777F7
:0401A00000777777F6
:0401A10000797979EF
:0401A20000797979EE
:0401A30000797979ED
:0401A40000787878EF
:0401A50000787878EE
:0401A60000787878ED
:0401A70000787878EC
:0401A80000787878EB
:0401A90000777777ED
:0401AA0000777777EC
:0401AB0000777777EB
:0401AC0000777777EA
:0401AD0000777777E9
:0401AE0000777777E8
:0401AF0000777777E7
:0401B00000777777E6
:0401B10000767676E8
:0401B20000767676E7
:0401B30000767676E6
:0401B40000767676E5
:0401B50000767676E4
:0401B60000767676E3
:0401B70000767676E2
:0401B80000767676E1
:0401B90000767676E0
:0401BA0000767676DF
:0401BB0000767676DE
:0401BC0000767676DD
:0401BD0000767676DC
:0401BE0000767676DB
:0401BF0000767676DA
:0401C00000767676D9
:0401C10000777777D5
:0401C20000787878D1
:0401C30000787878D0
:0401C40000787878CF
:0401C50000787878CE
:0401C60000787878CD
:0401C70000787878CC
:0401C80000787878CB
:0401C90000787878CA
:0401CA0000797979C6
:0401CB0000797979C5
:0401CC0000797979C4
:0401CD0000797979C3
:0401CE0000797979C2
:0401CF0000787878C4
:0401D00000787878C3
:0401D10000787878C2
:0401D20000787878C1
:0401D30000787878C0
:0401D40000787878BF
:0401D50000777777C1
:0401D60000777777C0
:0401D70000767676C2
:0401D80000767676C1
:0401D90000767676C0
:0401DA0000777777BC
:0401DB0000777777BB
:0401DC0000777777BA
:0401DD0000777777B9
:0401DE0000777777B8
:0401DF0000777777B7
:0401E00000777777B6
:0401E10000777777B5
:0401E20000757575BA
:0401E30000767676B6
:0401E40000767676B5
:0401E50000767676B4
:0401E60000777777B0
:0401E70000777777AF
:0401E80000777777AE
:0401E90000777777AD
:0401EA0000797979A6
:0401EB0000787878A8
:0401EC0000787878A7
:0401ED0000777777A9
:0401EE0000777777A8
:0401EF0000767676AA
:0401F00000767676A9
:0401F10000767676A8
:0401F200006F6F6FBC
:0401F30000727272B2
:0401F40000747474AB
:0401F500007F7F7F89
:0401F600007A7A7A97
:0401F700007E7E7E8A
:0401F80000717171B0
:0401F90000757575A3
:0401FA0000737373A8
:0401FB0000737373A7
:0401FC0000737373A6
:0401FD0000737373A5
:0401FE0000737373A4
:0401FF0000737373A3
:0402000000737373A1
:0402010000737373A0
:040202000075757599
:040203000075757598
:040204000075757597
:040205000075757596
:040206000075757595
:040207000075757594
:040208000075757593
:040209000075757592
:04020A00007272729A
:04020B000073737396
:04020C00007575758F
:04020D000077777788
:04020E000079797981
:04020F000079797980
:04021000007979797F
:04021100007979797E
:040212000078787880
:040213000075757588
:04021400007373738D
:040215000075757586
:04021600007A7A7A76
:04021700007D7D7D6C
:04021800007D7D7D6B
:04021900007B7B7B70
:04021A000073737387
:04021B000073737386
:04021C000073737385
:04021D000073737384
:04021E000074747480
:04021F00007474747F
:04022000007474747E
:04022100007474747D
:040222000075757579
:040223000075757578
:040224000075757577
:040225000075757576
:040226000075757575
:040227000075757574
:040228000075757573
:040229000075757572
:04022A000074747474
:04022B000074747473
:04022C000074747472
:04022D000074747471
:04022E000074747470
:04022F00007474746F
:04023000007575756B
:04023100007575756A
:040232000078787860
:04023300007878785F
:040234000076767664
:040235000076767663
:040236000076767662
:04023700007777775E
:04023800007878785A
:040239000079797956
:04023A000078787858
:04023B00007777775A
:04023C000077777759
:04023D000077777758
:04023E000077777757
:04023F000076767659
:040240000076767658
:040241000076767657
:040242000077777753
:040243000077777752
:04024400007878784E
:04024500007878784D
:04024600007878784C
:04024700007878784B
:04024800007878784A
:040249000078787849
:04024A000078787848
:04024B000078787847
:04024C000078787846
:04024D000078787845
:04024E000078787844
:04024F000078787843
:040250000078787842
:040251000078787841
:040252000078787840
:04025300007878783F
:04025400007878783E
:04025500007878783D
:04025600007878783C
:04025700007878783B
:04025800007878783A
:040259000078787839
:04025A000079797935
:04025B000079797934
:04025C000079797933
:04025D000079797932
:04025E000079797931
:04025F000079797930
:04026000007979792F
:04026100007979792E
:04026200007979792D
:04026300007878782F
:04026400007878782E
:04026500007878782D
:04026600007878782C
:04026700007878782B
:04026800007878782A
:040269000078787829
:04026A000079797925
:04026B000079797924
:04026C000079797923
:04026D000079797922
:04026E000079797921
:04026F000079797920
:04027000007979791F
:04027100007979791E
:040272000078787820
:04027300007878781F
:04027400007878781E
:04027500007878781D
:04027600007878781C
:04027700007878781B
:04027800007878781A
:040279000078787819
:04027A00007777771B
:04027B00007777771A
:04027C000077777719
:04027D000077777718
:04027E000077777717
:04027F000077777716
:040280000077777715
:040281000077777714
:04028200007979790D
:04028300007979790C
:04028400007979790B
:04028500007979790A
:040286000079797909
:04028700007878780B
:04028800007878780A
:040289000078787809
:04028A00007777770B
:04028B00007777770A
:04028C000077777709
:04028D000077777708
:04028E000077777707
:04028F000077777706
:040290000077777705
:040291000077777704
:040292000076767606
:040293000076767605
:040294000076767604
:040295000076767603
:040296000076767602
:040297000076767601
:040298000076767600
:0402990000767676FF
:04029A0000767676FE
:04029B0000767676FD
:04029C0000767676FC
:04029D0000767676FB
:04029E0000767676FA
:04029F0000767676F9
:0402A00000767676F8
:0402A10000767676F7
:0402A20000777777F3
:0402A30000787878EF
:0402A40000787878EE
:0402A50000787878ED
:0402A60000787878EC
:0402A70000787878EB
:0402A80000787878EA
:0402A90000787878E9
:0402AA0000787878E8
:0402AB0000797979E4
:0402AC0000797979E3
:0402AD0000797979E2
:0402AE0000797979E1
:0402AF0000797979E0
:0402B00000787878E2
:0402B10000787878E1
:0402B20000787878E0
:0402B30000787878DF
:0402B40000787878DE
:0402B50000787878DD
:0402B60000777777DF
:0402B70000777777DE
:0402B80000767676E0
:0402B90000767676DF
:0402BA0000767676DE
:0402BB0000777777DA
:0402BC0000777777D9
:0402BD0000777777D8
:0402BE0000777777D7
:0402BF0000777777D6
:0402C00000777777D5
:0402C10000777777D4
:0402C20000777777D3
:0402C30000767676D5
:0402C40000767676D4
:0402C50000767676D3
:0402C60000777777CF
:0402C70000777777CE
:0402C80000777777CD
:0402C90000787878C9
:0402CA0000787878C8
:0402CB0000747474D3
:0402CC0000747474D2
:0402CD0000747474D1
:0402CE0000747474D0
:0402CF0000757575CC
:0402D00000757575CB
:0402D10000757575CA
:0402D20000757575C9
:0402D3000085858598
:0402D40000808080A6
:0402D500007B7B7BB4
:0402D60000747474C8
:0402D70000727272CD
:0402D80000747474C6
:0402D900006D6D6DDA
:0402DA00007E7E7EA6
:0402DB00007B7B7BAE
:0402DC00007B7B7BAD
:0402DD00007B7B7BAC
:0402DE00007B7B7BAB
:0402DF00007B7B7BAA
:0402E000007B7B7BA9
:0402E100007B7B7BA8
:0402E200007B7B7BA7
:0402E30000797979AC
:0402E40000797979AB
:0402E50000797979AA
:0402E60000797979A9
:0402E70000797979A8
:0402E80000797979A7
:0402E90000797979A6
:0402EA0000797979A5
:0402EB0000747474B3
:0402EC0000757575AF
:0402ED0000777777A8
:0402EE0000797979A1
:0402EF0000797979A0
:0402F00000787878A2
:0402F10000767676A7
:0402F20000757575A9
:0402F300007D7D7D90
:0402F400007878789E
:0402F50000747474A9
:0402F60000747474A8
:0402F700007878789B
:0402F8000079797997
:0402F900007676769F
:0402FA0000727272AA
:0402FB00007B7B7B8E
:0402FC00007B7B7B8D
:0402FD00007B7B7B8C
:0402FE00007B7B7B8B
:0402FF00007B7B7B8A
:04030000007B7B7B88
:04030100007B7B7B87
:04030200007B7B7B86
:04030300007D7D7D7F
:04030400007D7D7D7E
:04030500007D7D7D7D
:04030600007D7D7D7C
:04030700007D7D7D7B
:04030800007D7D7D7A
:04030900007D7D7D79
:04030A00007D7D7D78
:04030B00007C7C7C7A
:04030C00007C7C7C79
:04030D00007C7C7C78
:04030E00007C7C7C77
:04030F00007C7C7C76
:04031000007C7C7C75
:04031100007C7C7C74
:04031200007C7C7C73
:04031300007373738D
:04031400007272728F
:04031500007272728E
:04031600007272728D
:040317000074747486
:04031800007777777C
:04031900007B7B7B6F
:04031A00007D7D7D68
:04031B000078787876
:04031C000078787875
:04031D000078787874
:04031E000077777776
:04031F000077777775
:040320000077777774
:040321000076767676
:040322000076767675
:040323000077777771
:040324000077777770
:04032500007878786C
:04032600007878786B
:04032700007878786A
:040328000078787869
:040329000078787868
:04032A000078787867
:04032B000078787866
:04032C000078787865
:04032D000078787864
:04032E000078787863
:04032F000078787862
:040330000078787861
:040331000078787860
:04033200007878785F
:04033300007878785E
:04033400007878785D
:04033500007878785C
:04033600007878785B
:04033700007878785A
:040338000078787859
:040339000078787858
:04033A000078787857
:04033B000079797953
:04033C000079797952
:04033D000079797951
:04033E000079797950
:04033F00007979794F
:04034000007979794E
:04034100007979794D
:04034200007979794C
:04034300007979794B
:04034400007979794A
:04034500007878784C
:04034600007878784B
:04034700007878784A
:040348000078787849
:040349000078787848
:04034A000078787847
:04034B000079797943
:04034C000079797942
:04034D000079797941
:04034E000079797940
:04034F00007979793F
:04035000007979793E
:04035100007979793D
:04035200007979793C
:04035300007878783E
:04035400007878783D
:04035500007878783C
:04035600007878783B
:04035700007878783A
:040358000078787839
:040359000078787838
:04035A000078787837
:04035B000077777739
:04035C000077777738
:04035D000077777737
:04035E000077777736
:04035F000077777735
:040360000077777734
:040361000077777733
:040362000077777732
:04036300007979792B
:04036400007979792A
:040365000079797929
:040366000079797928
:040367000079797927
:040368000079797926
:040369000079797925
:04036A000078787827
:04036B000077777729
:04036C000077777728
:04036D000077777727
:04036E000077777726
:04036F000077777725
:040370000077777724
:040371000077777723
:040372000077777722
:040373000076767624
:040374000076767623
:040375000076767622
:040376000076767621
:040377000076767620
:04037800007676761F
:04037900007676761E
:04037A000075757520
:04037B000077777719
:04037C000077777718
:04037D000077777717
:04037E000077777716
:04037F000077777715
:040380000077777714
:040381000077777713
:040382000077777712
:040383000077777711
:04038400007878780D
:04038500007878780C
:04038600007878780B
:04038700007878780A
:040388000078787809
:040389000078787808
:04038A000078787807
:04038B000079797903
:04038C000078787805
:04038D000078787804
:04038E000078787803
:04038F000078787802
:040390000078787801
:0403910000797979FD
:0403920000797979FC
:0403930000797979FB
:0403940000787878FD
:0403950000787878FC
:0403960000787878FB
:0403970000777777FD
:0403980000777777FC
:0403990000767676FE
:04039A0000767676FD
:04039B0000767676FC
:04039C0000777777F8
:04039D0000777777F7
:04039E0000777777F6
:04039F0000777777F5
:0403A00000777777F4
:0403A10000777777F3
:0403A20000777777F2
:0403A30000777777F1
:0403A40000767676F3
:0403A50000767676F2
:0403A60000777777EE
:0403A70000777777ED
:0403A80000777777EC
:0403A90000787878E8
:0403AA0000787878E7
:0403AB0000787878E6
:0403AC0000747474F1
:0403AD0000747474F0
:0403AE0000757575EC
:0403AF0000757575EB
:0403B00000767676E7
:0403B10000777777E3
:0403B20000777777E2
:0403B30000787878DE
:0403B400006F6F6FF8
:0403B500006F6F6FF7
:0403B60000777777DE
:0403B70000737373E9
:0403B80000888888A9
:0403B900008A8A8AA2
:0403BA0000767676DD
:0403BB00007D7D7DC7
:0403BC0000797979D2
:0403BD0000797979D1
:0403BE0000797979D0
:0403BF0000797979CF
:0403C00000797979CE
:0403C10000797979CD
:0403C20000797979CC
:0403C30000797979CB
:0403C40000747474D9
:0403C50000747474D8
:0403C60000747474D7
:0403C70000747474D6
:0403C80000747474D5
:0403C90000747474D4
:0403CA0000747474D3
:0403CB0000747474D2
:0403CC0000787878C5
:0403CD0000787878C4
:0403CE0000777777C6
:0403CF0000767676C8
:0403D00000757575CA
:0403D10000737373CF
:0403D20000727272D1
:0403D30000717171D3
:0403D40000717171D2
:0403D50000747474C8
:0403D60000797979B8
:0403D700007D7D7DAB
:0403D80000808080A1
:0403D900007E7E7EA6
:0403DA00007A7A7AB1
:0403DB0000777777B9
:0403DC0000787878B5
:0403DD0000787878B4
:0403DE0000787878B3
:0403DF0000787878B2
:0403E00000787878B1
:0403E10000787878B0
:0403E20000777777B2
:0403E30000777777B1
:0403E40000797979AA
:0403E50000797979A9
:0403E60000797979A8
:0403E70000797979A7
:0403E80000797979A6
:0403E90000797979A5
:0403EA0000797979A4
:0403EB0000797979A3
:0403EC0000797979A2
:0403ED0000797979A1
:0403EE0000787878A3
:0403EF0000787878A2
:0403F00000787878A1
:0403F10000787878A0
:0403F200007878789F
:0403F300007878789E
:0403F400007C7C7C91
:0403F500007C7C7C90
:0403F600007C7C7C8F
:0403F700007A7A7A94
:0403F8000078787899
:0403F90000757575A1
:0403FA0000717171AC
:0403FB0000707070AE
:0403FC000079797992
:0403FD000079797991
:0403FE000078787893
:0403FF000078787892
:040400000077777793
:040401000077777792
:040402000077777791
:040403000076767693
:04040400007777778F
:04040500007777778E
:04040600007777778D
:04040700007777778C
:04040800007777778B
:04040900007777778A
:04040A000077777789
:04040B000077777788
:04040C000077777787
:04040D000077777786
:04040E000077777785
:04040F000077777784
:040410000077777783
:040411000077777782
:040412000077777781
:040413000077777780
:04041400007777777F
:04041500007777777E
:04041600007777777D
:04041700007777777C
:04041800007777777B
:04041900007777777A
:04041A000077777779
:04041B000077777778
:04041C000079797971
:04041D000079797970
:04041E00007979796F
:04041F00007979796E
:04042000007979796D
:04042100007979796C
:04042200007979796B
:04042300007979796A
:04042400007878786C
:04042500007878786B
:04042600007878786A
:040427000078787869
:040428000078787868
:040429000078787867
:04042A000079797963
:04042B000079797962
:04042C000078787864
:04042D000078787863
:04042E000078787862
:04042F000078787861
:040430000078787860
:04043100007878785F
:04043200007878785E
:04043300007878785D
:04043400007878785C
:04043500007878785B
:04043600007878785A
:040437000078787859
:040438000078787858
:040439000078787857
:04043A000078787856
:04043B000078787855
:04043C000077777757
:04043D000077777756
:04043E000077777755
:04043F000077777754
:040440000077777753
:040441000077777752
:040442000077777751
:040443000077777750
:040444000079797949
:040445000079797948
:040446000079797947
:040447000079797946
:040448000079797945
:040449000079797944
:04044A000079797943
:04044B000078787845
:04044C000077777747
:04044D000077777746
:04044E000077777745
:04044F000077777744
:040450000077777743
:040451000077777742
:04045200007878783E
:04045300007878783D
:040454000076767642
:040455000076767641
:040456000076767640
:04045700007676763F
:04045800007676763E
:04045900007676763D
:04045A00007676763C
:04045B00007676763B
:04045C000077777737
:04045D000077777736
:04045E000077777735
:04045F000077777734
:040460000077777733
:040461000077777732
:040462000077777731
:040463000077777730
:04046400007777772F
:04046500007878782B
:04046600007878782A
:040467000078787829
:040468000078787828
:040469000078787827
:04046A000079797923
:04046B000079797922
:04046C000079797921
:04046D000078787823
:04046E000078787822
:04046F000078787821
:040470000078787820
:04047100007878781F
:04047200007979791B
:04047300007979791A
:040474000079797919
:04047500007878781B
:04047600007878781A
:040477000078787819
:04047800007777771B
:04047900007777771A
:04047A00007676761C
:04047B00007676761B
:04047C00007676761A
:04047D000077777716
:04047E000077777715
:04047F000077777714
:040480000077777713
:040481000077777712
:040482000077777711
:040483000077777710
:04048400007777770F
:04048500007777770E
:04048600007777770D
:04048700007777770C
:04048800007777770B
:040489000078787807
:04048A000078787806
:04048B000078787805
:04048C000079797901
:04048D00007070701B
:04048E000071717117
:04048F000072727213
:04049000007373730F
:04049100007474740B
:040492000076767604
:040493000077777700
:0404940000777777FF
:04049500006868682B
:040496000076767600
:0404970000868686CF
:04049800006B6B6B1F
:04049900007C7C7CEB
:04049A00007D7D7DE7
:04049B00006A6A6A1F
:04049C0000767676FA
:04049D00007D7D7DE4
:04049E00007D7D7DE3
:04049F00007D7D7DE2
:0404A000007D7D7DE1
:0404A100007D7D7DE0
:0404A200007D7D7DDF
:0404A300007D7D7DDE
:0404A400007D7D7DDD
:0404A50000797979E8
:0404A60000797979E7
:0404A70000797979E6
:0404A80000797979E5
:0404A90000797979E4
:0404AA0000797979E3
:0404AB0000797979E2
:0404AC0000797979E1
:0404AD00007E7E7ED1
:0404AE00007C7C7CD6
:0404AF0000797979DE
:0404B00000767676E6
:0404B10000767676E5
:0404B20000777777E1
:0404B300007A7A7AD7
:0404B400007C7C7CD0
:0404B50000838383BA
:0404B60000797979D7
:0404B700006F6F6FF4
:0404B80000707070F0
:0404B90000797979D4
:0404BA00007F7F7FC1
:0404BB00007D7D7DC6
:0404BC0000787878D4
:0404BD00007A7A7ACD
:0404BE00007A7A7ACC
:0404BF00007A7A7ACB
:0404C000007A7A7ACA
:0404C100007A7A7AC9
:0404C200007A7A7AC8
:0404C300007A7A7AC7
:0404C400007A7A7AC6
:0404C500007C7C7CBF
:0404C600007C7C7CBE
:0404C700007C7C7CBD
:0404C800007C7C7CBC
:0404C900007C7C7CBB
:0404CA00007C7C7CBA
:0404CB00007C7C7CB9
:0404CC00007C7C7CB8
:0404CD00007B7B7BBA
:0404CE00007B7B7BB9
:0404CF00007B7B7BB8
:0404D000007B7B7BB7
:0404D100007B7B7BB6
:0404D200007B7B7BB5
:0404D300007B7B7BB4
:0404D400007B7B7BB3
:0404D500007B7B7BB2
:0404D60000767676C0
:0404D700006F6F6FD4
:0404D800006C6C6CDC
:0404D900006E6E6ED5
:0404DA0000767676BC
:0404DB00008080809D
:0404DC000087878787
:0404DD0000797979B0
:0404DE0000797979AF
:0404DF0000797979AE
:0404E00000787878B0
:0404E10000787878AF
:0404E20000777777B1
:0404E30000777777B0
:0404E40000777777AF
:0404E50000777777AE
:0404E60000777777AD
:0404E70000777777AC
:0404E80000777777AB
:0404E90000777777AA
:0404EA0000777777A9
:0404EB0000777777A8
:0404EC0000777777A7
:0404ED0000777777A6
:0404EE0000777777A5
:0404EF0000777777A4
:0404F00000777777A3
:0404F10000777777A2
:0404F20000777777A1
:0404F30000777777A0
:0404F400007777779F
:0404F50000767676A1
:0404F60000767676A0
:0404F700007676769F
:0404F800007676769E
:0404F900007676769D
:0404FA00007676769C
:0404FB00007676769B
:0404FC00007676769A
:0404FD000079797990
:0404FE00007979798F
:0404FF00007979798E
:04050000007979798C
:04050100007979798B
:04050200007979798A
:040503000079797989
:040504000079797988
:04050500007878788A
:040506000078787889
:040507000078787888
:040508000078787887
:040509000078787886
:04050A000078787885
:04050B000078787884
:04050C000079797980
:04050D000078787882
:04050E000078787881
:04050F000078787880
:04051000007878787F
:04051100007878787E
:04051200007878787D
:04051300007878787C
:04051400007878787B
:04051500007878787A
:040516000078787879
:040517000078787878
:040518000078787877
:040519000078787876
:04051A000078787875
:04051B000078787874
:04051C000078787873
:04051D000077777775
:04051E000077777774
:04051F000077777773
:040520000077777772
:040521000077777771
:040522000077777770
:04052300007777776F
:04052400007777776E
:040525000079797967
:040526000079797966
:040527000079797965
:040528000079797964
:040529000079797963
:04052A000078787865
:04052B000078787864
:04052C000078787863
:04052D000077777765
:04052E000077777764
:04052F000077777763
:04053000007878785F
:04053100007878785E
:04053200007878785D
:04053300007878785C
:04053400007878785B
:04053500007777775D
:04053600007777775C
:04053700007777775B
:04053800007676765D
:04053900007676765C
:04053A00007676765B
:04053B00007676765A
:04053C000076767659
:04053D000078787852
:04053E000078787851
:04053F000078787850
:04054000007878784F
:04054100007878784E
:04054200007878784D
:04054300007878784C
:04054400007878784B
:04054500007777774D
:040546000078787849
:040547000078787848
:040548000078787847
:040549000078787846
:04054A000078787845
:04054B000079797941
:04054C000079797940
:04054D00007979793F
:04054E000078787841
:04054F000078787840
:04055000007878783F
:04055100007878783E
:04055200007878783D
:04055300007878783C
:04055400007878783B
:040555000079797937
:040556000078787839
:040557000078787838
:040558000078787837
:040559000077777739
:04055A000077777738
:04055B00007676763A
:04055C000076767639
:04055D000076767638
:04055E000077777734
:04055F000077777733
:040560000077777732
:040561000077777731
:040562000077777730
:04056300007777772F
:04056400007777772E
:04056500007777772D
:04056600007777772C
:04056700007777772B
:04056800007777772A
:040569000078787826
:04056A000078787825
:04056B000078787824
:04056C000079797920
:04056D00007979791F
:04056E000072727233
:04056F000072727232
:04057000007474742B
:040571000075757527
:040572000077777720
:040573000079797919
:04057400007A7A7A15
:04057500007B7B7B11
:0405760000ACACAC7D
:0405770000B1B1B16D
:04057800009E9E9EA5
:0405790000454545AF
:04057A00003A3A3ACF
:04057B00003D3D3DC5
:04057C0000424242B5
:04057D000062626254
:04057E000076767617
:04057F000076767616
:040580000076767615
:040581000076767614
:040582000076767613
:040583000076767612
:040584000076767611
:040585000076767610
:04058600007777770C
:04058700007777770B
:04058800007777770A
:040589000077777709
:04058A000077777708
:04058B000077777707
:04058C000077777706
:04058D000077777705
:04058E00007A7A7AFB
:04058F000077777703
:040590000072727211
:040591000070707016
:04059200007373730C
:04059300007B7B7BF3
:0405940000848484D7
:04059500008A8A8AC4
:04059600006B6B6B20
:04059700006666662E
:04059800006060603F
:04059900005D5D5D47
:04059A00005D5D5D46
:04059B00005E5E5E42
:04059C00005C5C5C47
:04059D00005A5A5A4C
:04059E00005959594E
:04059F00005959594D
:0405A000005959594C
:0405A100005959594B
:0405A200005959594A
:0405A3000059595949
:0405A4000059595948
:0405A5000059595947
:0405A600005A5A5A43
:0405A700005A5A5A42
:0405A800005A5A5A41
:0405A900005A5A5A40
:0405AA00005A5A5A3F
:0405AB00005A5A5A3E
:0405AC00005A5A5A3D
:0405AD00005A5A5A3C
:0405AE00005B5B5B38
:0405AF00005B5B5B37
:0405B000005B5B5B36
:0405B100005B5B5B35
:0405B200005A5A5A37
:0405B300005A5A5A36
:0405B400005A5A5A35
:0405B500005A5A5A34
:0405B6000063636318
:0405B7000060606020
:0405B800005B5B5B2E
:0405B900005A5A5A30
:0405BA00005E5E5E23
:0405BB000068686804
:0405BC0000737373E2
:0405BD00007A7A7ACC
:0405BE00007A7A7ACB
:0405BF0000797979CD
:0405C00000797979CC
:0405C10000797979CB
:0405C20000787878CD
:0405C30000777777CF
:0405C40000777777CE
:0405C50000777777CD
:0405C60000787878C9
:0405C70000787878C8
:0405C80000787878C7
:0405C90000777777C9
:0405CA0000777777C8
:0405CB0000777777C7
:0405CC0000777777C6
:0405CD0000777777C5
:0405CE0000777777C4
:0405CF0000777777C3
:0405D00000777777C2
:0405D10000777777C1
:0405D20000777777C0
:0405D30000777777BF
:0405D40000777777BE
:0405D50000777777BD
:0405D60000767676BF
:0405D70000767676BE
:0405D80000767676BD
:0405D90000767676BC
:0405DA0000767676BB
:0405DB0000767676BA
:0405DC0000767676B9
:0405DD0000767676B8
:0405DE0000797979AE
:0405DF0000797979AD
:0405E00000797979AC
:0405E10000797979AB
:0405E20000797979AA
:0405E30000797979A9
:0405E40000797979A8
:0405E50000797979A7
:0405E60000787878A9
:0405E70000787878A8
:0405E80000787878A7
:0405E90000787878A6
:0405EA0000787878A5
:0405EB0000787878A4
:0405EC0000787878A3
:0405ED0000787878A2
:0405EE0000787878A1
:0405EF0000787878A0
:0405F000007878789F
:0405F100007878789E
:0405F200007878789D
:0405F300007878789C
:0405F400007878789B
:0405F500007878789A
:0405F6000078787899
:0405F7000078787898
:0405F8000078787897
:0405F9000078787896
:0405FA000078787895
:0405FB000078787894
:0405FC000078787893
:0405FD000078787892
:0405FE000077777794
:0405FF000077777793
:040600000077777791
:040601000077777790
:04060200007777778F
:04060300007777778E
:04060400007777778D
:04060500007777778C
:040606000079797985
:040607000079797984
:040608000079797983
:040609000078787885
:04060A000078787884
:04060B000078787883
:04060C000078787882
:04060D000078787881
:04060E000077777783
:04060F000077777782
:040610000077777781
:04061100007878787D
:04061200007878787C
:04061300007878787B
:04061400007878787A
:040615000078787879
:04061600007777777B
:04061700007777777A
:040618000077777779
:040619000077777778
:04061A000077777777
:04061B000076767679
:04061C000076767678
:04061D000076767677
:04061E000078787870
:04061F00007878786F
:04062000007878786E
:04062100007878786D
:04062200007878786C
:04062300007878786B
:04062400007878786A
:040625000078787869
:04062600007777776B
:040627000078787867
:040628000078787866
:040629000078787865
:04062A000078787864
:04062B000079797960
:04062C00007979795F
:04062D00007979795E
:04062E00007979795D
:04062F00007979795C
:04063000007979795B
:04063100007878785D
:04063200007878785C
:04063300007878785B
:04063400007878785A
:040635000078787859
:040636000078787858
:040637000078787857
:040638000078787856
:040639000078787855
:04063A000077777757
:04063B000077777756
:04063C000076767658
:04063D000076767657
:04063E000076767656
:04063F000077777752
:040640000077777751
:040641000077777750
:04064200007777774F
:04064300007777774E
:04064400007777774D
:04064500007777774C
:04064600007777774B
:04064700007777774A
:040648000077777749
:040649000077777748
:04064A000078787844
:04064B000078787843
:04064C00007979793F
:04064D00007979793E
:04064E00007979793D
:04064F0000949494EB
:0406500000949494EA
:0406510000969696E3
:0406520000989898DC
:04065300009A9A9AD5
:04065400009C9C9CCE
:04065500009D9D9DCA
:04065600009E9E9EC6
:0406570000B5B5B580
:0406580000BCBCBC6A
:0406590000A8A8A8A5
:04065A0000424242D6
:04065B0000353535FC
:04065C000031313107
:04065D00002424242D
:04065E0000343434FC
:04065F0000444444CB
:0406600000444444CA
:0406610000444444C9
:0406620000444444C8
:0406630000444444C7
:0406640000444444C6
:0406650000444444C5
:0406660000444444C4
:04066700004B4B4BAE
:04066800004B4B4BAD
:04066900004B4B4BAC
:04066A00004B4B4BAB
:04066B00004B4B4BAA
:04066C00004B4B4BA9
:04066D00004B4B4BA8
:04066E00004B4B4BA7
:04066F00005454548B
:04067000004F4F4F99
:04067100004A4A4AA7
:04067200004A4A4AA6
:040673000050505093
:04067400005D5D5D6B
:04067500006B6B6B40
:040676000074747424
:040677000069696944
:0406780000919191CB
:0406790000BDBDBD46
:04067A0000CACACA1E
:04067B0000BBBBBB4A
:04067C0000ADADAD73
:04067D0000B2B2B263
:04067E0000BEBEBE3E
:04067F0000C3C3C32E
:0406800000C3C3C32D
:0406810000C3C3C32C
:0406820000C2C2C22E
:0406830000C2C2C22D
:0406840000C2C2C22C
:0406850000C2C2C22B
:0406860000C2C2C22A
:0406870000C4C4C423
:0406880000C4C4C422
:0406890000C4C4C421
:04068A0000C4C4C420
:04068B0000C4C4C41F
:04068C0000C4C4C41E
:04068D0000C4C4C41D
:04068E0000C4C4C41C
:04068F0000C5C5C518
:0406900000C5C5C517
:0406910000C4C4C419
:0406920000C4C4C418
:0406930000C4C4C417
:0406940000C4C4C416
:0406950000C4C4C415
:0406960000C4C4C414
:0406970000C3C3C316
:0406980000C5C5C50F
:0406990000C6C6C60B
:04069A0000BFBFBF1F
:04069B0000ADADAD54
:04069C0000939393A1
:04069D0000787878F1
:04069E000068686820
:04069F00007A7A7AE9
:0406A000007A7A7AE8
:0406A10000797979EA
:0406A20000797979E9
:0406A30000787878EB
:0406A40000787878EA
:0406A50000777777EC
:0406A60000777777EB
:0406A70000787878E7
:0406A80000787878E6
:0406A90000787878E5
:0406AA0000787878E4
:0406AB0000787878E3
:0406AC0000777777E5
:0406AD0000777777E4
:0406AE0000777777E3
:0406AF0000767676E5
:0406B00000767676E4
:0406B10000767676E3
:0406B20000767676E2
:0406B30000767676E1
:0406B40000767676E0
:0406B50000767676DF
:0406B60000767676DE
:0406B70000777777DA
:0406B80000777777D9
:0406B90000777777D8
:0406BA0000777777D7
:0406BB0000777777D6
:0406BC0000777777D5
:0406BD0000777777D4
:0406BE0000777777D3
:0406BF0000797979CC
:0406C00000797979CB
:0406C10000797979CA
:0406C20000797979C9
:0406C30000797979C8
:0406C40000797979C7
:0406C50000797979C6
:0406C60000797979C5
:0406C70000777777CA
:0406C80000777777C9
:0406C90000787878C5
:0406CA0000787878C4
:0406CB0000787878C3
:0406CC0000787878C2
:0406CD0000787878C1
:0406CE0000787878C0
:0406CF0000787878BF
:0406D00000787878BE
:0406D10000787878BD
:0406D20000787878BC
:0406D30000787878BB
:0406D40000787878BA
:0406D50000787878B9
:0406D60000787878B8
:0406D70000787878B7
:0406D80000787878B6
:0406D90000787878B5
:0406DA0000787878B4
:0406DB0000787878B3
:0406DC0000787878B2
:0406DD0000787878B1
:0406DE0000787878B0
:0406DF0000777777B2
:0406E00000777777B1
:0406E10000777777B0
:0406E20000777777AF
:0406E30000777777AE
:0406E40000777777AD
:0406E50000777777AC
:0406E60000777777AB
:0406E70000797979A4
:0406E80000787878A6
:0406E90000787878A5
:0406EA0000787878A4
:0406EB0000787878A3
:0406EC0000787878A2
:0406ED0000787878A1
:0406EE0000787878A0
:0406EF0000777777A2
:0406F00000777777A1
:0406F10000777777A0
:0406F200007878789C
:0406F300007878789B
:0406F400007878789A
:0406F5000078787899
:0406F6000078787898
:0406F700007777779A
:0406F8000077777799
:0406F9000077777798
:0406FA000077777797
:0406FB000077777796
:0406FC000077777795
:0406FD000077777794
:0406FE000077777793
:0406FF00007878788F
:04070000007878788D
:04070100007878788C
:04070200007878788B
:04070300007878788A
:040704000078787889
:040705000078787888
:040706000078787887
:040707000077777789
:040708000078787885
:04070900007B7B7B7B
:04070A000077777786
:04070B00006D6D6DA3
:04070C00007F7F7F6C
:04070D00007D7D7D71
:04070E00006A6A6AA9
:04070F0000696969AB
:04071000007D7D7D6E
:040711000075757585
:040712000071717190
:040713000076767680
:040714000080808061
:040715000083838357
:04071600007A7A7A71
:04071700006F6F6F91
:040718000072727287
:04071900007B7B7B6B
:04071A00007B7B7B6A
:04071B00008080805A
:04071C00007979796E
:04071D00007474747C
:04071E00007E7E7E5D
:04071F00007373737D
:04072000007A7A7A67
:04072100007A7A7A66
:040722000079797968
:04072300007878786A
:04072400007777776C
:04072500007777776B
:04072600007676766D
:04072700007676766C
:04072800007D7D7D56
:04072900007B7B7B5B
:04072A00007C7C7C57
:04072B000087878735
:04072C00009595950A
:04072D0000999999FD
:04072E00009393930E
:04072F00008A8A8A28
:04073000007979795A
:040731000079797959
:04073200007878785B
:040733000076767660
:040734000075757562
:040735000073737367
:040736000072727269
:040737000072727268
:04073800006F6F6F70
:040739000084848430
:04073A000091919108
:04073B00006464648E
:04073C00006565658A
:04073D00003434341C
:04073E00003333331E
:04073F00006B6B6B75
:040740000080808035
:04074100008282822E
:040742000085858524
:040743000089898917
:04074400008E8E8E07
:0407450000929292FA
:0407460000959595F0
:0407470000979797E9
:0407480000999999E2
:04074900009B9B9BDB
:04074A00009E9E9ED1
:04074B0000A0A0A0CA
:04074C0000A0A0A0C9
:04074D00009F9F9FCB
:04074E00009D9D9DD0
:04074F00009B9B9BD5
:0407500000979797E0
:0407510000949494E8
:04075200008C8C8CFF
:040753000089898907
:040754000080808021
:040755000078787838
:04075600005757579A
:04075700007D7D7D27
:04075800006565656E
:0407590000C5C5C54D
:04075A00008585850C
:04075B00007F7F7F1D
:04075C00007A7A7A2B
:04075D000070707048
:04075E00007979792C
:04075F00008484840A
:0407600000898989FA
:04076100007373733B
:040762000075757534
:04076300008282820C
:0407640000868686FF
:04076500007777772B
:04076600008D8D8DE8
:040767000073737335
:04076800008D8D8DE6
:04076900008E8E8EE2
:04076A00008E8E8EE1
:04076B00008E8E8EE0
:04076C00008F8F8FDC
:04076D00008F8F8FDB
:04076E00008F8F8FDA
:04076F00008F8F8FD9
:04077000008E8E8EDB
:04077100007E7E7E0A
:04077200008C8C8CDF
:04077300008B8B8BE1
:0407740000888888E9
:0407750000828282FA
:0407760000959595C0
:0407770000838383F5
:0407780000848484F1
:04077900007D7D7D05
:04077A0000919191C8
:04077B00007C7C7C06
:04077C00009A9A9AAB
:04077D0000BEBEBE3E
:04077E000066666645
:04077F00007979790B
:04078000007A7A7A07
:04078100006F6F6F27
:040782000075757514
:040783000079797907
:04078400008F8F8FC4
:04078500007E7E7EF6
:04078600007A7A7A01
:04078700007676760C
:04078800007676760B
:0407890000828282E6
:04078A00006C6C6C27
:04078B00007D7D7DF3
:04078C0000828282E3
:04078D0000797979FD
:04078E00007A7A7AF9
:04078F0000787878FE
:04079000005C5C5C51
:04079100006767672F
:04079200005E5E5E49
:04079300004F4F4F75
:040794000054545465
:04079500005B5B5B4F
:04079600005A5A5A51
:04079700005D5D5D47
:040798000062626237
:0407990000373737B7
:04079A00005555555C
:04079B00005B5B5B49
:04079C000048484881
:04079D000060606038
:04079E000045454588
:04079F0000818181D3
:0407A000006F6F6F08
:0407A10000777777EF
:0407A20000797979E8
:0407A30000747474F6
:0407A40000767676EF
:0407A50000808080D0
:0407A60000828282C9
:0407A700007B7B7BDD
:0407A80000787878E5
:0407A90000787878E4
:0407AA0000787878E3
:0407AB0000787878E2
:0407AC0000787878E1
:0407AD0000787878E0
:0407AE0000787878DF
:0407AF0000787878DE
:0407B00000797979DA
:0407B10000797979D9
:0407B20000797979D8
:0407B30000797979D7
:0407B40000797979D6
:0407B50000797979D5
:0407B60000797979D4
:0407B70000797979D3
:0407B800007B7B7BCC
:0407B90000797979D1
:0407BA0000787878D3
:0407BB0000747474DE
:0407BC00006F6F6FEC
:0407BD0000767676D6
:0407BE00007D7D7DC0
:0407BF00007A7A7AC8
:0407C00000777777D0
:0407C10000777777CF
:0407C20000777777CE
:0407C30000777777CD
:0407C40000777777CC
:0407C50000777777CB
:0407C60000777777CA
:0407C70000777777C9
:0407C80000737373D4
:0407C90000747474D0
:0407CA00007B7B7BBA
:0407CB00007B7B7BB9
:0407CC0000828282A3
:0407CD0000707070D8
:0407CE00007E7E7EAD
:0407CF00006D6D6DDF
:0407D00000707070D5
:0407D10000737373CB
:0407D20000777777BE
:0407D300007C7C7CAE
:0407D400008181819E
:0407D500008686868E
:0407D6000089898984
:0407D700008B8B8B7D
:0407D8000093939364
:0407D9000098989854
:0407DA0000A2A2A235
:0407DB0000A0A0A03A
:0407DC0000A7A7A724
:0407DD0000A0A0A038
:0407DE00008484848B
:0407DF00008484848A
:0407E000006F6F6FC8
:0407E100007B7B7BA3
:0407E2000080808093
:0407E300007A7A7AA4
:0407E40000757575B2
:0407E50000777777AB
:0407E60000777777AA
:0407E70000737373B5
:0407E80000787878A5
:0407E900007D7D7D95
:0407EA0000727272B5
:0407EB00007B7B7B99
:0407EC00007C7C7C95
:0407ED00007A7A7A9A
:0407EE00007E7E7E8D
:0407EF00007A7A7A98
:0407F000007979799A
:0407F100007D7D7D8D
:0407F200007A7A7A95
:0407F30000767676A0
:0407F400007676769F
:0407F5000078787898
:0407F6000079797994
:0407F7000078787896
:0407F800007676769B
:0407F900007E7E7E82
:0407FA00007A7A7A8D
:0407FB00006C6C6CB6
:0407FC0000737373A0
:0407FD00007979798D
:0407FE00007979798C
:0407FF00007E7E7E7C
:04080000006F6F6FA7
:040801000075757594
:040802000075757593
:040803000074747495
:040804000074747494
:040805000073737396
:040806000072727298
:040807000072727297
:040808000071717199
:04080900006E6E6EA1
:04080A00007E7E7E70
:04080B00008E8E8E3F
:04080C000090909038
:04080D00008484845B
:04080E00007878787E
:04080F000075757586
:04081000007878787C
:040811000075757584
:040812000075757583
:040813000075757582
:040814000075757581
:040815000075757580
:04081600007575757F
:04081700007575757E
:04081800007575757D
:04081900006E6E6E91
:04081A00006A6A6A9C
:04081B00006C6C6C95
:04081C000031313145
:04081D00002F2F2F4A
:04081E00002E2E2E4C
:04081F00004F4F4FE8
:040820000069696999
:040821000080808053
:04082200008282824C
:040823000085858542
:040824000089898935
:04082500008E8E8E25
:040826000092929218
:04082700009595950E
:040828000097979707
:040829000099999900
:04082A00009B9B9BF9
:04082B00009E9E9EEF
:04082C0000A0A0A0E8
:04082D0000A0A0A0E7
:04082E00009F9F9FE9
:04082F00009D9D9DEE
:04083000009B9B9BF3
:0408310000979797FE
:040832000093939309
:04083300008C8C8C1D
:040834000089898925
:04083500008080803F
:040836000078787856
:0408370000565656BB
:04083800007D7D7D45
:04083900006060609B
:04083A0000A5A5A5CB
:04083B00004C4C4CD5
:04083C0000464646E6
:04083D0000535353BE
:04083E0000525252C0
:04083F0000515151C2
:04084000004E4E4ECA
:0408410000535353BA
:0408420000484848DA
:0408430000474747DC
:04084400004A4A4AD2
:040845000035353510
:04084600003131311B
:04084700008A8A8A0F
:0408480000909090FC
:040849000086868619
:04084A000087878715
:04084B000087878714
:04084C000087878713
:04084D00008888880F
:04084E00008888880E
:04084F00008989890A
:040850000089898909
:040851000069696968
:04085200003B3B3BF1
:0408530000545454A5
:040854000060606080
:04085500005D5D5D88
:0408560000545454A2
:04085700005F5F5F80
:04085800005A5A5A8E
:040859000067676766
:04085A00005959598F
:04085B00005C5C5C85
:04085C00003E3E3EDE
:04085D00005A5A5A89
:04085E0000A0A0A0B6
:04085F00006363636C
:040860000081818111
:04086100006F6F6F46
:04086200007878782A
:040863000079797926
:04086400006262626A
:040865000074747433
:04086600007676762C
:040867000077777728
:040868000067676757
:04086900006C6C6C47
:04086A000078787822
:04086B00006D6D6D42
:04086C000070707038
:04086D00006D6D6D40
:04086E00006969694B
:04086F00007878781D
:04087000008F8F8FD7
:0408710000939393CA
:0408720000BDBDBD4B
:0408730000CDCDCD1A
:0408740000BFBFBF43
:0408750000BCBCBC4B
:0408760000C2C2C238
:0408770000C5C5C52E
:0408780000C8C8C824
:0408790000CECECE11
:04087A0000CFCFCF0D
:04087B0000C6C6C627
:04087C0000ACACAC74
:04087D0000B9B9B94C
:04087E0000CBCBCB15
:04087F00007A7A7A07
:04088000007878780C
:04088100007C7C7CFF
:04088200007A7A7A04
:04088300007676760F
:040884000073737317
:040885000075757510
:040886000077777709
:040887000073737314
:04088800006C6C6C28
:040889000072727215
:04088A000072727214
:04088B000072727213
:04088C000072727212
:04088D000072727211
:04088E000072727210
:04088F00007272720F
:04089000007272720E
:040891000074747407
:040892000074747406
:040893000074747405
:040894000074747404
:040895000074747403
:040896000074747402
:040897000074747401
:040898000074747400
:04089900007070700B
:04089A00006A6A6A1C
:04089B00006E6E6E0F
:04089C0000787878F0
:04089D0000777777F2
:04089E0000757575F7
:04089F00007B7B7BE4
:0408A00000838383CB
:0408A10000777777EE
:0408A20000777777ED
:0408A30000777777EC
:0408A40000777777EB
:0408A50000777777EA
:0408A60000777777E9
:0408A70000777777E8
:0408A80000777777E7
:0408A90000777777E6
:0408AA0000797979DF
:0408AB0000787878E1
:0408AC00006C6C6C04
:0408AD00006A6A6A09
:0408AE00005858583E
:0408AF00006E6E6EFB
:0408B0000069696909
:0408B10000757575E4
:0408B20000777777DD
:0408B300007B7B7BD0
:0408B40000808080C0
:0408B50000858585B0
:0408B600008A8A8AA0
:0408B700008D8D8D96
:0408B800008F8F8F8F
:0408B900008E8E8E91
:0408BA000096969678
:0408BB0000A7A7A744
:0408BC0000AFAFAF2B
:0408BD0000BCBCBC03
:0408BE0000AFAFAF29
:0408BF0000818181B2
:0408C00000737373DB
:0408C100006F6F6FE6
:0408C200007A7A7AC4
:0408C300007F7F7FB4
:0408C40000797979C5
:0408C50000757575D0
:0408C60000777777C9
:0408C70000787878C5
:0408C80000747474D0
:0408C90000787878C3
:0408CA00007E7E7EB0
:0408CB00006C6C6CE5
:0408CC00007C7C7CB4
:0408CD0000828282A1
:0408CE0000767676C4
:0408CF00008383839C
:0408D000007D7D7DAD
:0408D10000717171D0
:0408D20000767676C0
:0408D30000797979B6
:0408D400007B7B7BAF
:0408D500007B7B7BAE
:0408D600007A7A7AB0
:0408D700007A7A7AAF
:0408D800007E7E7EA2
:0408D9000081818198
:0408DA00007D7D7DA3
:0408DB00007D7D7DA2
:0408DC00006F6F6FCB
:0408DD0000767676B5
:0408DE00007C7C7CA2
:0408DF00007B7B7BA4
:0408E0000085858585
:0408E100008282828D
:0408E200007F7F7F95
:0408E300007E7E7E97
:0408E400007E7E7E96
:0408E500007D7D7D98
:0408E600007C7C7C9A
:0408E700007B7B7B9C
:0408E800007B7B7B9B
:0408E900007A7A7A9D
:0408EA00008989896F
:0408EB00008B8B8B68
:0408EC00008A8A8A6A
:0408ED00008383837E
:0408EE00007A7A7A98
:0408EF0000757575A6
:0408F00000757575A5
:0408F100007777779E
:0408F200007C7C7C8E
:0408F300007C7C7C8D
:0408F400007D7D7D89
:0408F500007D7D7D88
:0408F600007E7E7E84
:0408F700007E7E7E83
:0408F800007F7F7F7F
:0408F900007F7F7F7E
:0408FA00007F7F7F7D
:0408FB00007575759A
:0408FC00007C7C7C84
:0408FD00003E3E3E3D
:0408FE00002D2D2D6F
:0408FF00003F3F3F38
:04090000007777778E
:04090100007E7E7E78
:040902000080808071
:04090300008282826A
:040904000085858560
:040905000089898953
:04090600008E8E8E43
:040907000092929236
:04090800009595952C
:040909000097979725
:04090A00009999991E
:04090B00009B9B9B17
:04090C00009E9E9E0D
:04090D0000A0A0A006
:04090E0000A1A1A102
:04090F00009F9F9F07
:04091000009D9D9D0C
:04091100009C9C9C0E
:04091200009797971C
:040913000094949424
:04091400008C8C8C3B
:04091500008A8A8A40
:04091600008080805D
:040917000078787874
:0409180000575757D6
:04091900007D7D7D63
:04091A000070707089
:04091B0000B1B1B1C5
:04091C00005D5D5DC0
:04091D00006C6C6C92
:04091E00008E8E8E2B
:04091F000094949418
:04092000008C8C8C2F
:04092100008181814F
:04092200008181814E
:040923000084848444
:040924000085858540
:04092500008B8B8B2D
:0409260000555555CE
:0409270000494949F1
:0409280000CDCDCD64
:0409290000D7D7D745
:04092A0000D9D9D93E
:04092B0000D9D9D93D
:04092C0000D9D9D93C
:04092D0000DADADA38
:04092E0000DADADA37
:04092F0000DBDBDB33
:0409300000DCDCDC2F
:0409310000DCDCDC2E
:0409320000A3A3A3D8
:04093300004F4F4FD3
:040934000079797954
:04093500009191910B
:04093600008F8F8F10
:040937000088888824
:040938000087878726
:04093900008E8E8E10
:04093A0000979797F4
:04093B00008C8C8C14
:04093C00008888881F
:04093D000060606096
:04093E000064646489
:04093F0000B4B4B498
:04094000007272725D
:040941000085858523
:04094200007171715E
:040943000079797945
:04094400008181812C
:04094500007B7B7B3D
:0409460000929292F7
:040947000084848420
:04094800008080802B
:04094900007D7D7D33
:04094A000082828223
:04094B000087878713
:04094C00008B8B8B06
:04094D00008888880E
:04094E000086868613
:04094F00007C7C7C30
:04095000007C7C7C2F
:0409510000959595E3
:04095200007F7F7F24
:0409530000ADADAD99
:0409540000BFBFBF62
:0409550000AFAFAF91
:0409560000ADADAD96
:0409570000B5B5B57D
:0409580000B3B3B382
:0409590000ADADAD93
:04095A0000A2A2A2B3
:04095B0000BEBEBE5E
:04095C0000C2C2C251
:04095D0000ADADAD8F
:04095E0000A2A2A2AF
:04095F0000A5A5A5A5
:04096000007B7B7B22
:040961000076767630
:04096200007F7F7F14
:04096300007A7A7A22
:04096400007777772A
:040965000078787826
:04096600007B7B7B1C
:04096700007C7C7C18
:040968000078787823
:04096900007474742E
:04096A000073737330
:04096B00007373732F
:04096C00007373732E
:04096D00007373732D
:04096E00007373732C
:04096F00007373732B
:04097000007373732A
:040971000073737329
:040972000074747425
:040973000074747424
:040974000074747423
:040975000074747422
:040976000074747421
:040977000074747420
:04097800007474741F
:04097900007474741E
:04097A00007A7A7A0B
:04097B00007373731F
:04097C00006F6F6F2A
:04097D000072727220
:04097E000074747419
:04097F00007373731B
:040980000074747417
:04098100007A7A7A04
:04098200007777770C
:04098300007777770B
:04098400007777770A
:040985000077777709
:040986000077777708
:040987000077777707
:040988000077777706
:040989000077777705
:04098A00007A7A7AFB
:04098B00007B7B7BF7
:04098C000072727211
:04098D00005C5C5C52
:04098E00005858585D
:04098F00004848488C
:040990000066666631
:04099100006D6D6D1B
:04099200007171710E
:040993000073737307
:0409940000777777FA
:04099500007B7B7BED
:04099600007F7F7FE0
:0409970000848484D0
:0409980000878787C6
:0409990000888888C2
:04099A00008D8D8DB2
:04099B00008E8E8EAE
:04099C00009A9A9A89
:04099D0000A6A6A664
:04099E0000BBBBBB24
:04099F0000B5B5B535
:0409A000008A8A8AB5
:0409A100007A7A7AE4
:0409A200006D6D6D0A
:0409A30000797979E5
:0409A400007E7E7ED5
:0409A50000797979E3
:0409A60000757575EE
:0409A70000787878E4
:0409A80000787878E3
:0409A90000757575EB
:0409AA0000787878E1
:0409AB0000797979DD
:0409AC0000737373EE
:0409AD0000787878DE
:0409AE00007B7B7BD4
:0409AF0000787878DC
:0409B00000858585B4
:0409B1000066666610
:0409B2000064646415
:0409B3000058585838
:0409B4000059595934
:0409B500005A5A5A30
:0409B600005C5C5C29
:0409B700005E5E5E22
:0409B800006060601B
:0409B900006060601A
:0409BA000060606019
:0409BB000050505048
:0409BC00005D5D5D20
:0409BD000057575731
:0409BE00005B5B5B24
:0409BF000056565632
:0409C000004747475E
:0409C100005252523C
:0409C200005E5E5E17
:0409C3000059595925
:0409C4000058585827
:0409C5000058585826
:0409C6000057575728
:0409C700005656562A
:0409C800005555552C
:0409C900005555552B
:0409CA00005454542D
:0409CB00007B7B7BB7
:0409CC00006B6B6BE6
:0409CD00005B5B5B15
:0409CE000057575720
:0409CF00005E5E5E0A
:0409D00000646464F7
:0409D10000626262FC
:0409D200005D5D5D0A
:0409D300005E5E5E06
:0409D400005E5E5E05
:0409D500005D5D5D07
:0409D600005B5B5B0C
:0409D700005A5A5A0E
:0409D8000059595910
:0409D9000058585812
:0409DA000057575714
:0409DB00005C5C5C04
:0409DC0000606060F7
:0409DD00006D6D6DCF
:0409DE000040404055
:0409DF00003E3E3E5A
:0409E0000046464641
:0409E10000727272BC
:0409E20000787878A9
:0409E3000080808090
:0409E4000082828289
:0409E500008585857F
:0409E6000089898972
:0409E700008D8D8D65
:0409E8000092929255
:0409E900009595954B
:0409EA000097979744
:0409EB00009A9A9A3A
:0409EC00009C9C9C33
:0409ED00009F9F9F29
:0409EE0000A1A1A122
:0409EF0000A1A1A121
:0409F00000A0A0A023
:0409F100009E9E9E28
:0409F200009C9C9C2D
:0409F3000098989838
:0409F4000094949443
:0409F500008D8D8D57
:0409F600008A8A8A5F
:0409F7000081818179
:0409F8000079797990
:0409F90000575757F5
:0409FA00007E7E7E7F
:0409FB0000676767C3
:0409FC0000AEAEAEED
:0409FD0000656565C7
:0409FE00007878788D
:0409FF000095959535
:040A00000094949436
:040A01000090909041
:040A0200008D8D8D49
:040A0300008B8B8B4E
:040A0400008E8E8E44
:040A0500008B8B8B4C
:040A0600009C9C9C18
:040A070000585858E3
:040A08000041414127
:040A090000D1D1D176
:040A0A0000C5C5C599
:040A0B0000CACACA89
:040A0C0000CACACA88
:040A0D0000CBCBCB84
:040A0E0000CBCBCB83
:040A0F0000CCCCCC7F
:040A100000CDCDCD7B
:040A110000CDCDCD7A
:040A120000CDCDCD79
:040A130000AAAAAAE1
:040A1400003E3E3E24
:040A1500007676767B
:040A1600009090902C
:040A1700008F8F8F2E
:040A18000092929224
:040A19000087878744
:040A1A000090909028
:040A1B00008C8C8C33
:040A1C00008D8D8D2F
:040A1D000090909025
:040A1E00006767679F
:040A1F00005D5D5DBC
:040A200000B0B0B0C2
:040A210000646464A5
:040A2200006767679B
:040A2300006767679A
:040A24000088888836
:040A2500009B9B9BFC
:040A2600008D8D8D25
:040A2700009E9E9EF1
:040A2800009595950B
:040A2900009D9D9DF2
:040A2A0000A8A8A8D0
:040A2B000096969605
:040A2C00008F8F8F19
:040A2D00009292920F
:040A2E00009292920E
:040A2F00009E9E9EE9
:040A3000009B9B9BF1
:040A3100008787872C
:040A3200009191910D
:040A33000083838336
:040A3400009C9C9CEA
:040A3500009D9D9DE6
:040A3600008F8F8F0F
:040A37000093939302
:040A3800009B9B9BE9
:040A390000999999EE
:040A3A0000969696F6
:040A3B0000AAAAAAB9
:040A3C00008D8D8D0F
:040A3D0000AAAAAAB7
:040A3E0000D7D7D72F
:040A3F0000B9B9B988
:040A400000A4A4A4C6
:040A410000A5A5A5C2
:040A4200008E8E8E06
:040A430000A2A2A2C9
:040A440000A8A8A8B6
:040A450000A8A8A8B5
:040A460000A0A0A0CC
:040A4700009C9C9CD7
:040A4800009E9E9ED0
:040A4900009E9E9ECF
:040A4A00009A9A9ADA
:040A4B0000A7A7A7B2
:040A4C0000A7A7A7B1
:040A4D0000A7A7A7B0
:040A4E0000A7A7A7AF
:040A4F0000A7A7A7AE
:040A500000A7A7A7AD
:040A510000A7A7A7AC
:040A520000A7A7A7AB
:040A530000A9A9A9A4
:040A540000A9A9A9A3
:040A550000A9A9A9A2
:040A560000A9A9A9A1
:040A570000A9A9A9A0
:040A580000A9A9A99F
:040A590000A9A9A99E
:040A5A0000A9A9A99D
:040A5B0000B1B1B184
:040A5C0000A9A9A99B
:040A5D0000898989FA
:040A5E00006E6E6E4A
:040A5F000071717140
:040A6000007C7C7C1E
:040A6100007777772C
:040A6200006E6E6E46
:040A6300007777772A
:040A64000077777729
:040A65000077777728
:040A66000077777727
:040A67000077777726
:040A68000077777725
:040A69000077777724
:040A6A000077777723
:040A6B00007A7A7A19
:040A6C00007979791B
:040A6D00006868684D
:040A6E00005252528E
:040A6F000059595978
:040A7000004D4D4D9B
:040A71000069696946
:040A7200007171712D
:040A73000075757520
:040A74000077777719
:040A7500007A7A7A0F
:040A7600007E7E7E02
:040A770000818181F8
:040A780000858585EB
:040A790000888888E1
:040A7A0000898989DD
:040A7B00009C9C9CA3
:040A7C00009B9B9BA5
:040A7D0000A2A2A28F
:040A7E0000A7A7A77F
:040A7F0000B9B9B948
:040A800000B6B6B650
:040A810000939393B8
:040A8200008A8A8AD2
:040A8300006B6B6B2E
:040A84000077777709
:040A8500007D7D7DF6
:040A86000078787804
:040A8700007575750C
:040A88000078787802
:040A8900007A7A7AFB
:040A8A000076767606
:040A8B0000787878FF
:040A8C000077777701
:040A8D0000808080E5
:040A8E000074747408
:040A8F000075757504
:040A9000007C7C7CEE
:040A910000767676FF
:040A9200004C4C4C7C
:040A930000878787CA
:040A940000ACACAC5A
:040A9500009E9E9E83
:040A9600008E8E8EB2
:040A970000888888C3
:040A9800008D8D8DB3
:040A9900009494949D
:040A9A000095959599
:040A9B00009393939E
:040A9C000095959597
:040A9D00009F9F9F78
:040A9E00009A9A9A86
:040A9F0000B1B1B140
:040AA00000C8C8C8FA
:040AA10000BDBDBD1A
:040AA20000BCBCBC1C
:040AA30000C3C3C306
:040AA40000C4C4C402
:040AA50000C4C4C401
:040AA60000C3C3C303
:040AA70000C3C3C302
:040AA80000C2C2C204
:040AA90000C1C1C106
:040AAA0000C1C1C105
:040AAB0000C0C0C007
:040AAC0000B6B6B624
:040AAD0000B5B5B526
:040AAE0000B3B3B32B
:040AAF0000B2B2B22D
:040AB00000B2B2B22C
:040AB10000B1B1B12E
:040AB20000AFAFAF33
:040AB30000AEAEAE35
:040AB40000A7A7A749
:040AB50000A5A5A54E
:040AB60000A1A1A159
:040AB700009D9D9D64
:040AB8000098989872
:040AB9000093939380
:040ABA00008F8F8F8B
:040ABB00008D8D8D90
:040ABC0000777777D1
:040ABD0000838383AC
:040ABE0000696969F9
:040ABF00003232329D
:040AC0000053535339
:040AC1000058585829
:040AC200006C6C6CEC
:040AC30000747474D3
:040AC40000808080AE
:040AC50000828282A7
:040AC600008585859D
:040AC7000089898990
:040AC800008E8E8E80
:040AC9000092929273
:040ACA000095959569
:040ACB000097979762
:040ACC00009B9B9B55
:040ACD00009D9D9D4E
:040ACE0000A0A0A044
:040ACF0000A2A2A23D
:040AD00000A2A2A23C
:040AD10000A1A1A13E
:040AD200009F9F9F43
:040AD300009D9D9D48
:040AD4000099999953
:040AD500009696965B
:040AD600008E8E8E72
:040AD700008B8B8B7A
:040AD8000082828294
:040AD900007A7A7AAB
:040ADA000058585810
:040ADB00007F7F7F9A
:040ADC00006F6F6FC9
:040ADD0000B0B0B005
:040ADE00005F5F5FF7
:040ADF00006B6B6BD2
:040AE000008282828C
:040AE1000080808091
:040AE2000085858581
:040AE300008E8E8E65
:040AE400008C8C8C6A
:040AE5000088888875
:040AE600007E7E7E92
:040AE700008F8F8F5E
:040AE800004949492F
:040AE9000038383861
:040AEA0000D7D7D783
:040AEB0000CACACAA9
:040AEC0000CECECE9C
:040AED0000CECECE9B
:040AEE0000CFCFCF97
:040AEF0000CFCFCF96
:040AF00000D0D0D092
:040AF10000D1D1D18E
:040AF20000D1D1D18D
:040AF30000D1D1D18C
:040AF40000A5A5A50F
:040AF5000038383855
:040AF600007575759D
:040AF7000088888863
:040AF8000088888862
:040AF9000096969637
:040AFA00008989895D
:040AFB00008A8A8A59
:040AFC00008A8A8A58
:040AFD00008E8E8E4B
:040AFE00008F8F8F47
:040AFF0000616161D0
:040B000000575757EC
:040B010000B2B2B2DA
:040B0200006F6F6FA2
:040B0300007575758F
:040B040000666666BB
:040B050000AAAAAAEE
:040B060000A4A4A4FF
:040B07000046464618
:040B08000033333350
:040B0900003C3C3C34
:040B0A000045454518
:040B0B00003A3A3A38
:040B0C00003E3E3E2B
:040B0D000040404024
:040B0E00003A3A3A35
:040B0F00003C3C3C2E
:040B1000004747470C
:040B110000545454E4
:040B1200004747470A
:040B1300004E4E4EF4
:040B14000047474708
:040B1500004F4F4FEF
:040B1600004B4B4BFA
:040B17000046464608
:040B1800004B4B4BF8
:040B1900004B4B4BF7
:040B1A00004D4D4DF0
:040B1B00005B5B5BC5
:040B1C0000505050E5
:040B1D00004E4E4EEA
:040B1E000095959514
:040B1F0000DADADA44
:040B200000BEBEBE97
:040B210000A5A5A5E1
:040B220000CECECE65
:040B230000CFCFCF61
:040B240000ACACACC9
:040B250000C2C2C286
:040B260000CCCCCC67
:040B270000C1C1C187
:040B280000BBBBBB98
:040B290000C5C5C579
:040B2A0000CFCFCF5A
:040B2B0000CFCFCF59
:040B2C0000D0D0D055
:040B2D0000D0D0D054
:040B2E0000D0D0D053
:040B2F0000D0D0D052
:040B300000D0D0D051
:040B310000D0D0D050
:040B320000D0D0D04F
:040B330000D0D0D04E
:040B340000D4D4D441
:040B350000D4D4D440
:040B360000D4D4D43F
:040B370000D4D4D43E
:040B380000D4D4D43D
:040B390000D4D4D43C
:040B3A0000D4D4D43B
:040B3B0000D4D4D43A
:040B3C0000E6E6E603
:040B3D0000D5D5D535
:040B3E00009F9F9FD6
:040B3F00007272725C
:040B4000007777774C
:040B41000085858521
:040B4200007D7D7D38
:040B43000074747452
:040B44000077777748
:040B45000077777747
:040B46000077777746
:040B47000077777745
:040B48000077777744
:040B49000077777743
:040B4A000077777742
:040B4B000077777741
:040B4C00007B7B7B34
:040B4D000076767642
:040B4E00005D5D5D8C
:040B4F00004B4B4BC1
:040B50000060606081
:040B510000555555A1
:040B52000064646473
:040B5300006565656F
:040B5400007676763B
:040B55000078787834
:040B5600007A7A7A2D
:040B5700007D7D7D23
:040B58000080808019
:040B5900008383830F
:040B5A000085858508
:040B5B000087878701
:040B5C00009C9C9CC1
:040B5D0000A2A2A2AE
:040B5E0000AFAFAF86
:040B5F0000AFAFAF85
:040B600000B6B6B66F
:040B610000ACACAC8C
:040B620000898989F4
:040B630000858585FF
:040B64000069696952
:040B6500007575752D
:040B6600007B7B7B1A
:040B67000077777725
:040B6800007474742D
:040B6900007979791D
:040B6A00007B7B7B16
:040B6B00007878781E
:040B6C00007878781D
:040B6D00007A7A7A16
:040B6E0000858585F4
:040B6F000074747426
:040B7000007B7B7B10
:040B7100007D7D7D09
:040B72000065656550
:040B730000434343B5
:040B740000BDBDBD46
:040B750000D5D5D5FD
:040B760000B3B3B362
:040B770000858585EB
:040B7800006464644D
:040B79000057575773
:040B7A00005353537E
:040B7B00004F4F4F89
:040B7C00004A4A4A97
:040B7D000055555575
:040B7E00005252527D
:040B7F00004E4E4E88
:040B800000919191BE
:040B810000E7E7E7BB
:040B820000FDFDFD78
:040B830000F7F7F789
:040B840000F2F2F297
:040B850000EFEFEF9F
:040B860000EFEFEF9E
:040B870000EEEEEEA0
:040B880000EEEEEE9F
:040B890000EDEDEDA1
:040B8A0000ECECECA3
:040B8B0000EBEBEBA5
:040B8C0000EBEBEBA4
:040B8D0000E5E5E5B5
:040B8E0000E8E8E8AB
:040B8F0000E8E8E8AA
:040B900000E2E2E2BB
:040B910000D9D9D9D5
:040B920000D5D5D5E0
:040B930000DADADAD0
:040B940000E1E1E1BA
:040B950000D0D0D0EC
:040B960000CECECEF1
:040B970000C9C9C9FF
:040B980000C2C2C213
:040B990000BBBBBB27
:040B9A0000B4B4B43B
:040B9B0000AFAFAF49
:040B9C0000ACACAC51
:040B9D0000A5A5A565
:040B9E0000B7B7B72E
:040B9F0000737373F9
:040BA0000019191906
:040BA1000044444484
:040BA200005050505F
:040BA3000068686816
:040BA400007A7A7ADF
:040BA50000808080CC
:040BA60000828282C5
:040BA70000858585BB
:040BA80000898989AE
:040BA900008E8E8E9E
:040BAA000092929291
:040BAB000095959587
:040BAC000097979780
:040BAD00009C9C9C70
:040BAE00009E9E9E69
:040BAF0000A1A1A15F
:040BB00000A3A3A358
:040BB10000A3A3A357
:040BB20000A2A2A259
:040BB30000A0A0A05E
:040BB400009E9E9E63
:040BB500009A9A9A6E
:040BB6000096969679
:040BB700008F8F8F8D
:040BB800008C8C8C95
:040BB90000838383AF
:040BBA00007B7B7BC6
:040BBB00005959592B
:040BBC0000808080B5
:040BBD00006B6B6BF3
:040BBE0000A6A6A641
:040BBF000056565630
:040BC000006E6E6EE7
:040BC100008E8E8E86
:040BC200008D8D8D88
:040BC300008C8C8C8A
:040BC400009191917A
:040BC500008E8E8E82
:040BC600008E8E8E81
:040BC700008B8B8B89
:040BC800009494946D
:040BC900004949494D
:040BCA00003939397C
:040BCB0000D6D6D6A4
:040BCC0000D5D5D5A6
:040BCD0000C9C9C9C9
:040BCE0000C9C9C9C8
:040BCF0000CACACAC4
:040BD00000CACACAC3
:040BD10000CBCBCBBF
:040BD20000CBCBCBBE
:040BD30000CCCCCCBA
:040BD40000CCCCCCB9
:040BD50000A9A9A921
:040BD6000047474746
:040BD700007F7F7F9D
:040BD8000090909069
:040BD900008E8E8E6E
:040BDA00009D9D9D40
:040BDB000095959557
:040BDC000090909065
:040BDD00009292925E
:040BDE00009797974E
:040BDF000099999947
:040BE00000656565E2
:040BE10000606060F0
:040BE20000B1B1B1FC
:040BE300006F6F6FC1
:040BE400007B7B7B9C
:040BE50000656565DD
:040BE60000A5A5A51C
:040BE700009F9F9F2D
:040BE8000057575704
:040BE90000636363DF
:040BEA0000757575A8
:040BEB00007878789E
:040BEC00006B6B6BC4
:040BED00004B4B4B23
:040BEE00007C7C7C8F
:040BEF000079797997
:040BF000007B7B7B90
:040BF10000636363D7
:040BF20000696969C4
:040BF30000636363D5
:040BF40000666666CB
:040BF500006D6D6DB5
:040BF60000676767C6
:040BF700005E5E5EE0
:040BF80000636363D0
:040BF900006C6C6CB4
:040BFA0000616161D4
:040BFB0000555555F7
:040BFC00005D5D5DDE
:040BFD00005F5F5FD7
:040BFE0000545454F7
:040BFF00004C4C4C0E
:040C0000005A5A5AE2
:040C0100008B8B8B4E
:040C020000A2A2A208
:040C030000AAAAAAEF
:040C0400008C8C8C48
:040C0500009F9F9F0E
:040C060000B3B3B3D1
:040C070000C0C0C0A9
:040C080000BEBEBEAE
:040C090000BEBEBEAD
:040C0A0000CACACA88
:040C0B0000D7D7D760
:040C0C0000DCDCDC50
:040C0D0000E6E6E631
:040C0E0000E6E6E630
:040C0F0000E6E6E62F
:040C100000E6E6E62E
:040C110000E6E6E62D
:040C120000E6E6E62C
:040C130000E6E6E62B
:040C140000E6E6E62A
:040C150000E5E5E52C
:040C160000E5E5E52B
:040C170000E5E5E52A
:040C180000E5E5E529
:040C190000E5E5E528
:040C1A0000E5E5E527
:040C1B0000E5E5E526
:040C1C0000E5E5E525
:040C1D0000CECECE69
:040C1E0000C3C3C389
:040C1F000094949415
:040C20000070707080
:040C2100007676766D
:040C2200007A7A7A60
:040C23000074747471
:040C2400007C7C7C58
:040C25000077777766
:040C26000077777765
:040C27000077777764
:040C28000077777763
:040C29000077777762
:040C2A000077777761
:040C2B000077777760
:040C2C00007777775F
:040C2D00007B7B7B52
:040C2E000076767660
:040C2F0000575757BC
:040C300000454545F1
:040C3100006161619C
:040C320000545454C2
:040C330000595959B2
:040C340000585858B4
:040C3500005F5F5F9E
:040C3600005F5F5F9D
:040C37000061616196
:040C3800006363638F
:040C39000066666685
:040C3A00006868687E
:040C3B00006A6A6A77
:040C3C00006C6C6C70
:040C3D00007777774E
:040C3E00007D7D7D3B
:040C3F000088888819
:040C40000088888818
:040C410000919191FC
:040C4200008E8E8E04
:040C43000078787845
:040C4400007C7C7C38
:040C45000068686873
:040C4600007474744E
:040C4700007A7A7A3B
:040C48000076767646
:040C4900007474744B
:040C4A00007979793B
:040C4B00007C7C7C31
:040C4C000079797939
:040C4D00007878783B
:040C4E00007A7A7A34
:040C4F00007F7F7F24
:040C50000075757541
:040C51000082828219
:040C52000079797933
:040C5300006C6C6C59
:040C540000474747C7
:040C550000B5B5B57C
:040C560000EFEFEFCD
:040C570000CECECE2F
:040C5800009D9D9DC1
:040C59000070707047
:040C5A0000525252A0
:040C5B0000424242CF
:040C5C0000393939E9
:040C5D0000343434F7
:040C5E00003E3E3ED8
:040C5F0000383838E9
:040C60000030303000
:040C6100007C7C7C1B
:040C620000E3E3E3E5
:040C630000FFFFFF90
:040C640000FCFCFC98
:040C650000FBFBFB9A
:040C660000F3F3F3B1
:040C670000F2F2F2B3
:040C680000F2F2F2B2
:040C690000F1F1F1B4
:040C6A0000F0F0F0B6
:040C6B0000EFEFEFB8
:040C6C0000EFEFEFB7
:040C6D0000EEEEEEB9
:040C6E0000F1F1F1AF
:040C6F0000EBEBEBC0
:040C700000E2E2E2DA
:040C710000DADADAF1
:040C720000D7D7D7F9
:040C730000D9D9D9F2
:040C740000DDDDDDE5
:040C750000E0E0E0DB
:040C760000D2D2D204
:040C770000CFCFCF0C
:040C780000CACACA1A
:040C790000C4C4C42B
:040C7A0000BEBEBE3C
:040C7B0000B7B7B750
:040C7C0000B3B3B35B
:040C7D0000B0B0B063
:040C7E0000A3A3A389
:040C7F0000B2B2B25B
