:0400000000A3906F5A
:0400010000A3906F59
:0400020000A3907057
:0400030000A3907056
:0400040000A3907055
:0400050000A3907054
:0400060000A3907053
:0400070000A3907052
:0400080000A28F7152
:0400090000A390724E
:04000A0000A390724D
:04000B0000A4917349
:04000C0000A4917348
:04000D0000A4917347
:04000E0000A4917346
:04000F0000A4917345
:0400100000A3907049
:0400110000A3907048
:0400120000A28F6F4A
:0400130000A28F6F49
:0400140000A28F6F48
:0400150000A18E6E4A
:0400160000A18E6E49
:0400170000A18E6E48
:0400180000A28F6F44
:0400190000A28F6F43
:04001A0000A28F6F42
:04001B0000A28F6F41
:04001C0000A28F6F40
:04001D0000A28F6F3F
:04001E0000A28F6F3E
:04001F0000A28F6F3D
:04002000009E8D6F42
:04002100009E8D6F41
:0400220000A08D6F3E
:0400230000A18E703A
:0400240000A18D7238
:0400250000A18D7237
:0400260000A38D7531
:0400270000A38D7530
:0400280000AD977F11
:0400290000AC967E13
:04002A0000AA967B17
:04002B0000A894791C
:04002C0000A794761F
:04002D0000A5927424
:04002E0000A2917328
:04002F0000A190722A
:0400300000927D625B
:0400310000AC977A0E
:0400320000A7947619
:0400330000AE9B7B05
:040034000093836151
:04003500009F8F6D2C
:0400360000A393711F
:0400370000A494721B
:0400380000A7927318
:0400390000A7927317
:04003A0000A7927316
:04003B0000A7937215
:04003C0000A6937215
:04003D0000A4956E18
:04003E0000A4956E17
:04003F0000A4956E16
:0400400000A5927114
:0400410000A6917212
:0400420000A5927211
:0400430000A5927210
:0400440000A592720F
:0400450000A592720E
:0400460000A592720D
:0400470000A592720C
:0400480000A7947306
:0400490000A491700E
:04004A0000A18D6C18
:04004B00009E8A6920
:04004C00009E8A691F
:04004D0000A08C6B18
:04004E0000A4906D0D
:04004F0000A6927104
:0400500000A79378FA
:0400510000A4907502
:0400520000A18E6D0E
:0400530000A4926E05
:0400540000A89876F2
:0400550000AA9A78EB
:0400560000A89877EF
:0400570000A49473FA
:04005800009B8A6C13
:04005900009B8A6C12
:04005A00009D896E0E
:04005B00009D8A6C0E
:04005C00009D8A6A0F
:04005D00009D8A690F
:04005E00009E8B6B0A
:04005F00009E8B6B09
:04006000009C8C6A0A
:04006100009C8C6A09
:04006200009E8B6B06
:04006300009F8C6C02
:04006400009F8C6EFF
:04006500009F8C6EFE
:04006600009F8C6CFF
:04006700009F8C6CFE
:0400680000A08C6BFD
:0400690000A08C6BFC
:04006A0000A08C69FD
:04006B0000A08C69FC
:04006C00009F8C6CF9
:04006D00009F8C6CF8
:04006E00009F8C6EF5
:04006F00009F8C6EF4
:04007000009B8B6AFC
:04007100009D8D6CF5
:04007200009F8F6EEE
:0400730000A29271E4
:0400740000A39372E0
:0400750000A39372DF
:0400760000A39372DE
:0400770000A29271E0
:0400780000A28F6FE4
:0400790000A28F6FE3
:04007A0000A18E6EE5
:04007B0000A18E6EE4
:04007C0000A18E6EE3
:04007D0000A08D6DE5
:04007E0000A08D6DE4
:04007F0000A08D6DE3
:0400800000A38E71DA
:0400810000A38E71D9
:0400820000A38E71D8
:0400830000A38E71D7
:0400840000A48F72D3
:0400850000A48F72D2
:0400860000A48F70D3
:0400870000A48F70D2
:0400880000A69172CB
:0400890000A69172CA
:04008A0000A59271CA
:04008B0000A49170CC
:04008C0000A49170CB
:04008D0000A49170CA
:04008E0000A49170C9
:04008F0000A49171C7
:0400900000A19074C7
:0400910000A19076C4
:0400920000A19074C5
:0400930000A19074C4
:0400940000A19072C5
:0400950000A19072C4
:0400960000A19072C3
:0400970000A19072C2
:0400980000A29271BF
:0400990000A29271BE
:04009A0000A49171BC
:04009B0000A49171BB
:04009C0000A49173B8
:04009D0000A49173B7
:04009E0000A49173B6
:04009F0000A49173B5
:0400A00000A29271B7
:0400A10000A29271B6
:0400A20000A29271B5
:0400A30000A29271B4
:0400A40000A19170B6
:0400A50000A19170B5
:0400A60000A19170B4
:0400A70000A19170B3
:0400A80000A29271AF
:0400A90000A29271AE
:0400AA0000A29271AD
:0400AB0000A29271AC
:0400AC0000A29271AB
:0400AD0000A29271AA
:0400AE0000A29271A9
:0400AF0000A29271A8
:0400B00000A39072A7
:0400B10000A39072A6
:0400B20000A39072A5
:0400B30000A39072A4
:0400B40000A39070A5
:0400B50000A39070A4
:0400B60000A39070A3
:0400B70000A39070A2
:0400B80000A28F6FA4
:0400B90000A28F6FA3
:0400BA0000A28F6FA2
:0400BB0000A28F6FA1
:0400BC0000A28F6FA0
:0400BD0000A28F6F9F
:0400BE0000A28F6F9E
:0400BF0000A28F6F9D
:0400C00000A0906F9D
:0400C10000A1917099
:0400C20000A1917098
:0400C30000A1917097
:0400C40000A1917096
:0400C50000A1917095
:0400C60000A1917094
:0400C70000A1917093
:0400C80000A0906F95
:0400C90000A0906F94
:0400CA0000A0906F93
:0400CB0000A0906F92
:0400CC0000A08F7190
:0400CD0000A08F718F
:0400CE0000A08F718E
:0400CF0000A0906F8E
:0400D00000A18E6E8F
:0400D10000A18E6D8F
:0400D20000A18F6B8F
:0400D30000A18F6B8E
:0400D40000A18F698F
:0400D50000A18F698E
:0400D60000A18F6B8B
:0400D70000A18F6B8A
:0400D80000A18E6E87
:0400D90000A18E6E86
:0400DA0000A18D7282
:0400DB0000A18D7281
:0400DC0000A18E7081
:0400DD0000A18E7080
:0400DE0000A18E6E81
:0400DF0000A18E6E80
:0400E00000A28F6F7C
:0400E10000A3906F79
:0400E20000A3906F78
:0400E30000A3907076
:0400E40000A3907075
:0400E50000A3907074
:0400E60000A3907073
:0400E70000A3907072
:0400E80000A3907071
:0400E90000A390726E
:0400EA0000A491736A
:0400EB0000A4917369
:0400EC0000A4917368
:0400ED0000A4917367
:0400EE0000A4917366
:0400EF0000A3907268
:0400F00000A3907267
:0400F10000A3907068
:0400F20000A3907067
:0400F30000A3907066
:0400F40000A3907065
:0400F50000A28F6F67
:0400F60000A28F6F66
:0400F70000A18E6E68
:0400F80000A18E6E67
:0400F90000A28F6F63
:0400FA0000A28F6F62
:0400FB0000A28F6F61
:0400FC0000A28F6F60
:0400FD0000A28F6F5F
:0400FE0000A28F6F5E
:0400FF0000A28F6F5D
:0401000000A28F6F5B
:04010100009E8E6D61
:04010200009E8E6D60
:0401030000A08D6D5E
:0401040000A18E6E5A
:0401050000A18E7057
:0401060000A28F7153
:0401070000A38E7350
:0401080000A38E734F
:0401090000A28D7251
:04010A0000A18C7153
:04010B00009F8C6E57
:04010C00009E8B6D59
:04010D00009D8A6A5D
:04010E00009C89695F
:04010F000099896862
:040110000098886764
:0401110000A28D704B
:0401120000A5907341
:04011300009582626F
:04011400009F8F6E4B
:04011500009A8A685A
:0401160000A999772C
:0401170000A393713D
:04011800009E8E6C4B
:0401190000A08D6D48
:04011A0000A18C6D47
:04011B0000A18C6D46
:04011C0000A18C6D45
:04011D0000A08D6C45
:04011E00009E8E6A47
:04011F00009E8F6847
:04012000009E8E6A45
:0401210000A18E6D3E
:0401220000A18E6E3C
:0401230000A18E6E3B
:0401240000A18E6E3A
:0401250000A18E6E39
:0401260000A18E6E38
:0401270000A18E6E37
:0401280000A18E6E36
:0401290000A7947423
:04012A0000A6937226
:04012B0000A5927128
:04012C0000A5927127
:04012D0000A7937222
:04012E0000A895741C
:04012F0000AC987711
:0401300000AD9A7A0A
:04013100009581664E
:040132000099856A41
:04013300009E8B6A35
:04013400009F8D6932
:04013500009C8C6A34
:04013600009888663F
:040137000096866543
:040138000095856445
:0401390000A3927419
:04013A0000A3927418
:04013B0000A5917614
:04013C0000A4917317
:04013D0000A5927215
:04013E0000A5927115
:04013F0000A5927213
:0401400000A693730F
:0401410000A4947210
:0401420000A494720F
:0401430000A693730C
:0401440000A693730B
:0401450000A7947605
:0401460000A7947604
:0401470000A7947405
:0401480000A7947404
:0401490000A8947303
:04014A0000A8947302
:04014B0000A8947103
:04014C0000A8947300
:04014D0000A79474FF
:04014E0000A79474FE
:04014F0000A79476FB
:0401500000A79476FA
:04015100009D8D6C14
:0401520000A0906F0A
:0401530000A49473FD
:0401540000A79776F3
:0401550000A79776F2
:0401560000A49473FA
:0401570000A0906F05
:04015800009D8D6C0D
:0401590000A28F6F02
:04015A0000A28F6F01
:04015B0000A28F6F00
:04015C0000A18E6E02
:04015D0000A18E6E01
:04015E0000A08D6D03
:04015F0000A08D6D02
:0401600000A08D6D01
:0401610000A28F6FFA
:0401620000A28F71F7
:0401630000A28F71F6
:0401640000A28F71F5
:0401650000A28F71F4
:0401660000A39072F0
:0401670000A39070F1
:0401680000A39070F0
:0401690000A49171EC
:04016A0000A49171EB
:04016B0000A29270EC
:04016C0000A29270EB
:04016D0000A29270EA
:04016E0000A29270E9
:04016F0000A29271E7
:0401700000A19170E9
:0401710000A19072E7
:0401720000A19074E4
:0401730000A19072E5
:0401740000A19072E4
:0401750000A19170E4
:0401760000A19170E3
:0401770000A19170E2
:0401780000A19170E1
:0401790000A29271DD
:04017A0000A29270DD
:04017B0000A49171DA
:04017C0000A49171D9
:04017D0000A49171D8
:04017E0000A49171D7
:04017F0000A49171D6
:0401800000A49171D5
:0401810000A29271D5
:0401820000A29271D4
:0401830000A29173D2
:0401840000A29271D2
:0401850000A19072D3
:0401860000A19170D3
:0401870000A19072D1
:0401880000A19170D1
:0401890000A29173CC
:04018A0000A29271CC
:04018B0000A29173CA
:04018C0000A29271CA
:04018D0000A29173C8
:04018E0000A29271C8
:04018F0000A29173C6
:0401900000A29173C5
:0401910000A39072C5
:0401920000A39072C4
:0401930000A39072C3
:0401940000A39072C2
:0401950000A39070C3
:0401960000A39070C2
:0401970000A39070C1
:0401980000A39070C0
:0401990000A28F6FC2
:04019A0000A28F6FC1
:04019B0000A28F6FC0
:04019C0000A28F6FBF
:04019D0000A28F6FBE
:04019E0000A28F6FBD
:04019F0000A28F6FBC
:0401A00000A28F6FBB
:0401A10000A19170B8
:0401A20000A19170B7
:0401A30000A19170B6
:0401A40000A29271B2
:0401A50000A29271B1
:0401A60000A19170B3
:0401A70000A19170B2
:0401A80000A19170B1
:0401A90000A0906FB3
:0401AA0000A0906FB2
:0401AB0000A0906FB1
:0401AC0000A0906FB0
:0401AD0000A08F71AE
:0401AE0000A08F71AD
:0401AF0000A08F71AC
:0401B00000A0906FAC
:0401B10000A18E6EAD
:0401B20000A18E6DAD
:0401B30000A18E6DAC
:0401B40000A18F6BAC
:0401B50000A18F6BAB
:0401B60000A18F6BAA
:0401B70000A18F6BA9
:0401B80000A18E6DA7
:0401B90000A18E6EA5
:0401BA0000A18E70A2
:0401BB0000A18E70A1
:0401BC0000A18E70A0
:0401BD0000A18E709F
:0401BE0000A18E6EA0
:0401BF0000A18E6E9F
:0401C00000A18E6E9E
:0401C10000A28F6F9A
:0401C20000A3907096
:0401C30000A3907095
:0401C40000A3907094
:0401C50000A3907093
:0401C60000A3907092
:0401C70000A3907091
:0401C80000A3907090
:0401C90000A491718C
:0401CA0000A491718B
:0401CB0000A491718A
:0401CC0000A4917189
:0401CD0000A4917188
:0401CE0000A4917187
:0401CF0000A3907089
:0401D00000A3907088
:0401D10000A3907087
:0401D20000A4917183
:0401D30000A4917182
:0401D40000A3907084
:0401D50000A3907083
:0401D60000A28F6F85
:0401D70000A28F6F84
:0401D80000A28F6F83
:0401D90000A18E6E85
:0401DA0000A28F6F81
:0401DB0000A28F6F80
:0401DC0000A28F6F7F
:0401DD0000A28F6F7E
:0401DE0000A28F6F7D
:0401DF0000A28F6F7C
:0401E00000A28F6F7B
:0401E10000A28F6E7B
:0401E20000A08D6C80
:0401E30000A18F6B7D
:0401E40000A18F6B7C
:0401E50000A18F6B7B
:0401E60000A38F6E75
:0401E70000A38F6E74
:0401E80000A38F6E73
:0401E90000A4906F6F
:0401EA0000A6927168
:0401EB0000A6927167
:0401EC0000A491706A
:0401ED0000A4917069
:0401EE0000A1916D6E
:0401EF0000A0906C70
:0401F000009F8F6B72
:0401F100009F8F6D6F
:0401F200009782638D
:0401F300009E896A77
:0401F400009C896979
:0401F50000A8987650
:0401F60000A5957358
:0401F70000A5977454
:0401F800009B8B6A73
:0401F90000A1917060
:0401FA00009F8C6E68
:0401FB00009F8C6E67
:0401FC0000A08B6E66
:0401FD0000A08B6E65
:0401FE00009F8C6E64
:0401FF00009D8D6C66
:04020000009D8D6B65
:04020100009C8E6B64
:04020200009E8E6D5F
:04020300009E8D6F5D
:04020400009E8D6F5C
:04020500009E8D6F5B
:04020600009E8D6F5A
:04020700009E8D6F59
:04020800009E8D6F58
:04020900009E8D6F57
:04020A00009A896B62
:04020B00009C8C6B5C
:04020C00009E8E6D55
:04020D0000A0906F4E
:04020E0000A4917146
:04020F0000A3937243
:0402100000A5927241
:0402110000A5927240
:0402120000A28E7345
:04021300009C896B57
:040214000098856564
:04021500009D8A6955
:0402160000A6937239
:0402170000AB987729
:0402180000A797752F
:0402190000A292713C
:04021A00009E8B6D4A
:04021B00009E8B6D49
:04021C00009E8B6D48
:04021D00009E8B6D47
:04021E00009E8B6B48
:04021F00009E8B6A48
:04022000009F8C6B44
:04022100009F8C6B43
:04022200009D8A6948
:04022300009E8B6A44
:04022400009E8B6B42
:04022500009E8B6B41
:04022600009E8B6B40
:04022700009E8B6B3F
:04022800009E8B6B3E
:04022900009E8B6B3D
:04022A00009E8B6A3D
:04022B00009E8B6A3C
:04022C00009E8B6A3B
:04022D00009E8B6A3A
:04022E00009E8B6B38
:04022F00009E8B6B37
:04023000009E8B6B36
:04023100009E8B6B35
:0402320000A2927123
:0402330000A1917025
:04023400009F8F6E2A
:04023500009D8D6C2F
:04023600009D8D6C2E
:04023700009E8E6D2A
:04023800009F8F6E26
:0402390000A191701F
:04023A0000A390701D
:04023B0000A28F6F1F
:04023C0000A28F6F1E
:04023D0000A28F6F1D
:04023E0000A18E6E1F
:04023F0000A18E6E1E
:0402400000A18E6E1D
:04024100009E8E6D20
:0402420000A0906F19
:04024300009F906F19
:04024400009F906F18
:04024500009F906F17
:04024600009F906F16
:04024700009F906F15
:04024800009F906F14
:04024900009F906F13
:04024A0000A091700F
:04024B0000A091700E
:04024C0000A091700D
:04024D0000A091700C
:04024E0000A091700B
:04024F0000A091700A
:0402500000A0917207
:0402510000A0917008
:0402520000A1917006
:0402530000A1916F06
:0402540000A1916F05
:0402550000A1916F04
:0402560000A1916F03
:0402570000A1916F02
:0402580000A1916F01
:0402590000A1916F00
:04025A0000A49170FB
:04025B0000A4926EFB
:04025C0000A49170F9
:04025D0000A49170F8
:04025E0000A49170F7
:04025F0000A49170F6
:0402600000A49170F5
:0402610000A49170F4
:0402620000A49173F0
:0402630000A49173EF
:0402640000A49075ED
:0402650000A49173ED
:0402660000A49075EB
:0402670000A49173EB
:0402680000A38F74EC
:0402690000A39072EC
:04026A0000A38F74EA
:04026B0000A39072EA
:04026C0000A38F74E8
:04026D0000A39072E8
:04026E0000A38F74E6
:04026F0000A39072E6
:0402700000A38F74E4
:0402710000A39072E4
:0402720000A39072E3
:0402730000A39072E2
:0402740000A39070E3
:0402750000A39070E2
:0402760000A39070E1
:0402770000A39070E0
:0402780000A39070DF
:0402790000A39070DE
:04027A0000A28F6FE0
:04027B0000A28F6FDF
:04027C0000A28F6FDE
:04027D0000A28F6FDD
:04027E0000A28F6FDC
:04027F0000A28F6FDB
:0402800000A28F6FDA
:0402810000A28F6FD9
:0402820000A19170D6
:0402830000A29271D2
:0402840000A29271D1
:0402850000A29271D0
:0402860000A49171CE
:0402870000A49171CD
:0402880000A39070CF
:0402890000A39070CE
:04028A0000A28F6FD0
:04028B0000A28F6FCF
:04028C0000A0906FCF
:04028D0000A0906FCE
:04028E0000A0906FCD
:04028F0000A0906FCC
:0402900000A0906FCB
:0402910000A0906FCA
:0402920000A18E70C9
:0402930000A18E70C8
:0402940000A18E6EC9
:0402950000A18E6DC9
:0402960000A18E6DC8
:0402970000A18E6DC7
:0402980000A18E6DC6
:0402990000A18E6EC4
:04029A0000A18E6EC3
:04029B0000A18E70C0
:04029C0000A18E70BF
:04029D0000A18E70BE
:04029E0000A18E70BD
:04029F0000A18E6EBE
:0402A00000A18E6DBE
:0402A10000A18E6DBD
:0402A20000A28F6FB8
:0402A30000A39070B4
:0402A40000A39070B3
:0402A50000A39070B2
:0402A60000A39070B1
:0402A70000A39070B0
:0402A80000A49171AC
:0402A90000A49171AB
:0402AA0000A49171AA
:0402AB0000A49171A9
:0402AC0000A49171A8
:0402AD0000A49171A7
:0402AE0000A49171A6
:0402AF0000A49171A5
:0402B00000A49171A4
:0402B10000A39070A6
:0402B20000A39070A5
:0402B30000A49171A1
:0402B40000A49171A0
:0402B50000A39070A2
:0402B60000A39070A1
:0402B70000A28F6FA3
:0402B80000A28F6FA2
:0402B90000A18E6EA4
:0402BA0000A18E6EA3
:0402BB0000A28F6F9F
:0402BC0000A28F6F9E
:0402BD0000A28F6F9D
:0402BE0000A28F6F9C
:0402BF0000A28F6F9B
:0402C00000A28F6F9A
:0402C10000A28F6F99
:0402C20000A28F6F98
:0402C30000A18E6D9B
:0402C40000A18F6B9B
:0402C50000A18F6B9A
:0402C60000A2906C96
:0402C70000A38F6E93
:0402C80000A4906F8F
:0402C90000A4906F8E
:0402CA0000A4906F8D
:0402CB0000A08C6B98
:0402CC0000A08C6B97
:0402CD00009F8C6B97
:0402CE00009F8C6B96
:0402CF00009D8D6998
:0402D000009D8D6997
:0402D100009D8D6996
:0402D200009D8D6B93
:0402D30000B09D7C5E
:0402D40000AD9A7966
:0402D50000A6967475
:0402D600009F8F6D89
:0402D700009B8D6A91
:0402D80000988A6799
:0402D90000928261AC
:0402DA0000A797766C
:0402DB0000A794766E
:0402DC0000A794766D
:0402DD0000A893786A
:0402DE0000A793786A
:0402DF0000A7937869
:0402E00000A594766B
:0402E10000A495766A
:0402E20000A4957669
:0402E30000A392746E
:0402E40000A392746D
:0402E50000A392746C
:0402E60000A392746B
:0402E70000A392746A
:0402E80000A3927469
:0402E90000A3927468
:0402EA0000A3927467
:0402EB00009C8B6D7B
:0402EC00009E8D6F74
:0402ED0000A190726A
:0402EE0000A2927167
:0402EF0000A3927462
:0402F00000A1917068
:0402F100009F8E706C
:0402F200009E8D6F6E
:0402F30000AA97794D
:0402F40000A491735E
:0402F50000A08D6D6B
:0402F60000A18E6D68
:0402F70000A6937258
:0402F80000A7947354
:0402F900009E8E6C69
:0402FA00009888667A
:0402FB0000A7947450
:0402FC0000A794764D
:0402FD0000A794764C
:0402FE0000A794764B
:0402FF0000A794744C
:0403000000A794734B
:0403010000A794734A
:0403020000A7947349
:0403030000A9967542
:0403040000A9967541
:0403050000A996763F
:0403060000A996763E
:0403070000A996763D
:0403080000A996763C
:0403090000AA977738
:04030A0000AA977737
:04030B0000A996753A
:04030C0000A9967539
:04030D0000A9967538
:04030E0000A9967537
:04030F0000A9967635
:0403100000A9967634
:0403110000A9967633
:0403120000A9967632
:04031300009B8B6A56
:04031400009B8B6A55
:04031500009B8B6A54
:04031600009C8C6B50
:04031700009F8F6E46
:0403180000A3937239
:0403190000A797762C
:04031A0000AA9A7922
:04031B0000A390703B
:04031C0000A390703A
:04031D0000A3907039
:04031E0000A28F6F3B
:04031F0000A28F6F3A
:0403200000A18E6E3C
:0403210000A18E6E3B
:0403220000A18E6E3A
:0403230000A0906E38
:04032400009F916E37
:04032500009F916E36
:04032600009F916E35
:04032700009F916E34
:04032800009F916E33
:04032900009F906F32
:04032A00009F906F31
:04032B0000A191702C
:04032C0000A091702C
:04032D0000A0906F2D
:04032E00009F906F2D
:04032F0000A08F712A
:0403300000A08F7129
:0403310000A08F7128
:0403320000A0906F28
:0403330000A0906E28
:0403340000A0906C29
:0403350000A0906C28
:0403360000A0906C27
:0403370000A0906C26
:0403380000A0906C25
:0403390000A0906C24
:04033A0000A0906C23
:04033B0000A4917019
:04033C0000A4926E19
:04033D0000A4917017
:04033E0000A4926E17
:04033F0000A4926E16
:0403400000A4926E15
:0403410000A4926E14
:0403420000A4917012
:0403430000A491730E
:0403440000A491730D
:0403450000A590730C
:0403460000A491730B
:0403470000A590730A
:0403480000A4917309
:0403490000A5907308
:04034A0000A4917307
:04034B0000A5907306
:04034C0000A4917305
:04034D0000A5907304
:04034E0000A4917303
:04034F0000A5907302
:0403500000A4917301
:0403510000A5907300
:0403520000A49173FF
:0403530000A3907201
:0403540000A3907200
:0403550000A3907001
:0403560000A3907000
:0403570000A39070FF
:0403580000A39070FE
:0403590000A39070FD
:04035A0000A39070FC
:04035B0000A28F6FFE
:04035C0000A28F6FFD
:04035D0000A28F6FFC
:04035E0000A28F6FFB
:04035F0000A28F6FFA
:0403600000A28F6FF9
:0403610000A28F6FF8
:0403620000A28F6FF7
:0403630000A29271F1
:0403640000A29271F0
:0403650000A29271EF
:0403660000A29271EE
:0403670000A49171EC
:0403680000A49171EB
:0403690000A39070ED
:04036A0000A39070EC
:04036B0000A28F6FEE
:04036C0000A28F6FED
:04036D0000A0906FED
:04036E0000A0906FEC
:04036F0000A0906FEB
:0403700000A0906FEA
:0403710000A0906FE9
:0403720000A0906FE8
:0403730000A18D72E6
:0403740000A18D72E5
:0403750000A18E70E5
:0403760000A18E6EE6
:0403770000A18E6EE5
:0403780000A18E6DE5
:0403790000A18E6EE3
:04037A0000A18E6EE2
:04037B0000A28F71DC
:04037C0000A28F71DB
:04037D0000A28F71DA
:04037E0000A28F71D9
:04037F0000A28F6FDA
:0403800000A28F6EDA
:0403810000A2906CDA
:0403820000A2906CD9
:0403830000A28F6FD6
:0403840000A39072D0
:0403850000A39072CF
:0403860000A39072CE
:0403870000A39072CD
:0403880000A49171CB
:0403890000A49171CA
:04038A0000A49171C9
:04038B0000A49171C8
:04038C0000A39070CA
:04038D0000A39070C9
:04038E0000A49171C5
:04038F0000A49171C4
:0403900000A49171C3
:0403910000A49171C2
:0403920000A49171C1
:0403930000A49171C0
:0403940000A49171BF
:0403950000A39070C1
:0403960000A39070C0
:0403970000A28F6FC2
:0403980000A28F6FC1
:0403990000A18E6EC3
:04039A0000A18E6EC2
:04039B0000A18E6EC1
:04039C0000A28F6FBD
:04039D0000A28F6FBC
:04039E0000A28F71B9
:04039F0000A28F71B8
:0403A00000A28F71B7
:0403A10000A28F71B6
:0403A20000A28F71B5
:0403A30000A28F71B4
:0403A40000A18E70B6
:0403A50000A28F71B2
:0403A60000A28F71B1
:0403A70000A28F71B0
:0403A80000A48F72AC
:0403A90000A48F72AB
:0403AA0000A48F74A8
:0403AB0000A59075A4
:0403AC00009F8B70B3
:0403AD00009F8B70B2
:0403AE0000A08D6FAF
:0403AF0000A08D6FAE
:0403B000009F8E70AC
:0403B10000A08F71A8
:0403B20000A19072A4
:0403B30000A19170A4
:0403B400009A8766BE
:0403B50000998665C0
:0403B600009E8E6CAB
:0403B700009B8B69B3
:0403B80000B3A48367
:0403B90000B4A78560
:0403BA00009D8E6FA5
:0403BB0000A695778C
:0403BC0000A4907594
:0403BD0000A4907593
:0403BE0000A4907790
:0403BF0000A490778F
:0403C00000A490778E
:0403C10000A2917590
:0403C20000A192758F
:0403C30000A192758E
:0403C400009B8C6DA1
:0403C500009B8C6DA0
:0403C600009B8C6D9F
:0403C700009B8C6D9E
:0403C800009B8C6D9D
:0403C900009B8C6D9C
:0403CA00009B8C6D9B
:0403CB00009B8C6D9A
:0403CC0000A091728A
:0403CD0000A0917289
:0403CE0000A0917288
:0403CF00009F90718A
:0403D000009D8E718D
:0403D100009B8C6D94
:0403D20000998A6D97
:0403D3000099886A9B
:0403D40000988567A1
:0403D500009E8B6B90
:0403D60000A6937377
:0403D70000AA97766B
:0403D80000A996756D
:0403D90000A6947076
:0403DA0000A491707A
:0403DB0000A3906F7C
:0403DC0000A4917177
:0403DD0000A4917176
:0403DE0000A4917373
:0403DF0000A4917372
:0403E00000A2917373
:0403E10000A2927173
:0403E20000A2927073
:0403E30000A2926E74
:0403E40000A592716D
:0403E50000A592716C
:0403E60000A592716B
:0403E70000A592716A
:0403E80000A5927169
:0403E90000A5927168
:0403EA0000A5927167
:0403EB0000A5927166
:0403EC0000A5927165
:0403ED0000A5927164
:0403EE0000A5927163
:0403EF0000A5927162
:0403F00000A5927161
:0403F10000A5927160
:0403F20000A592715F
:0403F30000A592715E
:0403F40000A6967554
:0403F50000A5957456
:0403F60000A4947358
:0403F70000A292715D
:0403F800009F8F6E65
:0403F900009C8C6B6D
:0403FA00009C896971
:0403FB00009A876776
:0403FC0000A4917157
:0403FD0000A4917156
:0403FE0000A3907058
:0403FF0000A3907057
:0404000000A28F6F58
:0404010000A28F6F57
:0404020000A18E6E59
:0404030000A18E6D59
:0404040000A38F6C56
:0404050000A38F6C55
:0404060000A38F6C54
:0404070000A38F6C53
:0404080000A38F6C52
:0404090000A38F6C51
:04040A0000A38F6E4E
:04040B0000A38F6E4D
:04040C0000A58E6E4B
:04040D0000A38F6E4B
:04040E0000A58E6E49
:04040F0000A38F6E49
:0404100000A58E6F46
:0404110000A48D6E48
:0404120000A48D6E47
:0404130000A48D6D47
:0404140000A18F6B49
:0404150000A18F694A
:0404160000A18F6B47
:0404170000A18F6B46
:0404180000A18E6D44
:0404190000A18E6D43
:04041A0000A18E6D42
:04041B0000A18E6D41
:04041C0000A4917136
:04041D0000A4917036
:04041E0000A4917134
:04041F0000A4917034
:0404200000A2927034
:0404210000A2927033
:0404220000A2927032
:0404230000A4917030
:0404240000A590712E
:0404250000A590712D
:0404260000A790712A
:0404270000A590712B
:0404280000A7907128
:0404290000A5907129
:04042A0000A7907126
:04042B0000A5907127
:04042C0000A7907124
:04042D0000A5907125
:04042E0000A7907122
:04042F0000A5907123
:0404300000A7907120
:0404310000A5907121
:0404320000A790711E
:0404330000A590711F
:0404340000A3907021
:0404350000A3907020
:0404360000A390701F
:0404370000A390701E
:0404380000A390701D
:0404390000A390701C
:04043A0000A390701B
:04043B0000A390701A
:04043C0000A28F6F1C
:04043D0000A28F6F1B
:04043E0000A28F6F1A
:04043F0000A28F6F19
:0404400000A28F6F18
:0404410000A28F6F17
:0404420000A28F6F16
:0404430000A28F6F15
:0404440000A491710E
:0404450000A491710D
:0404460000A491710C
:0404470000A491710B
:0404480000A491710A
:0404490000A4917109
:04044A0000A390700B
:04044B0000A390700A
:04044C0000A28F6F0C
:04044D0000A28F6F0B
:04044E0000A28F6F0A
:04044F0000A28F6F09
:0404500000A28F6F08
:0404510000A28F6F07
:0404520000A28F6E07
:0404530000A28F6F05
:0404540000A28D7203
:0404550000A28D7202
:0404560000A28D7003
:0404570000A28D6E04
:0404580000A18E6E03
:0404590000A18E6E02
:04045A0000A18E6E01
:04045B0000A18E6E00
:04045C0000A28F71FA
:04045D0000A28F71F9
:04045E0000A28F71F8
:04045F0000A28F71F7
:0404600000A28F6FF8
:0404610000A28F6EF8
:0404620000A0906CFA
:0404630000A0906CF9
:0404640000A28F6FF4
:0404650000A39072EE
:0404660000A39072ED
:0404670000A39072EC
:0404680000A39072EB
:0404690000A49171E9
:04046A0000A49171E8
:04046B0000A49171E7
:04046C0000A49171E6
:04046D0000A28F6FEB
:04046E0000A39070E7
:04046F0000A39070E6
:0404700000A39070E5
:0404710000A49171E1
:0404720000A49171E0
:0404730000A49171DF
:0404740000A49171DE
:0404750000A49171DD
:0404760000A39070DF
:0404770000A39070DE
:0404780000A28F6FE0
:0404790000A28F6FDF
:04047A0000A18E6EE1
:04047B0000A18E6EE0
:04047C0000A08D6DE2
:04047D0000A28F6FDB
:04047E0000A28F6FDA
:04047F0000A28F71D7
:0404800000A28F71D6
:0404810000A28F71D5
:0404820000A28F71D4
:0404830000A28F71D3
:0404840000A28F71D2
:0404850000A28F71D1
:0404860000A28F71D0
:0404870000A28F71CF
:0404880000A39072CB
:0404890000A48F72CA
:04048A0000A59073C6
:04048B0000A59075C3
:04048C0000A59075C2
:04048D00009B876CDD
:04048E00009B876CDC
:04048F00009C896BD9
:04049000009E8B6DD2
:04049100009D8C6ED0
:04049200009F8E70C9
:0404930000A08F71C5
:0404940000A19170C2
:0404950000917E5DF7
:0404960000A08D6CC9
:0404970000AF9F7D96
:04049800008F805FF2
:0404990000A19472B8
:04049A0000A49777AC
:04049B0000918263E7
:04049C0000A09174B7
:04049D0000A8977BA1
:04049E0000AA967B9F
:04049F0000AA967B9E
:0404A00000AA967B9D
:0404A10000A8977D9B
:0404A20000A8977D9A
:0404A30000A8977D99
:0404A40000A7987B9A
:0404A50000A29374AA
:0404A60000A29374A9
:0404A70000A29374A8
:0404A80000A29374A7
:0404A90000A29374A6
:0404AA0000A29374A5
:0404AB0000A29374A4
:0404AC0000A29374A3
:0404AD0000A99A7B8D
:0404AE0000A6977895
:0404AF0000A293769E
:0404B000009F9073A6
:0404B100009E8F72A8
:0404B20000A09174A1
:0404B30000A4957894
:0404B40000A697788F
:0404B50000AE9E7D7A
:0404B60000A491719C
:0404B70000998666BC
:0404B800009B8868B5
:0404B90000A6937294
:0404BA0000AE9C787C
:0404BB0000AD9A797D
:0404BC0000A895748B
:0404BD0000A693738F
:0404BE0000A794748B
:0404BF0000A7947688
:0404C00000A7947687
:0404C10000A5947688
:0404C20000A494738B
:0404C30000A494728B
:0404C40000A494708C
:0404C50000A6947089
:0404C60000A6937287
:0404C70000A6937286
:0404C80000A6937285
:0404C90000A6937284
:0404CA0000A7947380
:0404CB0000A794737F
:0404CC0000A794737E
:0404CD0000A6937280
:0404CE0000A693727F
:0404CF0000A693727E
:0404D00000A693727D
:0404D10000A693727C
:0404D20000A693727B
:0404D30000A693727A
:0404D40000A6937279
:0404D50000A797766F
:0404D60000A0906F83
:0404D700009888679A
:0404D80000938362A8
:0404D900009686659E
:0404DA00009F8F6E82
:0404DB0000AD9A7A5C
:0404DC0000B6A38340
:0404DD0000A5927272
:0404DE0000A4917174
:0404DF0000A4917173
:0404E00000A3907075
:0404E10000A3907074
:0404E20000A28F6F76
:0404E30000A28F6F75
:0404E40000A18E6E77
:0404E50000A38F6E73
:0404E60000A38F6C74
:0404E70000A38F6E71
:0404E80000A38F6E70
:0404E90000A38F6E6F
:0404EA0000A38F6E6E
:0404EB0000A58E6E6C
:0404EC0000A58E6E6B
:0404ED0000A48D6E6C
:0404EE0000A48D6E6B
:0404EF0000A48D6E6A
:0404F00000A48D6E69
:0404F10000A48D6E68
:0404F20000A48D6E67
:0404F30000A58B7065
:0404F40000A48D6E65
:0404F50000A28E6B68
:0404F60000A18F6B67
:0404F70000A18F6B66
:0404F80000A18E6D64
:0404F90000A18E6D63
:0404FA0000A18E6E61
:0404FB0000A18E6E60
:0404FC0000A18E705D
:0404FD0000A4917353
:0404FE0000A4917352
:0404FF0000A4917351
:0405000000A4917151
:0405010000A2927151
:0405020000A2927150
:0405030000A292714F
:0405040000A292704F
:0405050000A3906F50
:0405060000A4906F4E
:0405070000A4906F4D
:0405080000A4906F4C
:0405090000A4906F4B
:04050A0000A4906F4A
:04050B0000A5917046
:04050C0000A5917045
:04050D0000A5917044
:04050E0000A5917043
:04050F0000A5917042
:0405100000A5917041
:0405110000A5917040
:0405120000A591703F
:0405130000A591703E
:0405140000A591703D
:0405150000A390703F
:0405160000A390703E
:0405170000A390703D
:0405180000A390703C
:0405190000A390703B
:04051A0000A390703A
:04051B0000A3907039
:04051C0000A3907038
:04051D0000A28F6F3A
:04051E0000A28F6F39
:04051F0000A28F6F38
:0405200000A28F6F37
:0405210000A28F6F36
:0405220000A28F6F35
:0405230000A28F6F34
:0405240000A28F6F33
:0405250000A390702F
:0405260000A491712B
:0405270000A491712A
:0405280000A4917129
:0405290000A4917128
:04052A0000A4917127
:04052B0000A3907029
:04052C0000A3907028
:04052D0000A28F6F2A
:04052E0000A28F6F29
:04052F0000A28F6F28
:0405300000A28F6F27
:0405310000A28F6F26
:0405320000A28F6F25
:0405330000A28F6E25
:0405340000A28F6F23
:0405350000A28D7023
:0405360000A28D7220
:0405370000A28D7021
:0405380000A28D6E22
:0405390000A18E6E21
:04053A0000A18E6D21
:04053B0000A18E6D20
:04053C0000A18E6E1E
:04053D0000A3907017
:04053E0000A3907214
:04053F0000A3907213
:0405400000A3907212
:0405410000A3907013
:0405420000A3906F13
:0405430000A1916F13
:0405440000A1916F12
:0405450000A28F6F12
:0405460000A390720C
:0405470000A390720B
:0405480000A390720A
:0405490000A4917306
:04054A0000A4917107
:04054B0000A4917106
:04054C0000A4917105
:04054D0000A4917104
:04054E0000A28F6F09
:04054F0000A3907005
:0405500000A1917005
:0405510000A1917004
:0405520000A1917003
:0405530000A1917002
:0405540000A1917001
:0405550000A1917000
:0405560000A49171FB
:0405570000A49171FA
:0405580000A39070FC
:0405590000A39070FB
:04055A0000A28F6FFD
:04055B0000A18E6EFF
:04055C0000A18E6EFE
:04055D0000A08D6D00
:04055E0000A28F6FF9
:04055F0000A28F6FF8
:0405600000A28F71F5
:0405610000A28F71F4
:0405620000A28F71F3
:0405630000A28F71F2
:0405640000A28E73F0
:0405650000A28F71F0
:0405660000A38E6FF1
:0405670000A48F70ED
:0405680000A48F70EC
:0405690000A48F70EB
:04056A0000A49171E7
:04056B0000A49171E6
:04056C0000A49171E5
:04056D0000A49171E4
:04056E00009B8868FE
:04056F00009C8969FA
:04057000009E8B6BF3
:0405710000A08D6DEC
:0405720000A0906FE6
:0405730000A29271DF
:0405740000A39372DB
:0405750000A49472D8
:0405760000E0CDAC28
:0405770000E7D4B312
:0405780000D1C1A04D
:040579000067583986
:04057A0000534528BD
:04057B000057492CB0
:04057C00005A4C2FA6
:04057D00008273562F
:04057E00009E8D71DD
:04057F00009E8D71DC
:0405800000A08C71DA
:0405810000A08D6FDA
:0405820000A08C71D8
:04058300009E8D71D8
:04058400009E8D71D7
:04058500009E8D71D6
:0405860000A08F71D1
:0405870000A0906FD1
:0405880000A0906FD0
:0405890000A0906FCF
:04058A0000A0906FCE
:04058B0000A0906FCD
:04058C0000A0906FCC
:04058D0000A0906FCB
:04058E0000A39372C1
:04058F00009E8E6DCF
:0405900000978869DF
:0405910000958667E4
:040592000098896CD8
:0405930000A29376B9
:0405940000AC9E8198
:0405950000B5A68780
:0405960000948462E7
:04059700008D7A5900
:040598000084715317
:0405990000826F511C
:04059A000084715018
:04059B000085734F15
:04059C0000806E4A23
:04059D00007B694531
:04059E00007D6A4929
:04059F00007D6A4928
:0405A000007D6A4A26
:0405A100007D6A4C23
:0405A200007B6A4E22
:0405A300007B6A4C23
:0405A400007A6A4629
:0405A500007A6B4429
:0405A60000806E4A19
:0405A70000806E4A18
:0405A80000806E4A17
:0405A90000806E4A16
:0405AA0000806E4A15
:0405AB0000806E4A14
:0405AC00007E6E4A15
:0405AD00007F6F4D0F
:0405AE00007E6E4C11
:0405AF00007E6E4D0F
:0405B000007E6E4D0E
:0405B100007E6E4D0D
:0405B20000806D4C0C
:0405B30000806D4C0B
:0405B40000806E4A0B
:0405B50000806E4A0A
:0405B60000857251F9
:0405B70000826F4E01
:0405B800007F6C4B09
:0405B900007F6C4B08
:0405BA0000857251F5
:0405BB0000917E5DD0
:0405BC00009E8B6BA7
:0405BD0000A693738E
:0405BE0000A5927290
:0405BF0000A592728F
:0405C00000A4917191
:0405C10000A4917190
:0405C20000A3907092
:0405C30000A28F6F94
:0405C40000A28F6F93
:0405C50000A28F6F92
:0405C60000A190728E
:0405C70000A190728D
:0405C80000A190748A
:0405C90000A08F738C
:0405CA0000A28E738A
:0405CB0000A28E7389
:0405CC0000A28E7388
:0405CD0000A28E7387
:0405CE0000A28D7288
:0405CF0000A28D7287
:0405D00000A28D7088
:0405D10000A28D7087
:0405D20000A28D7086
:0405D30000A28D7085
:0405D40000A28D7282
:0405D50000A28D7083
:0405D60000A18E6D85
:0405D70000A18F6B85
:0405D80000A18E6D83
:0405D90000A18E6E81
:0405DA0000A18E6E80
:0405DB0000A18E707D
:0405DC0000A18D727B
:0405DD0000A18D727A
:0405DE0000A38F7671
:0405DF0000A38F7670
:0405E00000A38F7471
:0405E10000A38F7470
:0405E20000A1907470
:0405E30000A1907271
:0405E40000A1907270
:0405E50000A1917070
:0405E60000A0917070
:0405E70000A091706F
:0405E80000A091706E
:0405E90000A091706D
:0405EA0000A091706C
:0405EB0000A091706B
:0405EC0000A091706A
:0405ED0000A0917069
:0405EE0000A1927165
:0405EF0000A1927164
:0405F00000A1927163
:0405F10000A1927162
:0405F20000A1927161
:0405F30000A1927160
:0405F40000A192715F
:0405F50000A292715D
:0405F60000A3906F5F
:0405F70000A3906F5E
:0405F80000A3906F5D
:0405F90000A3906F5C
:0405FA0000A390705A
:0405FB0000A3907059
:0405FC0000A3907058
:0405FD0000A3907057
:0405FE0000A28F7157
:0405FF0000A28F7156
:0406000000A28F6F56
:0406010000A28F6F55
:0406020000A28F6F54
:0406030000A28F6F53
:0406040000A28F6F52
:0406050000A28F6F51
:0406060000A390704D
:0406070000A390704C
:0406080000A390704B
:0406090000A4917147
:04060A0000A4917146
:04060B0000A3907048
:04060C0000A1917048
:04060D0000A1917047
:04060E0000A3907045
:04060F0000A3907044
:0406100000A3907043
:0406110000A3907042
:0406120000A4906F41
:0406130000A4906F40
:0406140000A4906F3F
:0406150000A4906F3E
:0406160000A28D6E43
:0406170000A28D6E42
:0406180000A28E6D41
:0406190000A28E6B42
:04061A0000A28E6B41
:04061B0000A28E6B40
:04061C0000A18F6B3F
:04061D0000A18E6D3D
:04061E0000A3907035
:04061F0000A3907034
:0406200000A3907231
:0406210000A3907230
:0406220000A3907031
:0406230000A3906F31
:0406240000A1916F31
:0406250000A1916F30
:0406260000A28F6F30
:0406270000A390722A
:0406280000A3907229
:0406290000A4917325
:04062A0000A4917324
:04062B0000A4917125
:04062C0000A4917124
:04062D0000A4917123
:04062E0000A4917122
:04062F0000A3907024
:0406300000A3907023
:0406310000A1917023
:0406320000A1917022
:0406330000A1917021
:0406340000A0906F23
:0406350000A0906F22
:0406360000A0906F21
:0406370000A4917119
:0406380000A4917118
:0406390000A4917117
:04063A0000A3907019
:04063B0000A28F6F1B
:04063C0000A18E6E1D
:04063D0000A18E6E1C
:04063E0000A18E6E1B
:04063F0000A28F6F17
:0406400000A28F6F16
:0406410000A28F7113
:0406420000A28F7112
:0406430000A28F7111
:0406440000A28F7110
:0406450000A28E730E
:0406460000A28F710E
:0406470000A48F700C
:0406480000A4906F0B
:0406490000A4906F0A
:04064A0000A4906F09
:04064B0000A4917006
:04064C0000A4917005
:04064D0000A5927101
:04064E0000A5927100
:04064F0000C5B2919F
:0406500000C6B3929B
:0406510000C8B59494
:0406520000CAB7968D
:0406530000CABA9887
:0406540000CDBD9B7D
:0406550000CFBF9D76
:0406560000CFBF9D75
:0406570000EFDCBC18
:0406580000F2E2C109
:0406590000D7C8A955
:04065A00005E4F32BD
:04065B00004A3C21F4
:04065C00004B3D23EF
:04065D00003A2C1221
:04065E00004E4025E5
:04065F0000635236AC
:0406600000635234AD
:0406610000655234AA
:0406620000655232AB
:0406630000655232AA
:0406640000655232A9
:0406650000635234A8
:0406660000635234A7
:04066700006A5A3992
:04066800006C593891
:04066900006C593890
:04066A00006C59388F
:04066B00006C59388E
:04066C00006C59388D
:04066D00006C59388C
:04066E00006C59388B
:04066F000078654466
:040670000071614074
:04067100006A5A3988
:040672000068593A89
:04067300006F604173
:04067400007F705340
:040675000091826509
:04067600009C8D6EE9
:040677000090805E11
:0406780000C1AE8D82
:0406790000F5E2C4E2
:04067A0000FFF2D4B7
:04067B0000F3E0BFE9
:04067C0000E3D1AD19
:04067D0000EAD8B403
:04067E0000FAE8C4D2
:04067F0000FCE9C8CA
:0406800000FCE9C8C9
:0406810000FDEACAC4
:0406820000FDEACCC1
:0406830000FBEAD0BE
:0406840000FAE9CBC4
:0406850000FAEAC6C7
:0406860000F9EAC1CC
:0406870000FCEAC4C5
:0406880000FCEAC4C4
:0406890000FCEAC4C3
:04068A0000FCEAC4C2
:04068B0000FCEAC4C1
:04068C0000FCEAC4C0
:04068D0000FAEAC6BF
:04068E0000FAEAC6BE
:04068F0000FAEAC8BB
:0406900000FAEAC9B9
:0406910000FAEAC9B8
:0406920000FAEAC9B7
:0406930000FCE9C8B6
:0406940000FCE9C8B5
:0406950000FCEAC6B5
:0406960000FCEAC6B4
:0406970000FBE8C7B5
:0406980000FEEBCAAB
:0406990000FFECCBA7
:04069A0000F7E4C3BE
:04069B0000E1CEADFF
:04069C0000C2AF8E5B
:04069D0000A39070B6
:04069E00008F7C5CF1
:04069F0000A59272AE
:0406A00000A59272AD
:0406A10000A59272AC
:0406A20000A49171AE
:0406A30000A39070B0
:0406A40000A39070AF
:0406A50000A28F6FB1
:0406A60000A08F71B0
:0406A70000A19074AA
:0406A80000A09174A9
:0406A90000A09174A8
:0406AA0000A09174A7
:0406AB0000A08F73A9
:0406AC0000A08F73A8
:0406AD0000A08F73A7
:0406AE0000A08F71A8
:0406AF0000A18E70A8
:0406B00000A18E70A7
:0406B10000A18E70A6
:0406B20000A18E6EA7
:0406B30000A18E6EA6
:0406B40000A18E6EA5
:0406B50000A18E6EA4
:0406B60000A08D6CA7
:0406B70000A18F6BA4
:0406B80000A18F6BA3
:0406B90000A18E6DA1
:0406BA0000A18E6E9F
:0406BB0000A18E6E9E
:0406BC0000A18E709B
:0406BD0000A18D7299
:0406BE0000A18D7298
:0406BF0000A38F768F
:0406C00000A38F768E
:0406C10000A38F748F
:0406C20000A38F748E
:0406C30000A190748E
:0406C40000A190728F
:0406C50000A190728E
:0406C60000A191708E
:0406C700009F90718F
:0406C800009F906F90
:0406C900009F90718D
:0406CA0000A091708B
:0406CB0000A0917288
:0406CC0000A0917089
:0406CD0000A0917286
:0406CE0000A0917087
:0406CF0000A0917284
:0406D00000A0917085
:0406D10000A0917282
:0406D20000A0917083
:0406D30000A0917280
:0406D40000A0917081
:0406D50000A091727E
:0406D60000A091707F
:0406D70000A3906F7D
:0406D80000A3906F7C
:0406D90000A3906F7B
:0406DA0000A3906F7A
:0406DB0000A3907078
:0406DC0000A3907077
:0406DD0000A3907076
:0406DE0000A3907075
:0406DF0000A28F7175
:0406E00000A28F7174
:0406E10000A28F6F75
:0406E20000A28F6F74
:0406E30000A28F6F73
:0406E40000A28F6F72
:0406E50000A28F6F71
:0406E60000A28F6F70
:0406E70000A28F6F6F
:0406E80000A390706B
:0406E90000A390706A
:0406EA0000A3907069
:0406EB0000A3907068
:0406EC0000A3907067
:0406ED0000A1917067
:0406EE0000A1917066
:0406EF0000A3907064
:0406F00000A3907063
:0406F10000A3907062
:0406F20000A3907061
:0406F30000A4906F60
:0406F40000A4906F5F
:0406F50000A4906F5E
:0406F60000A4906F5D
:0406F70000A38F6E5F
:0406F80000A38F6C60
:0406F90000A38F6A61
:0406FA0000A38F6A60
:0406FB0000A3906860
:0406FC0000A390685F
:0406FD0000A2906A5D
:0406FE0000A2906C5A
:0406FF0000A3906F55
:0407000000A3907052
:0407010000A390724F
:0407020000A390724E
:0407030000A390704F
:0407040000A390704E
:0407050000A191704E
:0407060000A1916F4E
:0407070000A28F6F4E
:0407080000A28F714B
:0407090000A794763B
:04070A0000A18E704C
:04070B000098856766
:04070C0000AA977731
:04070D0000A693733C
:04070E000094816072
:04070F0000907D5C7D
:0407100000A6967435
:04071100009F8F6D49
:040712000099896859
:04071300009E8E6D49
:0407140000AC9C7B1E
:0407150000AE9E7D17
:0407160000A3927436
:040717000099886A53
:04071800009D8A6C4A
:0407190000A693752E
:04071A0000A8957727
:04071B0000AB987A1D
:04071C0000A5927230
:04071D0000A28F6F38
:04071E0000A7947428
:04071F000099866651
:0407200000A491712F
:0407210000A491712E
:0407220000A3907030
:0407230000A28F6F32
:0407240000A28F712F
:0407250000A18E7031
:0407260000A08D6F33
:0407270000A08D6F32
:0407280000A895751B
:0407290000A5927223
:04072A0000A895741A
:04072B0000B7A483EC
:04072C0000C8B594B8
:04072D0000CDBA99A8
:04072E0000C2AF8EC8
:04072F0000B5A281EE
:0407300000A4917020
:0407310000A3906F22
:0407320000A28F6E24
:0407330000A08D6C29
:04073400009F8C6B2B
:04073500009D8A6930
:04073600009C896931
:04073700009C896930
:040738000097866838
:0407390000AE9D81F0
:04073A0000C2B298AF
:04073B000086765D61
:04073C00008B7C654D
:04073D00004A3E260A
:04073E0000493A2311
:04073F00008F81673F
:0407400000AB9A7EF2
:0407410000AD9C7EED
:0407420000B3A07FE1
:0407430000B8A584D1
:0407440000BDAB87C2
:0407450000C3B18DAF
:0407460000C6B392A4
:0407470000C9B6959A
:0407480000CCBA9691
:0407490000CFBB988A
:04074A0000D2BE9982
:04074B0000D5C19C78
:04074C0000D5C19C77
:04074D0000D4C09B79
:04074E0000D1BD9A7F
:04074F0000CFBB9884
:0407500000CAB69392
:0407510000C4B28EA0
:0407520000BCA988B6
:0407530000B5A584C4
:0407540000AC9C7BDE
:04075500009F8E7003
:040756000078674977
:0407570000A79776EA
:040758000088785449
:0407590000FEEECAE6
:04075A0000B09C81CE
:04075B0000AE9A7FD3
:04075C0000A59271F1
:04075D00009B896311
:04075E0000A5916CF5
:04075F0000B4A07DC5
:0407600000B7A483B7
:04076100009D8A6904
:0407620000A18E6EF6
:0407630000B3A082BD
:0407640000AD9C82C6
:04076500009D8C70F7
:0407660000BBAD86A1
:04076700009C8D6203
:0407680000BAA880AB
:0407690000BAA880AA
:04076A0000BBA981A6
:04076B0000BCAA82A2
:04076C0000BBAC839F
:04076D0000BCAD849B
:04076E0000BCAD8698
:04076F0000BCAC8896
:0407700000B8A8869F
:0407710000AB9B7AC4
:0407720000B6A587A1
:0407730000B5A584A4
:0407740000B7A483A3
:0407750000AF9C7BBA
:0407760000C3AF8C81
:0407770000B09C79B9
:0407780000B3A07FAB
:0407790000AC9978BF
:04077A0000C0AD8C82
:04077B0000A69372CF
:04077C0000CDBA9959
:04077D0000F8E5C4D7
:04077E00008C79581A
:04077F0000A59271CE
:0407800000A49171CF
:04078100009C8969E6
:04078200009E8B6BDF
:0407830000A18E6ED5
:0407840000BEAB8B7D
:0407850000AE9B7BAC
:0407860000A59272C6
:04078700009E8E6DD5
:04078800009E8D6FD3
:0407890000AB9C7DA8
:04078A0000978867E5
:04078B0000A69776B7
:04078C0000A89876B3
:04078D0000A59573BB
:04078E00009F8F6DCC
:04078F0000A59571BB
:040790000080704C29
:04079100008C7D5605
:0407920000816F492A
:0407930000715F3959
:040794000077653D48
:04079500007E6C4432
:04079600007C6B4038
:0407970000816F4727
:040798000086744E15
:040799000059472399
:04079A00007866423B
:04079B00007D6A492A
:04079C000069553467
:04079D0000846F5015
:04079E00006A553662
:04079F0000AE997C93
:0407A00000998467D1
:0407A10000A28D70B5
:0407A20000A28F71B1
:0407A300009D8A6CBF
:0407A40000A18E70B2
:0407A50000AD9A7A8F
:0407A60000AC9C7B8C
:0407A70000A39372A6
:0407A80000A39072A8
:0407A90000A39072A7
:0407AA0000A38F74A5
:0407AB0000A39072A5
:0407AC0000A38F74A3
:0407AD0000A39072A3
:0407AE0000A38F74A1
:0407AF0000A39072A1
:0407B00000A5917699
:0407B10000A5927499
:0407B20000A5917697
:0407B30000A5927497
:0407B40000A5917695
:0407B50000A5927495
:0407B60000A5917693
:0407B70000A5927493
:0407B80000A4917098
:0407B90000A5936F95
:0407BA0000A3906F99
:0407BB00009C8968AD
:0407BC00009A8767B1
:0407BD0000A3907095
:0407BE0000AA97777F
:0407BF0000A7947487
:0407C00000A28F7193
:0407C10000A28F7192
:0407C20000A28F6F93
:0407C30000A28F6F92
:0407C40000A28F6F91
:0407C50000A28F6F90
:0407C60000A28F6F8F
:0407C70000A28F6F8E
:0407C800009E8B6D97
:0407C90000A08D6F90
:0407CA0000A693757D
:0407CB0000A693757C
:0407CC0000AC9B7D65
:0407CD00009A896B9A
:0407CE0000A5947678
:0407CF0000958466A7
:0407D000009887699D
:0407D100009B8A6C93
:0407D20000A28F6F83
:0407D30000A8957570
:0407D40000B09C7B5A
:0407D50000B6A28147
:0407D60000BAA6833C
:0407D70000BCA88535
:0407D80000C4AE8724
:0407D90000CDB78E0A
:0407DA0000D6C399E9
:0407DB0000D5C297EC
:0407DC0000DECBA0D0
:0407DD0000D4C196ED
:0407DE0000B29F7551
:0407DF0000B29E794D
:0407E0000099876392
:0407E10000A7947465
:0407E20000AC997B53
:0407E30000A5927467
:0407E400009E8D6F77
:0407E50000A0906F71
:0407E60000A0906F70
:0407E700009B8B6A7E
:0407E80000A390706A
:0407E90000AA977952
:0407EA00009C896B7B
:0407EB0000A3907265
:0407EC0000A8957557
:0407ED0000A8957556
:0407EE0000A8957555
:0407EF0000A693725B
:0407F00000A693725A
:0407F10000A494725A
:0407F20000A1916F62
:0407F300009C8C6B6F
:0407F400009D8D6C6B
:0407F50000A3937258
:0407F60000A3937257
:0407F700009E8D6F64
:0407F800009B8A6C6C
:0407F90000AA977942
:0407FA0000A18E705C
:0407FB000093806285
:0407FC00009C896B69
:0407FD0000A4917152
:0407FE0000A693734B
:0407FF0000AA97773E
:04080000009D8A6A63
:0408010000A18E6E56
:0408020000A08D6D58
:0408030000A08D6D57
:04080400009F8C6C59
:04080500009E8B6D59
:04080600009D8A6C5B
:04080700009C896B5D
:04080800009B886A5F
:04080900009683656D
:04080A0000AD9A7A29
:04080B0000C2AF8FE9
:04080C0000C1AE8EEB
:04080D0000AD9A7A26
:04080E00009E8B6A53
:04080F0000A08D6D4B
:0408100000A9967530
:0408110000A08D6D49
:0408120000A08D6C49
:0408130000A08D6D47
:0408140000A08D6D46
:04081500009F8C6C48
:04081600009F8C6C47
:04081700009F8C6C46
:04081800009E8B6D46
:040819000093826660
:04081A00008F7E6469
:04081B00009181685F
:04081C000041321B4A
:04081D000048392432
:04081E0000463A2432
:04081F00006D5E47C3
:04082000008D7F6563
:0408210000AB9A7E10
:0408220000AD9D7C0C
:0408230000B3A17D00
:0408240000B8A680F2
:0408250000BDAB85E2
:0408260000C3B18BCF
:0408270000C6B48EC5
:0408280000CAB691BB
:0408290000CDB994B1
:04082A0000D1BB94AA
:04082B0000D4BE97A0
:04082C0000D7C19898
:04082D0000D8C29B92
:04082E0000D6C09997
:04082F0000D4BC969F
:0408300000D2BC95A1
:0408310000CCB68FB2
:0408320000C5B18CC0
:0408330000BDA986D5
:0408340000B7A483E2
:0408350000AF9C7BF9
:0408360000A0906F1F
:040837000078674995
:0408380000A8987606
:040839000083744D77
:04083A0000D9C9A573
:04083B00006E5A41B0
:04083C00006C583FB5
:04083D000077644399
:04083E000075633DA1
:04083F0000725E39AC
:04084000006F5B36B4
:040841000076644099
:0408420000685534C1
:0408430000695636BC
:0408440000715E40A1
:0408450000513F27F8
:04084600004E3D2102
:0408470000B4A67FD4
:0408480000B7AA7DCE
:0408490000B2A378DE
:04084A0000B4A378DB
:04084B0000B5A479D7
:04084C0000B3A578D8
:04084D0000B4A679D4
:04084E0000B4A57AD3
:04084F0000B4A57CD0
:0408500000B4A57ECD
:04085100008C7C5A41
:04085200005A4A29D5
:04085300007261438B
:040854000083735258
:040855000084715159
:040856000077654181
:040857000084704B5E
:04085800007F6B466C
:04085900008A765348
:04085A00007B684770
:04085B00007D6A4969
:04085C00005C4928CB
:04085D00007F6C4B61
:04085E0000D5C2A15E
:04085F000089765541
:0408600000AF9C7BCE
:040861000096836317
:0408620000A59272E9
:0408630000A59272E8
:04086400008C795932
:04086500009F8C6CF8
:04086600009F8C6CF7
:04086700009D8A6AFC
:0408680000927F5F1C
:040869000092826116
:04086A00009E8E6CF2
:04086B00009585630C
:04086C000097876307
:04086D00009785610A
:04086E000095835D11
:04086F0000A08E68EF
:0408700000BEAC8496
:0408710000C2B08889
:0408720000F6E5BAED
:0408730000FFF9CEBB
:0408740000F9E8BCE3
:0408750000F5E2B7F1
:0408760000FBEABCDD
:0408770000FFEEC0D0
:0408780000FFF3C7C3
:0408790000FFF1C9C2
:04087A0000FFF0CAC1
:04087B0000FFEDC7C6
:04087C0000E6D4AE10
:04087D0000F6E2BFE0
:04087E0000FFEECBBE
:04087F0000A89471C8
:0408800000A38F6CD6
:0408810000AB9774BD
:0408820000A79370C8
:0408830000A28E6BD6
:04088400009F8D69DB
:0408850000A18F6BD4
:0408860000A18F6BD3
:04088700009A8A66E3
:0408880000968460F2
:04088900009E896ADA
:04088A00009E896AD9
:04088B00009E896CD6
:04088C00009E896AD7
:04088D00009E896CD4
:04088E00009E896AD5
:04088F00009E896CD2
:04089000009E896AD3
:04089100009F8A6DCD
:04089200009F8A6BCE
:04089300009F8A6DCB
:04089400009F8A6BCC
:04089500009F8A6DC9
:04089600009F8A6BCA
:04089700009F8A6DC7
:04089800009F8A6BC8
:04089900009A8864D5
:04089A000093815DE9
:04089B0000958261E1
:04089C0000A18E6DBC
:04089D0000A39070B4
:04089E00009E8B6BC2
:04089F0000A39070B2
:0408A00000AF9C7C8D
:0408A10000A28F71B1
:0408A20000A28F71B0
:0408A30000A28F6FB1
:0408A40000A28F6FB0
:0408A50000A28F6FAF
:0408A60000A28F6FAE
:0408A70000A28F6FAD
:0408A80000A28F6FAC
:0408A90000A28F71A9
:0408AA0000A592749F
:0408AB0000A28F71A7
:0408AC0000928163D2
:0408AD0000907F61D7
:0408AE00007C6B4D12
:0408AF0000918062D2
:0408B000008F7E60D7
:0408B100009D8C6EAC
:0408B200009F8E70A5
:0408B30000A6937395
:0408B40000AC997982
:0408B50000B39F7E6F
:0408B60000B9A5845C
:0408B70000BDA98651
:0408B80000BFAB864C
:0408B90000C2AC834A
:0408BA0000CCB78A2D
:0408BB0000DBC99BFA
:0408BC0000E6D4A6D8
:0408BD0000F6E4B6A7
:0408BE0000E5D3A5D9
:0408BF0000B19E7373
:0408C000009F8C64A5
:0408C10000988662B3
:0408C20000A6937287
:0408C30000AC997973
:0408C40000A5927485
:0408C500009E8D6F95
:0408C60000A190728B
:0408C70000A191708B
:0408C800009C8C6B99
:0408C90000A3907088
:0408CA0000AA977970
:0408CB0000978466A8
:0408CC0000A592727F
:0408CD0000AE9B7B63
:0408CE0000A592727D
:0408CF0000B19E7D59
:0408D00000A8957473
:0408D100009E8B6A90
:0408D20000A0906E84
:0408D30000A5957374
:0408D40000A696756F
:0408D50000A4947374
:0408D60000A4937572
:0408D70000A594766E
:0408D80000A8997C5F
:0408D90000AE9F824C
:0408DA0000A6957966
:0408DB0000A7967A62
:0408DC00009A896B8A
:0408DD0000A08F7177
:0408DE0000A494736B
:0408DF0000A2927170
:0408E00000AD9D7B4F
:0408E10000AD9D7B4E
:0408E20000A898765C
:0408E30000A898765B
:0408E40000A797755D
:0408E50000A696745F
:0408E60000A5957460
:0408E70000A4947362
:0408E80000A3937264
:0408E90000A2917365
:0408EA0000B9A68823
:0408EB0000B7A48628
:0408EC0000B2A18332
:0408ED0000AC9B7D43
:0408EE0000A5947657
:0408EF0000A0906F66
:0408F000009C8B6D70
:0408F100009B8B6A73
:0408F20000A7947651
:0408F30000A895754F
:0408F40000A895774C
:0408F50000A9967848
:0408F60000AB967944
:0408F70000AC977A40
:0408F80000AC977A3F
:0408F90000AC987D3A
:0408FA0000AA997D3A
:0408FB0000A291774F
:0408FC0000AA9A8133
:0408FD000055462F2D
:0408FE000047382354
:0408FF00005A4E3815
:04090000009D8E7751
:0409010000A7997F33
:0409020000AB9A7C30
:0409030000AD9D7B2B
:0409040000B3A17B20
:0409050000B9A67E11
:0409060000BFAC84FE
:0409070000C4B189EE
:0409080000C8B58DE1
:0409090000CAB78FDA
:04090A0000CFB990D1
:04090B0000D3BC93C6
:04090C0000D6BF96BC
:04090D0000D9C298B3
:04090E0000D9C299B1
:04090F0000D8C198B3
:0409100000D6BD95BB
:0409110000D3BC93C0
:0409120000CEB78ECE
:0409130000C8B28BDB
:0409140000C0AA85F0
:0409150000B9A582FE
:0409160000AF9C7B17
:0409170000A28F6E3D
:0409180000796948B1
:0409190000A8987624
:04091A000097885F5B
:04091B0000E7D8B168
:04091C0000816D5495
:04091D000098846B4F
:04091E0000C0AC8BDE
:04091F0000C9B68EC7
:0409200000BEAB83E7
:0409210000B29E7909
:0409220000B19D7A09
:0409230000B39F7C02
:0409240000B3A07FFD
:0409250000BBA88AE1
:040926000077654FA2
:04092700006A5A40C8
:0409280000FFF3C910
:0409290000FFFDCD01
:04092A0000FFFACD03
:04092B0000FFFACD02
:04092C0000FFFBCC01
:04092D0000FFFBCC00
:04092E0000FFFBCA01
:04092F0000FFFDCDFB
:0409300000FFFBCFFA
:0409310000FFFBD1F7
:0409320000D1C39E8F
:040933000070603FB1
:04093400009C8B6D2B
:0409350000C2AF8FBE
:0409360000BFAA8BC9
:0409370000B39F7CEE
:0409380000B6A079EC
:0409390000BDAA82D1
:04093A0000C9B592A9
:04093B0000BDA986CC
:04093C0000B4A07DE6
:04093D000088745169
:04093E00008A765560
:04093F0000EFDBBA30
:04094000009C896826
:0409410000B3A07FE0
:040942000098856430
:0409430000A5927108
:0409440000AD9A7AEE
:0409450000A79474FF
:0409460000C2AF8FAD
:0409470000B4A181D6
:0409480000AD9A7AEA
:0409490000AD9A7AE9
:04094A0000B39F7ED9
:04094B0000B5A17ED4
:04094C0000BAA683C4
:04094D0000B5A17ED2
:04094E0000B7A380CB
:04094F0000AC9873ED
:0409500000A99570F5
:0409510000C7B48C9B
:0409520000AD9A70EA
:0409530000E4D1A645
:0409540000F7E4B90B
:0409550000E4D2A444
:0409560000E6D1A442
:0409570000EFDDAF21
:0409580000ECD7AA2E
:0409590000E0CEA04C
:04095A0000DBCA9F55
:04095B0000F0E1B80F
:04095C0000FAEBC2F0
:04095D0000E0D1A83D
:04095E0000DCCBA04E
:04095F0000D6C59A5F
:0409600000A8956BEB
:04096100009F8C6205
:0409620000AE986FDC
:0409630000A59268F1
:0409640000A28F65F9
:0409650000A49167F2
:0409660000A6956AE8
:0409670000A49368ED
:0409680000A08F64F8
:04096900009F8D65F9
:04096A00009F8B66F9
:04096B0000A18B66F6
:04096C0000A18A68F4
:04096D0000A18B66F4
:04096E0000A18A68F2
:04096F0000A18B66F2
:0409700000A18A68F0
:0409710000A18B66F0
:0409720000A38C6AE8
:0409730000A38D68E8
:0409740000A38C6AE6
:0409750000A38D68E6
:0409760000A38C6AE4
:0409770000A38D68E4
:0409780000A38C6AE2
:0409790000A18D68E4
:04097A0000A5936DD4
:04097B00009D8B65EB
:04097C000095835F00
:04097D0000978463F8
:04097E00009D8A6AE4
:04097F00009D8A6AE3
:0409800000A18E70D4
:0409810000AB987AB5
:0409820000A28F71CF
:0409830000A28F71CE
:0409840000A28F71CD
:0409850000A28F71CC
:0409860000A28F6FCD
:0409870000A28F6FCC
:0409880000A28F6ECC
:0409890000A28F6FCA
:04098A0000A39274C0
:04098B0000A59478B7
:04098C000099886CDA
:04098D00007F6E5227
:04098E000079684C38
:04098F000068593C67
:040990000087785B09
:0409910000928366E7
:040992000097886BD7
:0409930000998A6BD2
:04099400009E8E6DC6
:0409950000A49473B3
:0409960000AC9978A0
:0409970000B19E7D90
:0409980000B6A27F84
:0409990000B8A47F7F
:04099A0000BFAA7F71
:04099B0000C1AC7D6E
:04099C0000CEB98A46
:04099D0000DDC89918
:04099E0000F5E3B3CA
:04099F0000EDDBADDF
:0409A00000BAA77C76
:0409A10000A5926AB1
:0409A2000096845ED9
:0409A30000A49170AB
:0409A40000AB987894
:0409A50000A49173A6
:0409A600009E8D6FB3
:0409A70000A19072A9
:0409A80000A29173A5
:0409A900009D8C6EB3
:0409AA0000A39070A6
:0409AB0000A18E70A9
:0409AC00009F8C6EAE
:0409AD0000A592729D
:0409AE0000A491719F
:0409AF0000A491709F
:0409B00000B29F7E74
:0409B100008E7B5ADF
:0409B200008C7958E4
:0409B3000076664420
:0409B400007A6A4813
:0409B500007B6B4A0E
:0409B600007D6D4C07
:0409B70000817052F9
:0409B80000837254F2
:0409B90000807154F5
:0409BA0000817255F1
:0409BB00006D5C402F
:0409BC0000806F53F5
:0409BD00007A694D06
:0409BE00007D6C4EFE
:0409BF000077674610
:0409C000006858373C
:0409C1000076664412
:0409C2000081714DF2
:0409C300007C6C4800
:0409C400007B6B4702
:0409C500007B6B4701
:0409C600007A6A4801
:0409C7000079694703
:0409C8000078684605
:0409C9000077674606
:0409CA000077674605
:0409CB0000A592727F
:0409CC0000938060B4
:0409CD00007F6F4EEA
:0409CE00007A6A48F9
:0409CF000081714FE3
:0409D00000887856CD
:0409D10000857553D5
:0409D200007E6E4CE9
:0409D3000083704FDE
:0409D4000083704FDD
:0409D50000826F4EDF
:0409D60000806D4CE4
:0409D70000806B4CE5
:0409D800007E694AEA
:0409D900007D6849EC
:0409DA00007C6748EE
:0409DB00007E6B4DE2
:0409DC0000817054D2
:0409DD000094846A94
:0409DE00005A4B343C
:0409DF00005B4C3736
:0409E000005E523C27
:0409E1000096877085
:0409E200009F91766B
:0409E30000AB9A7C4F
:0409E40000AF9D794A
:0409E50000B4A17940
:0409E60000B9A67C32
:0409E70000BFAC821F
:0409E80000C4B1870F
:0409E90000C8B58D00
:0409EA0000CCB68DFA
:0409EB0000D1BA91EC
:0409EC0000D3BC92E6
:0409ED0000D7C096D9
:0409EE0000D9C298D2
:0409EF0000DBC299CE
:0409F00000D9C097D3
:0409F10000D7BE95D8
:0409F20000D5BC93DD
:0409F30000CEB78EED
:0409F40000C9B289FB
:0409F50000C0AA850F
:0409F60000B9A5801F
:0409F70000B19D7C32
:0409F80000A3906F59
:0409F900007A6A49CD
:0409FA0000A9997542
:0409FB00008E7F5497
:0409FC0000E3D4AD93
:0409FD000088745B9F
:0409FE0000A4907849
:0409FF0000C6B291EB
:040A000000C9B68EE5
:040A010000C1AE86FC
:040A020000BDAA8207
:040A030000BDA98405
:040A040000C1AD8AF6
:040A050000BBA88703
:040A060000CAB99BCE
:040A07000077654FC0
:040A0800005C4C3210
:040A090000FFF5CB2A
:040A0A0000F6EAB850
:040A0B0000FDEFC03B
:040A0C0000FDEFC03A
:040A0D0000FDEFBE3B
:040A0E0000FDF1BD39
:040A0F0000FDF1BD38
:040A100000FEF2BE34
:040A110000FEF1C42E
:040A120000FEF1C72A
:040A130000D8CAA598
:040A140000594B2812
:040A1500009A876953
:040A160000C0AD8DE2
:040A170000BDA889ED
:040A180000BEAA87EB
:040A190000B7A17A07
:040A1A0000C0AA83EB
:040A1B0000BBA782F3
:040A1C0000BDA986EA
:040A1D0000BCA885EC
:040A1E0000917D5A6C
:040A1F00007F6B4A9F
:040A200000E9D5B460
:040A2100008B785777
:040A2200008F7C5B6A
:040A230000927F5E60
:040A240000BAA786E7
:040A250000CBB898B2
:040A260000B9A686E7
:040A270000CEBB9BA7
:040A280000C8B595B8
:040A290000CDBA9AA8
:040A2A0000D8C5A586
:040A2B0000CAB596B2
:040A2C0000BFAA8BD2
:040A2D0000C4AF90C2
:040A2E0000C0AB8CCD
:040A2F0000D3BF9E93
:040A300000CBB796AA
:040A310000B7A382E5
:040A320000C3AF8CC2
:040A330000B4A07BF0
:040A340000CFBD979B
:040A350000CFBC949E
:040A360000BEAC84CE
:040A370000C5B38BB8
:040A380000D0BE9696
:040A390000CCBA92A1
:040A3A0000C7B58DAF
:040A3B0000DDCEA567
:040A3C0000BCAD84C9
:040A3D0000E2D3AA56
:040A3E0000FFF8CDF0
:040A3F0000F3E2B727
:040A400000D7C69A7B
:040A410000DBC99B72
:040A420000C4B284B6
:040A430000D8C3967E
:040A440000DFCA9D68
:040A450000DECC9E65
:040A460000D7C59779
:040A470000D2BF9486
:040A480000D2C19582
:040A490000D2C19581
:040A4A0000CFBE9388
:040A4B0000DBCA9F63
:040A4C0000D9CA9F64
:040A4D0000DBC9A160
:040A4E0000D9CA9F62
:040A4F0000DBC9A15E
:040A500000D9CA9F60
:040A510000DBC9A15C
:040A520000D9CA9F5E
:040A530000DFCDA54E
:040A540000DDCEA350
:040A550000DFCDA54C
:040A560000DDCEA34E
:040A570000DFCDA54A
:040A580000DDCEA34C
:040A590000DFCDA548
:040A5A0000DFCDA547
:040A5B0000E5D3AD32
:040A5C0000E1CFA93D
:040A5D0000BBA985AC
:040A5E000094825E20
:040A5F000097846315
:040A600000A69373E6
:040A610000A08D6FF5
:040A620000927F611E
:040A630000A28F71ED
:040A640000A28F71EC
:040A650000A28F71EB
:040A660000A28F71EA
:040A670000A28F6FEB
:040A680000A28F6FEA
:040A690000A28F6EEA
:040A6A0000A28F6FE8
:040A6B0000A49375DB
:040A6C0000A39276DB
:040A6D00008E7D6119
:040A6E000073644766
:040A6F00007A6B4E50
:040A7000006E5F4273
:040A7100008B7B611A
:040A72000098896CF3
:040A7300009D8E71E3
:040A7400009F9073DC
:040A750000A39274D4
:040A760000A89877C5
:040A770000AF9C7BB5
:040A780000B3A07FA8
:040A790000B8A4819C
:040A7A0000BAA68197
:040A7B0000D0BB905C
:040A7C0000D1BC8F5A
:040A7D0000D8C39644
:040A7E0000E0CB9E2B
:040A7F0000F4E2B4E9
:040A800000EFDDAFF7
:040A810000C5B28872
:040A820000B8A57D96
:040A83000094825EFB
:040A840000A28F6ECF
:040A850000A99676B8
:040A860000A39072C7
:040A8700009E8D6FD1
:040A880000A29173C4
:040A890000A39274C0
:040A8A00009F8E70CB
:040A8B0000A39070C4
:040A8C0000A08D6DCC
:040A8D0000AA9777AD
:040A8E0000A18E6EC7
:040A8F00009F8C6CCC
:040A900000A89574B1
:040A9100009F8C6BCB
:040A9200006E5E3C58
:040A930000B3A38188
:040A940000E5D5B3F1
:040A950000D3C3A126
:040A960000BCAC8B69
:040A970000B3A28482
:040A980000BBAC8F64
:040A990000C4B59848
:040A9A0000C3B39949
:040A9B0000BEAE9457
:040A9C0000C5B59B41
:040A9D0000CEBFA226
:040A9E0000C6B79A3D
:040A9F0000E4D5B6E4
:040AA00000FDEECD9A
:040AA10000EFE0BFC3
:040AA20000F2E4C1B9
:040AA30000F9EBC6A5
:040AA40000F8EAC5A7
:040AA50000F8EAC3A8
:040AA60000F8EAC3A7
:040AA70000F7E9C4A7
:040AA80000F7E9C4A6
:040AA90000F6E8C3A8
:040AAA0000F6E8C5A5
:040AAB0000F6E8C3A6
:040AAC0000EEDFB6C3
:040AAD0000EDDEB3C7
:040AAE0000EADBB0CF
:040AAF0000E7D8ADD7
:040AB00000E4D7ABDC
:040AB10000E4D7AADC
:040AB20000E7D9ACD4
:040AB30000E9DBAECD
:040AB40000DCCB9FF8
:040AB50000DAC99DFD
:040AB60000D7C49908
:040AB70000D1BE9319
:040AB80000CDB78E28
:040AB90000C7B18839
:040ABA0000C2AC8347
:040ABB0000C0AA834A
:040ABC0000A5936F8F
:040ABD0000AC9C7B72
:040ABE0000908164BF
:040ABF00004D3F2582
:040AC0000076675005
:040AC10000776B55FA
:040AC2000095866FA6
:040AC30000998B709B
:040AC40000AB9A7C6D
:040AC50000AF9D7968
:040AC60000B4A1795E
:040AC70000BBA67B4F
:040AC80000C1AC813C
:040AC90000C6B0872C
:040ACA0000CAB48D1D
:040ACB0000CCB68D18
:040ACC0000D2BB9207
:040ACD0000D4BD9301
:040ACE0000D8C094F8
:040ACF0000DBC397EE
:040AD00000DBC397ED
:040AD10000DAC296EF
:040AD20000D7BE95F6
:040AD30000D5BC93FB
:040AD40000CFB88F08
:040AD50000CAB38A16
:040AD60000C1AB862A
:040AD70000BAA6813A
:040AD80000B19D7C50
:040AD90000A3906F77
:040ADA00007A6A49EB
:040ADB0000A9997560
:040ADC000098895E97
:040ADD0000E8D9B2A2
:040ADE000086725AC2
:040ADF00009B867181
:040AE00000B4A07F3F
:040AE10000B3A07846
:040AE20000B6A3793E
:040AE30000C1AE861A
:040AE40000BDA98424
:040AE50000BDA98423
:040AE60000AF9D7947
:040AE70000C0AF910B
:040AE8000069574307
:040AE9000053432A49
:040AEA0000FFFFD238
:040AEB0000FCF2BD5C
:040AEC0000FFF3BF55
:040AED0000FFF4C052
:040AEE0000FFF5BF51
:040AEF0000FFF6C04E
:040AF00000FFF6C04D
:040AF10000FFF8C149
:040AF20000FFF8C742
:040AF30000FFF7CA3F
:040AF40000D5C7A2C0
:040AF5000054462340
:040AF600009D8A6C69
:040AF70000BAA78713
:040AF80000B6A18221
:040AF90000C9B290EE
:040AFA0000BEA68014
:040AFB0000BAA47D1C
:040AFC0000B7A37E1E
:040AFD0000BEAA8706
:040AFE0000BDA98608
:040AFF00008D795697
:040B0000007B6744CB
:040B010000EEDAB771
:040B0200009A86656A
:040B030000A18D6C54
:040B04000089765599
:040B050000DDCAA99C
:040B060000D5C2A2B2
:040B070000695636F5
:040B080000523F1F39
:040B0900005C49291A
:040B0A0000665333FB
:040B0B00005B482A19
:040B0C000058472B1B
:040B0D00005A4A3010
:040B0E000056462C1B
:040B0F000055452B1D
:040B10000067573EE5
:040B1100006F5F46CC
:040B12000064543BEC
:040B1300006B5B41D7
:040B140000615137F4
:040B1500006B5D42D2
:040B16000068583EDD
:040B170000625439EB
:040B18000067593EDB
:040B19000065573CE0
:040B1A0000695B40D3
:040B1B00007C6E519B
:040B1C00006F6240C4
:040B1D00006E603BCB
:040B1E0000C4B490CB
:040B1F0000FFF7D00C
:040B200000F7E6BB39
:040B210000D9C89C93
:040B220000FFF2C41A
:040B230000FFF0C11E
:040B240000E3CE9F7D
:040B250000FCE7B831
:040B260000FFF3C415
:040B270000F9E7B733
:040B280000F2E0B245
:040B290000FDEABF22
:040B2A0000FFF2C70F
:040B2B0000FFF0C512
:040B2C0000FFF8CA04
:040B2D0000FDF9C905
:040B2E0000FFF8CA02
:040B2F0000FDF9C903
:040B300000FFF8CA00
:040B310000FDF9C901
:040B320000FFF8CAFE
:040B330000FDF9C9FF
:040B340000FFFDCFF2
:040B350000FFFECEF1
:040B360000FFFDCFF0
:040B370000FFFECEEF
:040B380000FFFDCFEE
:040B390000FFFECEED
:040B3A0000FFFDCFEC
:040B3B0000FFFDCFEB
:040B3C0000FFFFD6E1
:040B3D0000FFF6D0EF
:040B3E0000D1BF9B88
:040B3F00009C8A6626
:040B400000A3906F0F
:040B410000B7A484D1
:040B420000AD9A7CEC
:040B4300009E8B6D18
:040B440000A28F710B
:040B450000A28F710A
:040B460000A28F7109
:040B470000A28F7108
:040B480000A28F6F09
:040B490000A28F6F08
:040B4A0000A28F6E08
:040B4B0000A28F6F06
:040B4C0000A59478F4
:040B4D00009F8E7403
:040B4E00007F6F5560
:040B4F00006B5B419B
:040B50000082725855
:040B51000076684D75
:040B52000085775D46
:040B530000897B603A
:040B5400009D8F74FD
:040B550000A09174F7
:040B560000A39274F2
:040B570000A79776E6
:040B580000AD9A79D9
:040B590000B19E7DCC
:040B5A0000B5A17EC3
:040B5B0000B7A37EBE
:040B5C0000D3BD966F
:040B5D0000DCC69D55
:040B5E0000E8D3A830
:040B5F0000E9D4A92C
:040B600000F2DDB210
:040B610000E5CFA636
:040B620000BBA880AC
:040B630000B5A17CBC
:040B640000917F5B22
:040B650000A08D6CF3
:040B660000A79474DC
:040B670000A28F71E8
:040B6800009E8D6FEF
:040B690000A29173E2
:040B6A0000A49473DC
:040B6B0000A0906FE7
:040B6C0000A39070E2
:040B6D0000A89575D2
:040B6E0000AD9A7AC2
:040B6F00009E8B6BEE
:040B700000A79473D3
:040B710000AB9877C6
:040B7200008B785725
:040B73000063533197
:040B740000F4E4C2E3
:040B750000FFF5D3B5
:040B760000E6D6B40B
:040B770000B4A3859E
:040B7800008A795B1B
:040B79000076674A51
:040B7A00007162455F
:040B7B00006D5D4369
:040B7C00006B5B416E
:040B7D000075654B4F
:040B7E00007060465D
:040B7F00006B5C3F6C
:040B800000BCAD8E7A
:040B810000FFFDDE96
:040B820000FFFFDC95
:040B830000FFFAD79E
:040B840000FFFBD69D
:040B850000FFFCD59C
:040B860000FFFCD59B
:040B870000FFFBD49C
:040B880000FFFBD49B
:040B890000FFFBD698
:040B8A0000FFFBD697
:040B8B0000FFFBD696
:040B8C0000FFFBD497
:040B8D0000FFFACD9E
:040B8E0000FFFACB9F
:040B8F0000FFFACB9E
:040B900000FFFACB9D
:040B910000FFFACA9D
:040B920000FFFAC89E
:040B930000FFF9C89E
:040B940000FFFAC99B
:040B950000FFF9C89C
:040B960000FFF7C69F
:040B970000FFF1C1A9
:040B980000FCEABAB9
:040B990000F7E2B5CA
:040B9A0000F0DBAEDE
:040B9B0000EBD4A8EF
:040B9C0000E7D2A7F5
:040B9D0000DDCAA20B
:040B9E0000EDDDB9D0
:040B9F00009E8E6DB9
:040BA000002D1F0203
:040BA100005E4F386B
:040BA200006A5E4641
:040BA30000908268D4
:040BA400009E8F72AE
:040BA50000AB9B7A8C
:040BA60000AF9D7986
:040BA70000B4A1777E
:040BA80000BBA67B6D
:040BA90000C1AC815A
:040BAA0000C6B0874A
:040BAB0000CAB48D3B
:040BAC0000CCB68F34
:040BAD0000D2BB9225
:040BAE0000D5BE941C
:040BAF0000D9C19513
:040BB00000DCC49809
:040BB10000DCC49808
:040BB20000DAC2960D
:040BB30000D8BF9611
:040BB40000D5BE9416
:040BB50000D0B99023
:040BB60000CAB48D30
:040BB70000C2AC8745
:040BB80000BBA78453
:040BB90000B19E7D6C
:040BBA0000A2927192
:040BBB00007B6B4A06
:040BBC0000AA9A7879
:040BBD00008C7D52D9
:040BBE0000D8C9A2F0
:040BBF000079654D07
:040BC000009A8570A2
:040BC10000BEAA893F
:040BC20000BEAB8343
:040BC30000BDAA8047
:040BC40000C6B3892B
:040BC50000BDA98442
:040BC60000C1AD8835
:040BC70000B9A78347
:040BC80000C4B3951D
:040BC9000068564228
:040BCA000050402770
:040BCB0000FFFCCF5C
:040BCC0000FFFBC467
:040BCD0000FAEFB982
:040BCE0000FAEFB981
:040BCF0000FBF0B87F
:040BD00000FBF1B67F
:040BD10000FBF2B97A
:040BD20000FCF3BC74
:040BD30000FDF3C06E
:040BD40000FDF2C46A
:040BD50000D5C7A0E0
:040BD6000062543134
:040BD70000A693736E
:040BD80000BEA98A28
:040BD90000BBA48534
:040BDA0000CFB896FA
:040BDB0000C7AF8917
:040BDC0000BEA68031
:040BDD0000C2AC871F
:040BDE0000C8B49106
:040BDF0000C7B39008
:040BE000008C7855B8
:040BE10000826E4BD5
:040BE20000E8D4B1A2
:040BE3000096826195
:040BE40000A5917067
:040BE500008D7A59AC
:040BE60000DCC9A8BE
:040BE70000D4C1A1D4
:040BE800007E6B4BD5
:040BE90000887555B6
:040BEA00009F8C6C70
:040BEB0000A28F6F66
:040BEC0000907F6195
:040BED00006A593D04
:040BEE0000A3937954
:040BEF0000A090765C
:040BF00000A090765B
:040BF100008979609E
:040BF200008979609D
:040BF3000086765DA5
:040BF4000087795F9E
:040BF5000090816A81
:040BF600008A7B6492
:040BF7000081725BAC
:040BF800008579619A
:040BF900008F836D79
:040BFA00007F735DA8
:040BFB0000726650CE
:040BFC00007D7159AE
:040BFD0000807257AB
:040BFE00006F6242E0
:040BFF00006D5E3DEA
:040C0000007A6A48C4
:040C010000BAA8820B
:040C020000D6C59AB9
:040C030000E4CFA496
:040C040000C4AF82F7
:040C050000D8C394BC
:040C060000EDD8A97C
:040C070000FBE6B94F
:040C080000F8E3B657
:040C090000F7E4B953
:040C0A0000FFF0C631
:040C0B0000FFFBD318
:040C0C0000FFFDD414
:040C0D0000FFFDD215
:040C0E0000FFFFD212
:040C0F0000FFFED410
:040C100000FFFFD210
:040C110000FFFED40E
:040C120000FFFFD20E
:040C130000FFFED40C
:040C140000FFFFD20C
:040C150000FFFCD20E
:040C160000FFFDD00E
:040C170000FFFCD20C
:040C180000FFFDD00C
:040C190000FFFCD20A
:040C1A0000FFFDD00A
:040C1B0000FFFCD208
:040C1C0000FFFCD207
:040C1D0000FFF2CB17
:040C1E0000F9E7C131
:040C1F0000C6B490C7
:040C2000009C8A6644
:040C210000A08D6C36
:040C220000A28F6E2F
:040C2300009B886A40
:040C240000A5927421
:040C250000A28F7129
:040C260000A28F7128
:040C270000A28F7127
:040C280000A28F7126
:040C290000A28F6F27
:040C2A0000A28F6F26
:040C2B0000A28F6E26
:040C2C0000A28F6F24
:040C2D0000A695790F
:040C2E00009E8D7324
:040C2F000078684E93
:040C300000635339D1
:040C31000081735972
:040C32000074664C98
:040C330000786A508B
:040C340000796B5187
:040C35000080725772
:040C3600008173586E
:040C37000084755868
:040C38000088775960
:040C3900008E7B5B53
:040C3A0000917E5D4A
:040C3B000095815E41
:040C3C000096825F3D
:040C3D0000A58F6A15
:040C3E0000AD9772FC
:040C3F0000B9A37CD9
:040C400000B9A37CD8
:040C410000C5AF88B3
:040C420000C0AA83C1
:040C430000A4906B0E
:040C440000A99572FC
:040C4500008F7C5B45
:040C4600009D8A6A19
:040C470000A69375FB
:040C480000A18E7009
:040C4900009D8C6E10
:040C4A0000A39372FE
:040C4B0000A59574F7
:040C4C0000A29271FF
:040C4D0000A3907000
:040C4E0000A79474F3
:040C4F0000A89575EF
:040C500000A08D6C07
:040C510000AD9A79DF
:040C520000A89574ED
:040C53000093815D2C
:040C540000655531B1
:040C550000ECDCB81B
:040C560000FFFEDCC1
:040C570000FCECCAE7
:040C580000D0C1A265
:040C5900009D8E6FFD
:040C5A000075664972
:040C5B00005C4C32BB
:040C5C0000504027DD
:040C5D00004E3E25E2
:040C5E000057472DC7
:040C5F0000524228D5
:040C6000004B3C1FEA
:040C610000A49576E0
:040C620000FFF6D7C2
:040C630000FFFDDAB7
:040C640000FFFAD7BC
:040C650000FFFDD8B7
:040C660000FFFCD5BA
:040C670000FFFCD5B9
:040C680000FFFDD3B9
:040C690000FFFDD3B8
:040C6A0000FFFBD4B8
:040C6B0000FFFBD4B7
:040C6C0000FFFBD4B6
:040C6D0000FFFCD2B6
:040C6E0000FFFFD4B0
:040C6F0000FFFED1B3
:040C700000FFFCCFB6
:040C710000FFFBCBBA
:040C720000FFFBCBB9
:040C730000FFFBCBB8
:040C740000FFFBCAB8
:040C750000FFFBCAB7
:040C760000FFF7C6BE
:040C770000FFF5C4C1
:040C780000FFF0C2C7
:040C790000FDEBBDD2
:040C7A0000F9E4B9E0
:040C7B0000F4DDB3F1
:040C7C0000F0D7AEFF
:040C7D0000ECD5AB07
:040C7E0000D5C29843
:040C7F0000E7D8AF03
