:04000000008377679B
:04000100008377679A
:040002000083776997
:040003000083776996
:040004000083776995
:040005000083776994
:040006000084766B91
:040007000084766B90
:040008000084766B8F
:040009000084766B8E
:04000A000086756D8A
:04000B000086756D89
:04000C000086756E87
:04000D000086756E86
:04000E000086756E85
:04000F000084756E86
:040010000083766D86
:040011000081776D86
:040012000081776D85
:040013000080766C87
:040014000080766C86
:040015000080766C85
:04001600007F756B87
:04001700007F756B86
:040018000080766C82
:040019000080766C81
:04001A000080766C80
:04001B000080766C7F
:04001C000080766C7E
:04001D000080766C7D
:04001E000080766C7C
:04001F000080766C7B
:040020000081736880
:04002100008173687F
:04002200008173687E
:04002300008274697A
:040024000082746979
:040025000082746978
:040026000083756A74
:040027000083756A73
:04002800008A7C715D
:04002900008A7C715C
:04002A0000897B705E
:04002B0000887A6F60
:04002C000087796E62
:04002D000085776C67
:04002E000084766B69
:04002F000084766D66
:04003000007966608D
:04003100008C797551
:040032000089767259
:0400330000907D7943
:04003400007A676384
:040035000085726E62
:040036000088757158
:040037000088757157
:040038000089767253
:040039000089767252
:04003A000089767251
:04003B000089767250
:04003C00008976724F
:04003D00008976724E
:04003E00008976724D
:04003F00008976704E
:040040000088756F50
:040041000088756E50
:040042000088756E4F
:040043000088756E4E
:040044000088756E4D
:040045000088756E4C
:040046000088756E4B
:040047000088756E4A
:04004800008A777043
:040049000087746D4B
:04004A000084716A53
:04004B0000826F6858
:04004C0000816E675A
:04004D000083706953
:04004E000085726B4C
:04004F00008476694A
:0400500000847E6842
:0400510000807C614E
:04005200007F776252
:040053000083786648
:0400540000887A7135
:04005500008A7D7729
:0400560000857B792D
:040057000080787538
:04005800007874694F
:04005900007A746451
:04005A00007B746152
:04005B00007C745F52
:04005C00007B746150
:04005D00007A74664B
:04005E000077746D46
:04005F000077746D45
:040060000079756A44
:04006100007B756744
:04006200007C746941
:04006300007C736A40
:04006400007F726C3B
:04006500007F716E39
:04006600007F717135
:04006700007F717134
:04006800007D717531
:04006900007C717531
:04006A00007C727331
:04006B000079737332
:04006C000078747133
:04006D000075767133
:04006E000075767033
:04006F000074786A37
:0400700000727B603F
:0400710000767B5D3D
:04007200007B796432
:040073000083776926
:040074000088756F1C
:04007500008B737118
:04007600008C727117
:04007700008B736F18
:040078000086746A20
:040079000083766624
:04007A00007F766528
:04007B00007E776527
:04007C00007F756923
:04007D00007E746B22
:04007E000081726F1C
:04007F000081726F1B
:040080000086736D16
:040081000086736C16
:040082000086736F12
:040083000086727110
:04008400008573730D
:04008500008572760A
:040086000085727807
:040087000085717A05
:040088000087727B00
:040089000087727901
:04008A00008A717700
:04008B00008A717402
:04008C00008D707201
:04008D00008D716E03
:04008E00008E706E02
:04008F00008A736D03
:040090000084756E05
:040091000080776E06
:040092000080777003
:040093000080777002
:040094000081767001
:040095000081767000
:0400960000817670FF
:0400970000817670FE
:0400980000837572FA
:0400990000837572F9
:04009A0000847572F7
:04009B0000847572F6
:04009C0000847474F4
:04009D0000847474F3
:04009E0000847474F2
:04009F0000847572F2
:0400A00000837572F2
:0400A10000837670F2
:0400A2000083766EF3
:0400A3000083766EF2
:0400A4000081776EF2
:0400A5000081776EF1
:0400A6000080776EF1
:0400A7000080776EF0
:0400A800007F796DEF
:0400A900007F796DEE
:0400AA00007D7A6BF0
:0400AB00007D7A6BEF
:0400AC00007D7A6BEE
:0400AD00007D7A6BED
:0400AE00007D7A6BEC
:0400AF00007F796BEA
:0400B0000083766EE5
:0400B1000084756EE4
:0400B2000084756EE3
:0400B3000084756EE2
:0400B4000084756EE1
:0400B5000084756EE0
:0400B6000084756EDF
:0400B7000084756EDE
:0400B8000083746DE0
:0400B9000083746DDF
:0400BA000083746DDE
:0400BB000083746DDD
:0400BC000083746DDC
:0400BD000083746DDB
:0400BE000083746DDA
:0400BF000083746DD9
:0400C0000087746DD4
:0400C1000087746DD3
:0400C2000087746DD2
:0400C3000087746DD1
:0400C4000086756BD2
:0400C5000086756BD1
:0400C6000086756BD0
:0400C7000086756BCF
:0400C80000837568D4
:0400C90000837568D3
:0400CA0000827668D2
:0400CB0000827668D1
:0400CC0000827666D2
:0400CD0000827666D1
:0400CE0000827666D0
:0400CF0000827666CF
:0400D00000827469CD
:0400D10000827469CC
:0400D20000827469CB
:0400D30000827469CA
:0400D40000827469C9
:0400D50000827469C8
:0400D6000081746BC6
:0400D7000081746BC5
:0400D800007F756CC4
:0400D900007F756CC3
:0400DA00007F756CC2
:0400DB00007F756CC1
:0400DC00007F756CC0
:0400DD00007F756CBF
:0400DE00007E756EBD
:0400DF00007F746EBC
:0400E0000082756DB8
:0400E10000837767BA
:0400E20000837767B9
:0400E30000837769B6
:0400E40000837769B5
:0400E50000837769B4
:0400E60000837769B3
:0400E7000084766BB0
:0400E8000084766BAF
:0400E9000084766BAE
:0400EA000084766BAD
:0400EB000086756DA9
:0400EC000086756DA8
:0400ED000086756EA6
:0400EE000086756EA5
:0400EF000086756EA4
:0400F0000084756EA5
:0400F1000083766DA5
:0400F2000081776DA5
:0400F3000081776DA4
:0400F4000080766CA6
:0400F5000080766CA5
:0400F6000080766CA4
:0400F700007F756BA6
:0400F800007F756BA5
:0400F9000080766CA1
:0400FA000080766CA0
:0400FB000080766C9F
:0400FC000080766C9E
:0400FD000080766C9D
:0400FE000080766C9C
:0400FF000080766C9B
:040100000082756C98
:04010100008173689E
:04010200008173689D
:040103000082746999
:040104000082746998
:040105000082746997
:040106000083756A93
:040107000083756A92
:040108000083756A91
:040109000083756A90
:04010A000082746992
:04010B000081736894
:04010C000080726796
:04010D00007F716698
:04010E00007E70659A
:04010F00007E706599
:04011000007D6F6699
:040111000084736C87
:04011200008674707F
:04011300007B6864A1
:040114000084726E83
:0401150000806D6990
:04011600008D7B7766
:040117000088757176
:040118000083716D82
:040119000085726E7D
:04011A000084726E7D
:04011B000085726E7B
:04011C000084726E7B
:04011D000085726E79
:04011E000084726E79
:04011F000085726E77
:040120000084736C78
:040121000086736D74
:040122000085746C74
:040123000086736C73
:040124000085746C72
:040125000086736C71
:040126000085746C70
:040127000086736C6F
:040128000085746C6E
:04012900008A777061
:04012A000088776F63
:04012B000089766F62
:04012C000088776F61
:04012D00008A77705D
:04012E00008A797159
:04012F00008D7A7352
:04013000008B7D7053
:0401310000766E598D
:040132000078725A85
:04013300007F746075
:04013400008275656B
:04013500008072696B
:04013600007D6E6971
:0401370000776C6A77
:0401380000756B697A
:040139000081786F5A
:04013A000081796C5B
:04013B0000827A675D
:04013C00008479675B
:04013D00008279685B
:04013E000081796E55
:04013F00007E797352
:04014000007E797351
:0401410000827A6D51
:0401420000827B6B51
:0401430000837A6B50
:040144000085796D4C
:040145000086777049
:040146000086777246
:040147000086777443
:040148000086767641
:04014900008676773F
:04014A00008577773E
:04014B00008377773F
:04014C00008278763F
:04014D00007F7A763F
:04014E00007E7B7440
:04014F00007C7C7440
:04015000007B7D6F44
:0401510000747A605C
:0401520000787C6154
:04015300007F7D6844
:0401540000887C7033
:04015500008C79732E
:04015600008C747233
:04015700008870703C
:0401580000846F6A46
:040159000085746A3F
:04015A000083756841
:04015B000080776643
:04015C00007E776545
:04015D00007F756941
:04015E00007F756C3D
:04015F000081726F3A
:040160000081726F39
:040161000083746D36
:040162000083756C35
:040163000083746D34
:040164000083746F31
:04016500008274732D
:04016600008274742B
:040167000082737629
:040168000082737826
:040169000084737922
:04016A000084747722
:04016B000086737522
:04016C000087737421
:04016D000088737023
:04016E000088736E24
:04016F00008A736D22
:040170000087746D23
:040171000083766D24
:040172000080776E24
:040173000080776E23
:040174000081776E21
:040175000081776E20
:040176000081776E1F
:040177000081776E1E
:04017800008376701A
:040179000083767019
:04017A000083767018
:04017B000084757017
:04017C000084757016
:04017D000084757213
:04017E000084757212
:04017F000086747210
:040180000084757210
:040181000084757011
:040182000083767010
:040183000084756E11
:040184000083766E10
:040185000083766E0F
:040186000081776E0F
:040187000081776E0E
:040188000081776E0D
:040189000080786D0D
:04018A000080786D0C
:04018B00007F796B0D
:04018C00007F796B0C
:04018D00007F796B0B
:04018E00007F796B0A
:04018F00007F796B09
:040190000080786D06
:040191000083766E03
:040192000084756E02
:040193000084756E01
:040194000084756E00
:040195000084756EFF
:040196000084756EFE
:040197000084756EFD
:040198000084756EFC
:040199000083746DFE
:04019A000083746DFD
:04019B000083746DFC
:04019C000083746DFB
:04019D000083746DFA
:04019E000083746DF9
:04019F000083746DF8
:0401A0000083746DF7
:0401A1000087746DF2
:0401A2000087746DF1
:0401A3000087746DF0
:0401A4000087746DEF
:0401A5000086756BF0
:0401A6000086756BEF
:0401A7000086756BEE
:0401A8000086756BED
:0401A90000837568F2
:0401AA0000837568F1
:0401AB0000827668F0
:0401AC0000827668EF
:0401AD0000827668EE
:0401AE0000827666EF
:0401AF0000827666EE
:0401B00000827668EB
:0401B10000827469EB
:0401B20000827469EA
:0401B30000827469E9
:0401B40000827469E8
:0401B50000827469E7
:0401B60000827469E6
:0401B7000081746BE4
:0401B8000081746BE3
:0401B900007F756CE2
:0401BA00007F756CE1
:0401BB00007F756CE0
:0401BC00007F756CDF
:0401BD00007F756CDE
:0401BE00007F756CDD
:0401BF00007E756EDB
:0401C000007F746EDA
:0401C1000082756DD6
:0401C20000837769D6
:0401C30000837769D5
:0401C40000837769D4
:0401C50000837769D3
:0401C60000837769D2
:0401C70000837769D1
:0401C8000084766BCE
:0401C9000084766BCD
:0401CA000084766DCA
:0401CB000084766DC9
:0401CC000084766DC8
:0401CD000084766DC7
:0401CE000084756EC6
:0401CF000084756EC5
:0401D0000086756EC2
:0401D1000084756EC3
:0401D2000083766EC2
:0401D3000083766EC1
:0401D4000083766EC0
:0401D5000082756DC2
:0401D6000082756DC1
:0401D7000082756DC0
:0401D8000081746CC2
:0401D9000081746CC1
:0401DA000082756DBD
:0401DB000082756DBC
:0401DC000082756DBB
:0401DD000082756DBA
:0401DE000082756DB9
:0401DF000082756DB8
:0401E0000082756DB7
:0401E1000082756CB7
:0401E20000817368BD
:0401E30000827469B9
:0401E40000827469B8
:0401E50000827469B7
:0401E6000083756AB3
:0401E7000083756AB2
:0401E8000083756AB1
:0401E9000083756AB0
:0401EA000085776CA9
:0401EB000084766BAB
:0401EC000084766BAA
:0401ED000083756AAC
:0401EE000083756AAB
:0401EF0000827469AD
:0401F00000827469AC
:0401F1000082746BA9
:0401F20000796A63C3
:0401F300007F706BAE
:0401F40000806E6AAF
:0401F50000897A758E
:0401F6000088767295
:0401F70000897A758C
:0401F80000806E6AAB
:0401F9000082736E9F
:0401FA0000816F6BA6
:0401FB00007F706BA6
:0401FC0000816F6BA4
:0401FD00007F706BA4
:0401FE0000816F6BA2
:0401FF00007F706BA2
:0402000000816F6B9F
:04020100007F7069A1
:040202000082716A9B
:04020300008072699C
:04020400008271699A
:04020500008072699A
:040206000082716998
:040207000080726998
:040208000082716996
:040209000080726996
:04020A00007F6E669D
:04020B00007E70679A
:04020C000082716992
:04020D000082746B8C
:04020E000086756D84
:04020F000085776E81
:040210000087766E7F
:040211000085776C81
:04021200008277658A
:04021300007D726098
:04021400007D6D5E9E
:040215000080706392
:040216000087766F78
:04021700008B79756A
:04021800008777776D
:040219000084757276
:04021A00007F706B86
:04021B00007F716887
:04021C000081716488
:04021D000081716487
:04021E000081706685
:04021F00007F706983
:04022000007C716F7E
:04022100007C716B81
:04022200007F736383
:040223000080736084
:040224000082726280
:04022500008272637E
:04022600008371657B
:040227000083716778
:040228000084706975
:040229000083706A74
:04022A000083706A73
:04022B000082706C71
:04022C000082706C70
:04022D000080716A72
:04022E00007F726972
:04022F00007D736774
:04023000007C746773
:04023100007B766375
:04023200007A7D626F
:0402330000797C6171
:04023400007D78656C
:04023500007D73696C
:040236000082706C66
:040237000085706F5F
:04023800008670725A
:040239000086736F59
:04023A000083756C5C
:04023B00008276685F
:04023C000080776661
:04023D00007F78685E
:04023E00007F75695F
:04023F00007F756C5B
:040240000082737055
:040241000080726F58
:04024200007F776C56
:04024300007E786A57
:04024400007E786C54
:04024500007E776D53
:04024600007C786F51
:04024700007C77714F
:04024800007C77734C
:04024900007C77744A
:04024A00007D787546
:04024B00007F777445
:04024C00007F787245
:04024D000080777046
:04024E000080776E47
:04024F000081776D46
:040250000081776B47
:040251000081776B46
:040252000081776B45
:040253000081776D42
:040254000081776D41
:040255000083766D3F
:040256000083766D3E
:040257000083766D3D
:040258000083766D3C
:040259000084756E3A
:04025A000084756E39
:04025B000084756E38
:04025C000086756E35
:04025D000086756E34
:04025E000086747032
:04025F000086747031
:04026000008774702F
:04026100008674702F
:040262000086756E2F
:040263000084756E30
:040264000086756E2D
:040265000084756E2E
:040266000084756E2D
:040267000083766E2C
:040268000083766E2B
:040269000083766E2A
:04026A000083766D2A
:04026B000083766D29
:04026C000083766D28
:04026D000083766D27
:04026E000083766D26
:04026F000083766D25
:040270000083766D24
:040271000083766D23
:040272000084756E21
:040273000084756E20
:040274000084756E1F
:040275000084756E1E
:040276000084756E1D
:040277000084756E1C
:040278000084756E1B
:040279000084756E1A
:04027A000083746D1C
:04027B000083746D1B
:04027C000083746D1A
:04027D000083746D19
:04027E000083746D18
:04027F000083746D17
:040280000083746D16
:040281000083746D15
:040282000087746D10
:040283000087746D0F
:040284000086756D0E
:040285000086756D0D
:040286000086756D0C
:040287000086756D0B
:040288000084766B0D
:040289000084766B0C
:04028A000083756A0E
:04028B000083756A0D
:04028C000082766A0C
:04028D00008276680D
:04028E00008077680D
:04028F00008077680C
:04029000008077680B
:04029100008077680A
:040292000081756909
:040293000081746B07
:040294000081746B06
:040295000081746B05
:040296000081746B04
:040297000081746B03
:040298000081746B02
:040299000081746B01
:04029A00007F756C00
:04029B00007F756CFF
:04029C00007F756CFE
:04029D00007F756CFD
:04029E00007F756CFC
:04029F00007F756CFB
:0402A000007F756CFA
:0402A100007F756CF9
:0402A2000082756DF4
:0402A30000837769F4
:0402A40000837769F3
:0402A50000837769F2
:0402A60000837769F1
:0402A70000837769F0
:0402A80000837769EF
:0402A9000084766BEC
:0402AA000084766BEB
:0402AB000084766DE8
:0402AC000084766DE7
:0402AD000084766DE6
:0402AE000084766DE5
:0402AF000084756EE4
:0402B0000084756EE3
:0402B1000084756EE2
:0402B2000084756EE1
:0402B3000084756EE0
:0402B4000083766EDF
:0402B5000083766EDE
:0402B6000082756DE0
:0402B7000082756DDF
:0402B8000082756DDE
:0402B9000081746CE0
:0402BA000081746CDF
:0402BB000082756DDB
:0402BC000082756DDA
:0402BD000082756DD9
:0402BE000082756DD8
:0402BF000082756DD7
:0402C0000082756DD6
:0402C1000082756DD5
:0402C2000082756DD4
:0402C3000082746BD6
:0402C40000827469D7
:0402C50000827469D6
:0402C6000083756AD2
:0402C7000083756AD1
:0402C8000083756AD0
:0402C9000084766BCC
:0402CA000084766BCB
:0402CB0000807267D6
:0402CC0000807267D5
:0402CD0000807267D4
:0402CE0000817368D0
:0402CF0000817368CF
:0402D00000817368CE
:0402D10000817368CD
:0402D2000081736ACA
:0402D300008E81799F
:0402D400008B7E78A5
:0402D50000867973B3
:0402D6000080736DC4
:0402D700007E716BC9
:0402D800007D706ACB
:0402D90000776A64DC
:0402DA0000877A74AB
:0402DB0000867973AD
:0402DC0000867973AC
:0402DD0000867973AB
:0402DE0000867973AA
:0402DF0000867973A9
:0402E00000867973A8
:0402E10000867973A7
:0402E20000867973A6
:0402E3000084776FAD
:0402E4000084776EAD
:0402E5000084776EAC
:0402E6000084776EAB
:0402E7000084776EAA
:0402E8000084776EA9
:0402E9000084776EA8
:0402EA000084776EA7
:0402EB00007F7269B5
:0402EC000080736AB1
:0402ED000082756CAA
:0402EE000084776EA3
:0402EF000084776EA2
:0402F0000083766DA4
:0402F1000081746BA9
:0402F20000817368AC
:0402F300008A7C6F92
:0402F4000087776A9E
:0402F50000837167AA
:0402F6000084716AA5
:0402F7000088757195
:0402F8000088767490
:0402F9000084727299
:0402FA00007F6D6BA9
:0402FB00008977738C
:0402FC00008A77718C
:0402FD00008A77708C
:0402FE00008A77708B
:0402FF00008A777189
:04030000008A777385
:040301000089777781
:040302000089777384
:0403030000887B6B88
:0403040000887C668B
:04030500008A7B6887
:04030600008A7A6A85
:04030700008A7A6B83
:04030800008B796D80
:04030900008B796F7D
:04030A00008B78717B
:04030B00008B787279
:04030C00008B787278
:04030D00008A797277
:04030E00008A797177
:04030F0000887A6F79
:0403100000887A6D7A
:0403110000887A6D79
:0403120000857C6B7B
:040313000078765F99
:040314000076765E9B
:04031500007A736394
:04031600007C72698C
:040317000081726F80
:040318000087747670
:04031900008B787A63
:04031A00008B7C795F
:04031B000083766E77
:04031C000081776B7A
:04031D00007F78687D
:04031E00007F78687C
:04031F000080766A7A
:04032000007F756C79
:040321000081737074
:04032200007F746E76
:04032300007E786A76
:04032400007B7A6878
:04032500007C796A75
:04032600007B796C73
:04032700007B796D71
:040328000079796F70
:04032900007B78716C
:04032A00007979716C
:04032B00007978736A
:04032C00007979716A
:04032D00007B786F6A
:04032E00007B796D6A
:04032F00007B796C6A
:04033000007B796A6B
:04033100007C79686B
:04033200007C79686A
:04033300007F776A66
:040334000080766A65
:040335000082766A62
:040336000082766A61
:040337000082766A60
:040338000082766A5F
:040339000083756C5C
:04033A000083756C5B
:04033B000084766D57
:04033C000084766D56
:04033D000086756D54
:04033E000086756D53
:04033F000087746D52
:040340000087746D51
:040341000087746E4F
:040342000086756E4E
:040343000086756E4D
:040344000086756E4C
:040345000086756E4B
:040346000086756E4A
:040347000084756E4B
:040348000084756E4A
:040349000084756E49
:04034A000084756E48
:04034B000086756D46
:04034C000086756D45
:04034D000086756D44
:04034E000086756D43
:04034F000086756D42
:040350000086756D41
:040351000086756D40
:040352000086756D3F
:040353000084756E3F
:040354000084756E3E
:040355000084756E3D
:040356000084756E3C
:040357000084756E3B
:040358000084756E3A
:040359000084756E39
:04035A000084756E38
:04035B000083746D3A
:04035C000083746D39
:04035D000083746D38
:04035E000083746D37
:04035F000083746D36
:040360000083746D35
:040361000083746D34
:040362000083746D33
:040363000086756D2E
:040364000086756D2D
:040365000086756D2C
:040366000086756D2B
:040367000086756D2A
:040368000084766D2A
:040369000084766B2B
:04036A000084766B2A
:04036B000083756A2C
:04036C000082766A2B
:04036D000082766A2A
:04036E000080766A2B
:04036F000080766A2A
:04037000008077682A
:040371000080766A28
:040372000080766A27
:040373000081746B26
:040374000081746B25
:040375000081746B24
:040376000081746B23
:040377000081746B22
:040378000081746B21
:040379000081746B20
:04037A000081746B1F
:04037B000080766D1B
:04037C000080766D1A
:04037D000080766D19
:04037E000080766D18
:04037F000080766D17
:040380000080766D16
:040381000080766D15
:040382000080766D14
:040383000083746D12
:040384000083776912
:040385000083776911
:040386000083776910
:04038700008377690F
:040388000083776B0C
:040389000083776B0B
:04038A000083776B0A
:04038B000083776B09
:04038C000083766D07
:04038D000083766D06
:04038E000083766E04
:04038F000083766E03
:040390000083766E02
:040391000083766E01
:0403920000837670FE
:0403930000847570FD
:040394000084756EFE
:040395000084756EFD
:040396000084756EFC
:040397000083746DFE
:040398000083746DFD
:040399000083746DFC
:04039A000082736CFE
:04039B000082736CFD
:04039C000083746DF9
:04039D000083746DF8
:04039E000083746DF7
:04039F000083746DF6
:0403A0000083746DF5
:0403A1000083746DF4
:0403A2000083746DF3
:0403A3000083746DF2
:0403A4000081746BF5
:0403A5000081746BF4
:0403A6000082756CF0
:0403A7000082756CEF
:0403A8000083766DEB
:0403A9000083766DEA
:0403AA000083766DE9
:0403AB000083766DE8
:0403AC00007F7269F3
:0403AD000080736AEF
:0403AE000080736AEE
:0403AF000081746BEA
:0403B0000082756CE6
:0403B1000082756CE5
:0403B2000083766DE1
:0403B3000083766DE0
:0403B40000796F66F7
:0403B50000786D67F8
:0403B600007F746EE2
:0403B700007B706AED
:0403B8000090857FAD
:0403B90000938882A3
:0403BA00007E736DE1
:0403BB0000847973CE
:0403BC0000817670D6
:0403BD0000817670D5
:0403BE0000817670D4
:0403BF0000817670D3
:0403C00000817670D2
:0403C10000817670D1
:0403C20000817670D0
:0403C30000817670CF
:0403C400007D736ADB
:0403C500007D736ADA
:0403C600007D736AD9
:0403C700007D736AD8
:0403C800007D736AD7
:0403C900007D736AD6
:0403CA00007D736AD5
:0403CB00007D736AD4
:0403CC000081776EC7
:0403CD000081776EC6
:0403CE000080766DC8
:0403CF00007F756CCA
:0403D000007E746BCC
:0403D100007D736ACE
:0403D200007B7168D3
:0403D300007C6F66D5
:0403D400007D6C62DA
:0403D50000837069C8
:0403D6000088756FB7
:0403D700008B7975A9
:0403D800008A7878A7
:0403D90000887676AC
:0403DA0000867474B1
:0403DB0000867273B3
:0403DC0000877372B1
:0403DD0000877372B0
:0403DE0000877374AD
:0403DF0000877374AC
:0403E00000887274AB
:0403E10000887274AA
:0403E200008A7174A8
:0403E30000887370AB
:0403E4000085776AAF
:0403E50000827A67B1
:0403E60000827A67B0
:0403E70000827968AF
:0403E8000082786CAB
:0403E9000084776EA7
:0403EA000084776FA5
:0403EB000084776FA4
:0403EC0000847771A1
:0403ED0000847771A0
:0403EE00008576719F
:0403EF000085766FA0
:0403F0000085766F9F
:0403F1000085776E9E
:0403F2000085776E9D
:0403F3000084786AA0
:0403F40000847C699C
:0403F50000837C699C
:0403F6000083796D9A
:0403F7000084777196
:0403F800008173739A
:0403F900007F70739E
:0403FA00007D6E71A3
:0403FB00007B6D6CAA
:0403FC000081767096
:0403FD000080786D97
:0403FE000080796999
:0403FF000080796998
:040400000080766A98
:040401000080766D94
:040402000081746E93
:04040300007F746E94
:04040400007E786A94
:04040500007C796896
:04040600007E786A92
:04040700007C786C91
:04040800007C786D8F
:04040900007B786F8D
:04040A00007C786F8B
:04040B00007B786F8B
:04040C00007B787188
:04040D00007B786F89
:04040E00007B786F88
:04040F00007B796D88
:04041000007B796C88
:0404110000797A6A8A
:04041200007B7A6889
:04041300007C796888
:04041400007F776A84
:040415000080766A83
:040416000080766A82
:040417000080766A81
:040418000080766A80
:040419000080766A7F
:04041A000082766A7C
:04041B000082766A7B
:04041C000084766B77
:04041D000084766B76
:04041E000084766B75
:04041F000084766B74
:040420000086756B72
:040421000086756B71
:040422000086756D6E
:040423000086756D6D
:040424000086756E6B
:040425000084756E6C
:040426000086756E69
:040427000086756E68
:040428000086756E67
:040429000086756E66
:04042A000086756E65
:04042B000086756E64
:04042C000087746E63
:04042D000087746E62
:04042E000087746E61
:04042F000087746E60
:040430000087746E5F
:040431000087746E5E
:040432000087746E5D
:040433000087746E5C
:040434000086756E5B
:040435000084756E5C
:040436000084756E5B
:040437000084756E5A
:040438000084756E59
:040439000084756E58
:04043A000084756E57
:04043B000084756E56
:04043C000083746D58
:04043D000083746D57
:04043E000083746D56
:04043F000083746D55
:040440000083746D54
:040441000083746D53
:040442000083746D52
:040443000083746D51
:040444000086756D4C
:040445000086756D4B
:040446000086756D4A
:040447000084766D4A
:040448000084766D49
:040449000084766D48
:04044A000084766D47
:04044B000083766D47
:04044C000082756C49
:04044D000082756C48
:04044E000082756C47
:04044F000080766C47
:040450000080766C46
:04045100007F776A47
:04045200007F776C44
:04045300007F776C43
:04045400007F756B45
:04045500007F756C43
:04045600007F756C42
:04045700007F756C41
:04045800007F756C40
:04045900007F756C3F
:04045A00007F756C3E
:04045B00007F756C3D
:04045C000080766D39
:04045D000080766D38
:04045E000080766D37
:04045F000080766D36
:040460000080766D35
:040461000080766D34
:040462000080766D33
:040463000080766D32
:040464000083746D30
:040465000083776930
:04046600008377692F
:04046700008377692E
:04046800008377692D
:040469000083776B2A
:04046A000083776B29
:04046B000083776B28
:04046C000083776B27
:04046D000083766D25
:04046E000083766D24
:04046F000083766E22
:040470000083766E21
:040471000083766E20
:040472000083766E1F
:04047300008376701C
:04047400008376701B
:040475000084756E1C
:040476000084756E1B
:040477000084756E1A
:040478000083746D1C
:040479000083746D1B
:04047A000083746D1A
:04047B000082736C1C
:04047C000082736C1B
:04047D000083746D17
:04047E000083746D16
:04047F000083746D15
:040480000083746D14
:040481000083746D13
:040482000083746D12
:040483000083746D11
:040484000083746D10
:040485000082756D0F
:040486000082756C0F
:040487000082756C0E
:040488000083766D0A
:040489000083766D09
:04048A000083766D08
:04048B000084776E04
:04048C000084776E03
:04048D00007B6E651D
:04048E00007C6F6619
:04048F00007D706715
:04049000007E716811
:04049100007F72690D
:040492000081746B06
:040493000082756C02
:040494000080766D01
:04049500007067602C
:04049600007B746C07
:04049700008B847CD6
:0404980000716A6223
:0404990000817A72F2
:04049A0000837C74EB
:04049B0000726B631D
:04049C00007E776FF8
:04049D0000847D75E5
:04049E0000847D75E4
:04049F0000847D75E3
:0404A00000847D75E2
:0404A10000847D75E1
:0404A20000847D75E0
:0404A30000847D75DF
:0404A40000847D75DE
:0404A50000807971E9
:0404A6000080796FEA
:0404A70000807971E7
:0404A8000080796FE8
:0404A90000807971E5
:0404AA000080796FE6
:0404AB0000807971E3
:0404AC000080796FE4
:0404AD0000857E76D2
:0404AE0000837C72D9
:0404AF0000807971DF
:0404B000007D766CE9
:0404B100007D766EE6
:0404B200007E776DE4
:0404B30000817A72D8
:0404B40000857B72D2
:0404B50000907F78BC
:0404B60000867470D8
:0404B70000796B6AF3
:0404B80000796D6DED
:0404B90000817778CF
:0404BA0000887E7FB9
:0404BB0000877B7BC0
:0404BC0000847676CC
:0404BD0000857576CB
:0404BE0000857578C8
:0404BF000084757CC4
:0404C0000085747CC3
:0404C1000087747AC2
:0404C20000897278C3
:0404C300008E7173C3
:0404C400008B736FC7
:0404C5000085796BCA
:0404C600007F7C69CE
:0404C700007F7C6BCB
:0404C800007F7C6DC8
:0404C900007F7B6FC6
:0404CA00007F7B70C4
:0404CB0000817A74BE
:0404CC0000817A74BD
:0404CD0000817976BB
:0404CE0000827876BA
:0404CF0000827974BA
:0404D00000837874B9
:0404D10000857774B7
:0404D20000867772B7
:0404D30000887672B5
:0404D4000088776FB6
:0404D500008A7A6AB5
:0404D60000857565C3
:0404D700007C6E63D4
:0404D80000776966DA
:0404D90000776B6DD0
:0404DA00007E7377B6
:0404DB0000887D8197
:0404DC00008E848387
:0404DD0000817873AF
:0404DE000081786FB2
:0404DF000080786BB6
:0404E0000080786BB5
:0404E1000081776DB2
:0404E2000080766DB3
:0404E3000080756FB1
:0404E4000080756FB0
:0404E5000080766CB1
:0404E6000080766AB2
:0404E7000080766CAF
:0404E8000080766CAE
:0404E9000080766DAC
:0404EA00007F766FAA
:0404EB000080756FA9
:0404EC00007F766FA8
:0404ED00007E756EAA
:0404EE00007D766EA9
:0404EF00007D766EA8
:0404F000007D766CA9
:0404F100007B776BAA
:0404F200007B776BA9
:0404F300007B7869A9
:0404F400007B7869A8
:0404F500007D776BA4
:0404F600007E766BA3
:0404F700007E766BA2
:0404F800007E766BA1
:0404F900007E766BA0
:0404FA00007E766B9F
:0404FB00007F756B9E
:0404FC00007F756B9D
:0404FD000083766D95
:0404FE000083776B95
:0404FF000083766D93
:040500000083776B92
:040501000084766B91
:040502000084766B90
:040503000084766B8F
:040504000084766D8C
:040505000083766E8B
:040506000083766E8A
:040507000084756E89
:040508000084756E88
:040509000084756E87
:04050A000084756E86
:04050B000086756E83
:04050C000086756E82
:04050D000086756E81
:04050E000086756E80
:04050F000087746E7F
:040510000087746E7E
:040511000087746E7D
:040512000087746E7C
:040513000088737079
:040514000087746E7A
:040515000086756E79
:040516000084756E7A
:040517000084756E79
:040518000084756E78
:040519000084756E77
:04051A000084756E76
:04051B000084756E75
:04051C000084756E74
:04051D000083746D76
:04051E000083746D75
:04051F000083746D74
:040520000083746D73
:040521000083746D72
:040522000083746D71
:040523000083746D70
:040524000083746D6F
:040525000084766D6B
:040526000084766D6A
:040527000084766D69
:040528000084766D68
:040529000084766D67
:04052A000083766D67
:04052B000083766D66
:04052C000083766D65
:04052D000082756C67
:04052E000080766C67
:04052F000080766D65
:04053000007F776C65
:04053100007F766D64
:04053200007F776C63
:04053300007F766D62
:04053400007F766D61
:04053500007E756C63
:04053600007E756C62
:04053700007F746E5F
:04053800007F756C5F
:04053900007F756C5E
:04053A00007F756C5D
:04053B00007F756C5C
:04053C00007F756C5B
:04053D000081776E54
:04053E000081776E53
:04053F000081776E52
:040540000081776E51
:040541000081776E50
:040542000081776E4F
:040543000081776E4E
:040544000081776E4D
:040545000083746D4E
:040546000084766B4C
:040547000084766B4B
:040548000084766B4A
:040549000084766B49
:04054A000083776B48
:04054B000083776B47
:04054C000083766D45
:04054D000083766D44
:04054E000081776E43
:04054F000081776E42
:040550000081776E41
:040551000081776E40
:04055200008176703E
:04055300008176703D
:04055400008176703C
:04055500008176703B
:040556000083767038
:040557000084757037
:040558000084757036
:040559000083746F38
:04055A000083746F37
:04055B000083746F36
:04055C000082736E38
:04055D000082736E37
:04055E000083746F33
:04055F000083746F32
:040560000083746F31
:040561000083746F30
:040562000083746F2F
:040563000083746F2E
:040564000083746F2D
:040565000083746D2E
:040566000082756D2D
:040567000080766D2D
:040568000081776E29
:040569000081776E28
:04056A000081776E27
:04056B000082786F23
:04056C000082786F22
:04056D000082786F21
:04056E00007B716835
:04056F00007B716834
:04057000007D736A2D
:04057100007E746B29
:040572000080766D22
:040573000082786F1B
:040574000083797017
:0405750000837A7114
:0405760000B1AAA284
:0405770000B4AFA974
:0405780000A49F99A3
:04057900004D4842A7
:04057A00003E3933D3
:04057B0000413C36C9
:04057C000045403ABC
:04057D000065605A5B
:04057E00007A756F1B
:04057F00007A756F1A
:04058000007A756F19
:04058100007A756F18
:04058200007A756F17
:04058300007A756F16
:04058400007A756F15
:04058500007A756F14
:04058600007C77710D
:04058700007C786F0D
:04058800007C77710B
:04058900007C786F0B
:04058A00007C777109
:04058B00007C786F09
:04058C00007C777107
:04058D00007C786F07
:04058E00007F7A74FC
:04058F00007B776E08
:040590000076716B15
:04059100007470671B
:040592000077726C10
:04059300007F7B72F8
:040594000088837DDB
:0405950000908983C6
:0405960000796A6717
:04059700007163622A
:0405980000645E623B
:04059900005E5D6241
:04059A00005D60653B
:04059B00005D61643A
:04059C00005C5C5C47
:04059D000059575852
:04059E00005D585C48
:04059F00005D585F44
:0405A000005B586341
:0405A100005D57633F
:0405A2000061555F40
:0405A3000067545841
:0405A400006E524F44
:0405A500006B544C47
:0405A60000635C4C46
:0405A700005C5F4E47
:0405A800005C5E5045
:0405A900005C5E5143
:0405AA00005B5E5341
:0405AB00005B5E553E
:0405AC00005B5D583B
:0405AD00005C5D5839
:0405AE00005C5C5A37
:0405AF00005D5C5A35
:0405B00000605A5A33
:0405B10000625A5832
:0405B2000064585831
:0405B300006658572F
:0405B400006757572E
:0405B500006A575130
:0405B60000745C5021
:0405B70000715A4C29
:0405B800006B574E2F
:0405B900006856542C
:0405BA0000685C5E1B
:0405BB000070676CF9
:0405BC0000787276DB
:0405BD00007F7979C9
:0405BE00007E7975CD
:0405BF0000807971CE
:0405C0000081796ECF
:0405C1000080786BD3
:0405C2000081776DD0
:0405C3000081776ECE
:0405C4000080756FCF
:0405C5000082756FCC
:0405C6000085746DCB
:0405C7000086736DCA
:0405C8000086736DC9
:0405C9000086736FC6
:0405CA000086736FC5
:0405CB0000867271C3
:0405CC0000877271C1
:0405CD0000867271C1
:0405CE0000857170C3
:0405CF0000847270C2
:0405D00000827370C2
:0405D1000082736EC3
:0405D2000081746EC2
:0405D300007F756CC4
:0405D400007F756CC3
:0405D500007E756CC3
:0405D600007D766CC2
:0405D700007B776CC2
:0405D800007B776CC1
:0405D900007B776CC0
:0405DA00007B776CBF
:0405DB00007B776CBE
:0405DC00007D766CBC
:0405DD00007D766CBB
:0405DE000080776EB4
:0405DF000080786DB3
:0405E0000080776EB2
:0405E1000080786DB1
:0405E2000081776DB0
:0405E3000081776DAF
:0405E4000081776DAE
:0405E5000081776DAD
:0405E6000080776EAC
:0405E7000080776EAB
:0405E8000080776EAA
:0405E9000080776EA9
:0405EA000081776EA7
:0405EB000081776EA6
:0405EC000083766EA4
:0405ED000083766EA3
:0405EE0000847570A0
:0405EF00008475709F
:0405F000008674709D
:0405F100008674709C
:0405F200008674709B
:0405F300008674709A
:0405F4000087737297
:0405F5000086747098
:0405F6000084756E9A
:0405F7000084756E99
:0405F8000084756E98
:0405F9000084756E97
:0405FA000084756E96
:0405FB000084756E95
:0405FC000084756E94
:0405FD000084756E93
:0405FE000083746D95
:0405FF000083746D94
:040600000083746D92
:040601000083746D91
:040602000083746D90
:040603000083746D8F
:040604000083746D8E
:040605000083746D8D
:040606000084766D89
:040607000083766D89
:040608000083766D88
:040609000083766D87
:04060A000083766E85
:04060B000083766E84
:04060C000083766E83
:04060D000081776E83
:04060E000080766D85
:04060F00007F766D85
:04061000007F766F82
:04061100007F766D83
:04061200007F766F80
:04061300007E776D81
:04061400007E776F7E
:04061500007E776F7D
:04061600007D766E7F
:04061700007D766E7E
:04061800007E75707B
:04061900007E756E7C
:04061A00007E756E7B
:04061B00007E756E7A
:04061C00007E756E79
:04061D00007E756E78
:04061E000081776E72
:04061F000081776E71
:040620000081776E70
:040621000081776E6F
:040622000081776E6E
:040623000081776E6D
:040624000081776E6C
:040625000081776E6B
:040626000083746D6C
:040627000084766B6A
:040628000084766B69
:040629000084766B68
:04062A000084766B67
:04062B000083776B66
:04062C000083776B65
:04062D000083766D63
:04062E000081776D63
:04062F000081776E61
:040630000081776E60
:040631000081776E5F
:040632000081776E5E
:04063300008176705C
:04063400008077705B
:04063500008077705A
:040636000080777059
:040637000083767056
:040638000084757055
:040639000084757054
:04063A000083746F56
:04063B000083746F55
:04063C000083746F54
:04063D000082736E56
:04063E000082736E55
:04063F000083746F51
:040640000083746F50
:040641000083746F4F
:040642000083746F4E
:040643000083746F4D
:040644000083746F4C
:040645000083746F4B
:040646000082756F4A
:040647000080756F4B
:04064800007F766D4C
:040649000081767046
:04064A000080776E47
:04064B000082777141
:04064C000081786F42
:04064D00008277713F
:04064E000081786F40
:04064F00009D928CEC
:04065000009D948BEA
:04065100009F948EE4
:0406520000A0978EDF
:0406530000A39892D6
:0406540000A49B92D1
:0406550000A79C96C8
:0406560000A69D96C7
:0406570000BBB6B07E
:0406580000BEBBB471
:0406590000AAA7A0AC
:04065A000046433CD7
:04065B000037342D03
:04065C000036332C05
:04065D000028251E2E
:04065E000038352EFD
:04065F000048453ECC
:040660000048453ECB
:040661000048453ECA
:040662000048453EC9
:040663000048453EC8
:040664000048453EC7
:040665000048453EC6
:040666000048453EC5
:04066700004E4B44B2
:04066800004E4B44B1
:04066900004E4B44B0
:04066A00004E4B44AF
:04066B00004E4B44AE
:04066C00004E4B44AD
:04066D00004E4B44AC
:04066E00004E4B44AB
:04066F000058554E8C
:04067000005350499A
:04067100004E4B44A8
:04067200004D4A43AA
:040673000054514A94
:0406740000605D566F
:04067500006E6B6444
:040676000079747023
:040677000071666444
:0406780000978E91C8
:0406790000B9BEC442
:04067A0000BFCED51A
:04067B0000ACC0C748
:04067C00009CB4B872
:04067D0000A6B8B863
:04067E0000B7C5C636
:04067F0000BBC6CC2A
:0406800000BBC5CF27
:0406810000B9C5D522
:0406820000BCC3D520
:0406830000C2C2CE21
:0406840000CBBFC127
:0406850000D5BDB32C
:0406860000D5BEAC31
:0406870000CCC4AD32
:0406880000C7C7AF31
:0406890000C5C7B130
:04068A0000C4C7B22F
:04068B0000C4C7B62A
:04068C0000C3C7B828
:04068D0000C3C6BB25
:04068E0000C4C5BD22
:04068F0000C5C5BD20
:0406900000C8C3BF1C
:0406910000CBC1BF1A
:0406920000CEC0BF17
:0406930000D1BFBD16
:0406940000D3BEBD14
:0406950000D6BCBB14
:0406960000DABBB813
:0406970000DEBAAE19
:0406980000E1BDB10F
:0406990000DBBEB60E
:04069A0000CEB9B61F
:04069B0000B5A9AB52
:04069C00009791959D
:04069D00007A787BEC
:04069E00006A68691D
:04069F00007D7976EB
:0406A000007E7A71ED
:0406A1000081786FED
:0406A2000081796EEC
:0406A3000081776DEE
:0406A4000080776EED
:0406A500007F766FED
:0406A6000080756FEC
:0406A70000857371E6
:0406A80000877271E4
:0406A90000877271E3
:0406AA0000897171E1
:0406AB0000897171E0
:0406AC00008A7071DF
:0406AD00008A7073DC
:0406AE00008A7071DD
:0406AF0000886F72DE
:0406B00000867170DF
:0406B10000867072DD
:0406B20000847270DE
:0406B30000827370DE
:0406B40000817370DE
:0406B50000817370DD
:0406B600007E7570DD
:0406B700007B7670DE
:0406B80000787870DE
:0406B90000787870DD
:0406BA0000787870DC
:0406BB0000787870DB
:0406BC0000787870DA
:0406BD00007A7770D8
:0406BE00007A776ED9
:0406BF00007D7970D1
:0406C000007D7970D0
:0406C100007D7970CF
:0406C200007D796ED0
:0406C300007F786ECE
:0406C400007F796DCD
:0406C500007F786ECC
:0406C600007F786ECB
:0406C700007D796ECB
:0406C800007D796ECA
:0406C900007D796EC9
:0406CA00007D796EC8
:0406CB00007F786EC6
:0406CC00007F786EC5
:0406CD000080776EC4
:0406CE000080776EC3
:0406CF0000817670C0
:0406D00000817670BF
:0406D10000817670BE
:0406D20000837572BA
:0406D30000837572B9
:0406D40000837572B8
:0406D50000837572B7
:0406D60000847572B5
:0406D70000847570B6
:0406D8000084756EB7
:0406D9000084756EB6
:0406DA000084756EB5
:0406DB000084756EB4
:0406DC000084756EB3
:0406DD000084756EB2
:0406DE000084756EB1
:0406DF000083746DB3
:0406E0000083746DB2
:0406E1000083746DB1
:0406E2000083746DB0
:0406E3000083746DAF
:0406E4000083746DAE
:0406E5000083746DAD
:0406E6000083746DAC
:0406E7000083766DA9
:0406E8000083766DA8
:0406E9000083766DA7
:0406EA000083766DA6
:0406EB000083766EA4
:0406EC000081776EA4
:0406ED000081776EA3
:0406EE000080776EA3
:0406EF00007F766FA3
:0406F000007F766FA2
:0406F100007F766FA1
:0406F200007E77719E
:0406F300007E77719D
:0406F400007E77719C
:0406F500007E77719B
:0406F600007E77719A
:0406F700007D76709C
:0406F800007D76709B
:0406F900007D76709A
:0406FA00007D767099
:0406FB00007D767098
:0406FC00007E756E99
:0406FD00007E756E98
:0406FE00007E756E97
:0406FF000081767090
:040700000081776E8F
:040701000081776E8E
:040702000081776E8D
:040703000081776E8C
:040704000081776E8B
:040705000081776E8A
:040706000083766E88
:040707000083746D8A
:040708000084766B88
:040709000087796E7E
:04070A000082746B8A
:04070B00007A6C63A1
:04070C0000887B7274
:04070D0000877A7176
:04070E0000746A61A8
:04070F000071675EB0
:0407100000857B7273
:04071100007D746B88
:040712000079706991
:04071300007E756E81
:0407140000887F7A60
:040715000089827C59
:040716000080797373
:0407170000776E6990
:04071800007C6F6989
:04071900008578726D
:04071A00008477716F
:04071B0000897C765F
:04071C00008477716D
:04071D00007F726C7B
:04071E000086797365
:04071F00007D706A7F
:04072000008376706C
:04072100008376706B
:04072200008376706A
:040723000082756F6C
:040724000081746E6E
:040725000080736D70
:040726000080736D6F
:04072700007F726C71
:0407280000847B745A
:040729000080797162
:04072A0000847B7656
:04072B00008E877F36
:04072C00009C938E0C
:04072D00009F989001
:04072E000099908B13
:04072F00008F88802F
:04073000008077725C
:04073100007E776F60
:04073200007E757060
:04073300007C756D64
:04073400007B726D67
:040735000079726A6B
:040736000079706B6B
:040737000077706A6D
:0407380000726F6874
:040739000084837E37
:04073A000095948F03
:04073B000065645F92
:04073C000069686385
:04073D000035342F20
:04073E000033322D25
:04073F00006D6C6776
:040740000082817C36
:040741000084837E2F
:040742000087868125
:04074300008B8A8518
:0407440000908F8A08
:040745000094938EFB
:0407460000979691F1
:0407470000999893EA
:04074800009B9A95E3
:04074900009D9C97DC
:04074A0000A09F9AD2
:04074B0000A2A19CCB
:04074C0000A2A19CCA
:04074D0000A1A09BCC
:04074E00009F9E99D1
:04074F00009D9C97D6
:0407500000999893E1
:040751000095948FEC
:04075200008E8D8800
:04075300008A89840B
:040754000082817C22
:04075500007A797439
:04075600005857529E
:0407570000817E7926
:04075800006B63616E
:0407590000C6C6C848
:04075A00007689900C
:04075B000068889317
:04075C00005C879026
:04075D00004F7E8447
:04075E00005C85872F
:04075F00006A90910B
:040760000071949AF6
:04076100005A7C8836
:04076200005D7D9227
:0407630000708BA0F7
:040764000078869102
:040765000077767231
:0407660000A08B76EE
:040767000089705144
:04076800009B8D66FF
:0407690000988F66FF
:04076A000098906BF8
:04076B000096906CF8
:04076C0000959070F4
:04076D0000959174EE
:04076E0000959178E9
:04076F000096907AE6
:0407700000948C79EC
:04077100008D7D6E0C
:04077200009C8679E8
:04077300009F8378E8
:0407740000A28077E8
:04077500009F7670FB
:0407760000B38681C5
:0407770000A7766FF2
:0407780000AC766AF1
:0407790000A4736500
:04077A0000AE857FC9
:04077B00008F737008
:04077C0000A49696A9
:04077D0000C2BCC03A
:04077E000066666843
:04077F0000797A7C07
:04078000007B7A7808
:040781000075706A25
:04078200007C736C18
:040783000080766D0F
:0407840000978E85C7
:0407850000887F76F3
:040786000080797105
:04078700007C736E11
:04078800008072710A
:04078900008F7C7EE3
:04078A00007C696B1B
:04078B00008B7779EF
:04078C00008F797CE5
:04078D00008E7578ED
:04078E0000897074FA
:04078F00008C7376F1
:04079000006E555949
:040791000077616329
:04079200006D575A45
:04079300005D4A4C6F
:040794000060505160
:04079500006557574D
:040796000062565651
:0407970000635B5947
:040798000062615F3B
:04079900003B3B39AD
:04079A000054555062
:04079B00005A5B564F
:04079C0000494A4581
:04079D00005D5E5944
:04079E00004A494480
:04079F000082817CD7
:0407A0000073706B07
:0407A100007A7770F3
:0407A200007B7871EF
:0407A3000077746BFC
:0407A400007B776EF1
:0407A50000858176D4
:0407A60000868279CE
:0407A700007E7C70E4
:0407A8000079796DEE
:0407A90000797A6CED
:0407AA0000797A6CEC
:0407AB0000797A6CEB
:0407AC00007B796DE8
:0407AD00007B796DE7
:0407AE00007B786FE5
:0407AF00007B786FE4
:0407B000007E7973DB
:0407B100007E7973DA
:0407B200007E7973D9
:0407B30000807875D5
:0407B40000807875D4
:0407B50000807875D3
:0407B60000807875D2
:0407B70000817775D1
:0407B80000847771D1
:0407B90000867770CF
:0407BA000085766FD1
:0407BB00007F7069E2
:0407BC00007B6C65ED
:0407BD000083746DD4
:0407BE0000897A73C1
:0407BF0000867770C9
:0407C0000083746DD1
:0407C1000083746DD0
:0407C2000083746DCF
:0407C3000083746DCE
:0407C4000083746DCD
:0407C5000083746DCC
:0407C6000083746DCB
:0407C7000083746DCA
:0407C800007D7067D9
:0407C900007E746AD0
:0407CA0000847A71BC
:0407CB0000847A71BB
:0407CC00008A8077A8
:0407CD0000797067D8
:0407CE0000847B74B4
:0407CF0000776E67DA
:0407D00000786F6AD4
:0407D1000079726CCD
:0407D200007D7670C0
:0407D30000807B77B0
:0407D4000085807CA0
:0407D500008B86828D
:0407D600008E898583
:0407D70000908B877C
:0407D8000096918D69
:0407D900009C979356
:0407DA0000A6A19D37
:0407DB0000A5A09C39
:0407DC0000ACA7A323
:0407DD0000A69F993A
:0407DE00008A837D8D
:0407DF000089827A91
:0407E00000776E67C9
:0407E10000837A73A4
:0407E20000897F7695
:0407E3000082786FA9
:0407E4000080736AB4
:0407E5000082756CAD
:0407E6000082756CAC
:0407E700007E7168B7
:0407E8000084756EA6
:0407E90000897B7098
:0407EA00007D6F64BB
:0407EB000084766DA3
:0407EC0000887A7196
:0407ED000086797099
:0407EE0000887B7292
:0407EF00008379709A
:0407F0000083797099
:0407F10000857C7390
:0407F2000081786F9B
:0407F300007E756EA1
:0407F400007C756DA3
:0407F500007E77719A
:0407F600007D787298
:0407F700007D76709B
:0407F800007B746EA0
:0407F90000877C7683
:0407FA00008378728E
:0407FB0000766B65B4
:0407FC00007C716BA1
:0407FD00008378728B
:0407FE00008378728A
:0407FF0000867B7580
:0408000000796E68A5
:04080100007F746E92
:04080200007F746E91
:04080300007E736D93
:04080400007E736D92
:04080500007D726C94
:04080600007C716B96
:04080700007B706A98
:04080800007B706A97
:0408090000756E68A0
:04080A0000857E786F
:04080B0000958E883E
:04080C0000968F893A
:04080D000089827C60
:04080E00007E777180
:04080F00007C756F85
:04081000007F78727B
:04081100007C756F83
:04081200007C756F82
:04081300007C756F81
:04081400007C756F80
:04081500007C756F7F
:04081600007C756F7E
:04081700007C756F7D
:04081800007A756F7E
:0408190000716E6993
:04081A00006C6B669D
:04081B00006E6D6896
:04081C00002F2E2952
:04081D000032312C48
:04081E000033322D44
:04081F000051504BE9
:04082000006B6A659A
:040821000082817C54
:040822000084837E4D
:040823000087868143
:04082400008B8A8536
:0408250000908F8A26
:040826000094938E19
:04082700009796910F
:040828000099989308
:04082900009B9A9501
:04082A00009D9C97FA
:04082B0000A09F9AF0
:04082C0000A2A19CE9
:04082D0000A3A29DE5
:04082E0000A1A09BEA
:04082F00009F9E99EF
:04083000009E9D98F1
:0408310000999893FF
:040832000095948F0A
:04083300008F8E891B
:04083400008B8A8526
:040835000082817C40
:04083600007A797457
:0408370000585752BC
:0408380000817D7A44
:0408390000645E5E9B
:04083A0000A3A8ACC3
:04083B000037555FCE
:04083C0000255664D9
:04083D0000246672BB
:04083E000020666EC2
:04083F0000226367C9
:0408400000225F62D1
:04084100002A646FB6
:04084200001D5667D8
:04084300001D556ED1
:04084400002A586FBF
:04084500001F3D450E
:04084600002D372C1E
:0408470000998A6921
:0408480000A78D5C1C
:0408490000A0874E36
:04084A0000A0884C36
:04084B00009E895032
:04084C00009D8A522F
:04084D00009B8A562C
:04084E00009B8A5C25
:04084F00009B8A5F21
:04085000009C88631D
:04085100007D65437E
:040852000056371AFB
:0408530000704B31B5
:040854000083553E8A
:040855000088503F88
:0408560000834435A2
:04085700008F4B3E85
:04085800008F473B8B
:04085900009951436E
:04085A000089473991
:04085B00007F4D4489
:04085C0000583531DA
:04085D000068565683
:04085E0000A59FA1B1
:04085F00006363656A
:040860000080818310
:04086100006F6F6D48
:04086200007D7A7526
:040863000081787127
:04086400006D635A66
:04086500007C736A36
:04086600007B746C33
:040867000079746E32
:04086800006D686453
:0408690000726A6847
:04086A00007D737426
:04086B0000766A6C3D
:04086C0000796B6B39
:04086D00007A67693D
:04086E00007A66673F
:04086F000084707120
:04087000009E888AD4
:0408710000A28C8EC7
:0408720000CCB8B945
:0408730000DDC9CA11
:0408740000CBBBBC3E
:0408750000C5B7B74C
:0408760000C8BEBF39
:0408770000CCC2C32C
:0408780000CEC8C81E
:0408790000CDCCCA18
:04087A0000CFCFCD0F
:04087B0000C6C6C429
:04087C0000AFAFAD6D
:04087D0000BCBCBA45
:04087E0000C9CAC51E
:04087F00007F7E7AFE
:04088000007A79740D
:0408810000817E79FB
:04088200007E7B7405
:04088300007A777010
:040884000077746B1A
:04088500007A766D12
:04088600007B776C10
:04088700007773681B
:04088800006F6D612F
:04088900007475671B
:04088A00007475671A
:04088B000074756719
:04088C000074756718
:04088D000074746817
:04088E000074746816
:04088F000074746A13
:040890000074746A12
:040891000075756D0C
:040892000075756D0B
:040893000077746F07
:040894000075746F08
:040895000075746F07
:040896000075747005
:040897000077737003
:040898000078736F02
:04089900007B6E680A
:04089A00007667601D
:04089B0000796A6313
:04089C000083746DF4
:04089D000084756EF0
:04089E000081726BF8
:04089F0000867770E8
:0408A0000090817AC9
:0408A1000083746DEF
:0408A2000083746DEE
:0408A3000083746DED
:0408A4000083746DEC
:0408A5000083746DEB
:0408A6000083746DEA
:0408A7000083746DE9
:0408A8000082756DE8
:0408A9000080766CE9
:0408AA000082786EE2
:0408AB000080766DE6
:0408AC0000746B6207
:0408AD00007269600C
:0408AE000061584F3E
:0408AF0000746B6402
:0408B0000070696308
:0408B100007B746EE6
:0408B200007B7672DF
:0408B300007F7A76D2
:0408B40000837E7BC4
:0408B50000898481B1
:0408B600008D8885A4
:0408B70000918B8B96
:0408B80000928E8B91
:0408B90000928E8B90
:0408BA00009A969377
:0408BB0000A9A5A249
:0408BC0000B3AEAA2D
:0408BD0000C0BBB705
:0408BE0000B3AEAA2B
:0408BF000089817EAD
:0408C000007A736DDA
:0408C10000776E67E7
:0408C20000827972C5
:0408C30000887E75B6
:0408C4000082786FC7
:0408C5000080736AD2
:0408C6000082756CCB
:0408C7000083766DC7
:0408C800007F7269D2
:0408C9000084756EC4
:0408CA00008B7A72B3
:0408CB00007A6961E5
:0408CC000086786FBB
:0408CD00008D7F76A5
:0408CE000083766EBF
:0408CF00008E81799D
:0408D00000857B72B2
:0408D100007C7269CC
:0408D200007E756EC1
:0408D30000807770BA
:0408D40000817A74B1
:0408D50000807B75AF
:0408D600007F7A74B1
:0408D700007F7C75AD
:0408D80000837E78A3
:0408D9000086817B99
:0408DA0000817A74AB
:0408DB0000837A75A7
:0408DC0000766D68CD
:0408DD00007C736EBA
:0408DE0000837A75A4
:0408DF0000817873A9
:0408E000008A817C8D
:0408E1000089807B8F
:0408E20000857C779A
:0408E30000847B769C
:0408E40000847B769B
:0408E50000837A759D
:0408E600008279749F
:0408E700008279749E
:0408E80000817873A0
:0408E900008079739F
:0408EA00008F878470
:0408EB00008E89856D
:0408EC00008C878372
:0408ED000086817D83
:0408EE00007E79759A
:0408EF0000797470A8
:0408F0000078736FAA
:0408F100007A7571A3
:0408F200007F7A7693
:0408F30000807B778F
:0408F40000807B778E
:0408F50000817C788A
:0408F60000817C7889
:0408F70000827D7985
:0408F80000827D7984
:0408F90000837E7A80
:0408FA000083807B7C
:0408FB000079787395
:0408FC000081807B7C
:0408FD00003E3D3844
:0408FE00002F2E2970
:0408FF000041403B39
:040900000078777292
:0409010000807F7A79
:040902000082817C72
:040903000084837E6B
:040904000087868161
:04090500008B8A8554
:0409060000908F8A44
:040907000094938E37
:04090800009796912D
:040909000099989326
:04090A00009C9B971B
:04090B00009E9D9914
:04090C0000A09F9B0D
:04090D0000A3A29E03
:04090E0000A3A29E02
:04090F0000A2A19D04
:04091000009F9E9A0C
:04091100009E9D990E
:04091200009A999519
:040913000095949027
:04091400008F8E8A38
:04091500008B8A8643
:040916000083827E5A
:04091700007A797574
:0409180000595854D6
:04091900007F7E7A63
:04091A0000736F6E89
:04091B0000AAB5B9C0
:04091C00003E6874BD
:04091D00003C7F8F8C
:04091E000050A7B826
:04091F000050B0BC18
:04092000004BA8AF31
:0409210000449DA34E
:04092200004699A74B
:0409230000499AAF3E
:04092400004A9AB536
:04092500005A9CB424
:0409260000366368CC
:0409270000415440F7
:0409280000DBCF9F82
:0409290000F4D69070
:04092A0000FFD6866E
:04092B0000FFD58074
:04092C0000FFD7856C
:04092D0000FED78869
:04092E0000FCD88C65
:04092F0000FBD9925E
:0409300000FBD89858
:0409310000FDD69B54
:0409320000C79C67F7
:04093300007A4718E7
:0409340000A86A416C
:0409350000C7815D19
:0409360000CC7B5D19
:0409370000CA70552D
:0409380000D06D5628
:0409390000D7745F10
:04093A0000DB7E6DF3
:04093B0000C977690F
:04093C0000B6766C1F
:04093D000082554F90
:04093E0000755D598A
:04093F0000BBB3B195
:04094000007373735A
:040941000082868525
:04094200006F6F6D66
:04094300007D7A7544
:0409440000887F7A2E
:040945000083787241
:0409460000988F88FE
:04094700008A867D1F
:040948000082827A2D
:04094900007F807A31
:04094A000083847F23
:04094B000087888316
:04094C00008E8A8708
:04094D00008B868213
:04094E00008E858012
:04094F0000867B772C
:04095000008879742E
:0409510000A0918CE5
:04095200008D7B7722
:0409530000B8A9A49B
:0409540000C9BAB765
:0409550000B7ACA893
:0409560000B5ABA994
:0409570000BAB5B27B
:0409580000B7B2AF83
:0409590000AFABA898
:04095A0000A7A3A0AF
:04095B0000C1BDBA60
:04095C0000C5C1BE53
:04095D0000B2AEAB8B
:04095E0000A7A3A0AB
:04095F0000A7A49FAA
:0409600000817C7620
:040961000078746B3B
:0409620000837C741E
:04096300007F786E2B
:04096400007C756B33
:04096500007E786C2C
:0409660000827A6F22
:0409670000837B701E
:040968000080786B28
:04096900007C766830
:04096A000078756636
:04096B000077756636
:04096C000077756833
:04096D000077756832
:04096E000077756930
:04096F00007775692F
:040970000075756B2E
:040971000075756B2D
:040972000076766E27
:040973000075767025
:040974000076757123
:040975000075767122
:040976000075767121
:04097700007575731F
:04097800007575731E
:04097900007874711D
:04097A00008378720C
:04097B00007F706920
:04097C0000796A6331
:04097D00007C6D6627
:04097E000081726B17
:04097F00007E6F681F
:04098000007F70691B
:040981000087787102
:040982000083746D0D
:040983000083746D0C
:040984000083746D0B
:040985000083746D0A
:040986000083746D09
:040987000083746D08
:040988000083746D07
:040989000082756D06
:04098A000083796FFE
:04098B0000837B70FA
:04098C000079706717
:04098D0000645B5255
:04098E00006057505E
:04098F00005049418A
:04099000006B645E36
:0409910000716C661F
:040992000075706C10
:040993000077726F08
:04099400007A7572FE
:04099500007E7A79ED
:0409960000837F7EDD
:0409970000878382D0
:04099800008A8687C4
:04099900008A8987C0
:04099A00008E8D8BB3
:04099B0000908F8DAC
:04099C00009B9A988A
:04099D0000A9A5A266
:04099E0000BEBAB726
:04099F0000B8B5B037
:0409A000008E8985B7
:0409A10000807973E6
:0409A20000756C650B
:0409A30000817871E6
:0409A40000877D74D7
:0409A5000082786FE5
:0409A6000080736AF0
:0409A7000083766DE6
:0409A8000084766BE6
:0409A90000807269EF
:0409AA000084756EE2
:0409AB000085746CE3
:0409AC0000827169EB
:0409AD000085776EDC
:0409AE000085776EDB
:0409AF000083766EDD
:0409B000008F827AB8
:0409B100006F655C12
:0409B200006E645B14
:0409B3000060575039
:0409B400005F585038
:0409B500005E595334
:0409B600005F5C552D
:0409B70000615E5726
:0409B80000625F5822
:0409B900006360591E
:0409BA00006360591D
:0409BB000056514B46
:0409BC0000635E581E
:0409BD00005E59532C
:0409BE0000615C5622
:0409BF00005C575130
:0409C000004D48425C
:0409C1000057524C3D
:0409C2000065605A12
:0409C300005E595326
:0409C400005E595325
:0409C500005E595324
:0409C600005D585226
:0409C700005C575128
:0409C800005B56502A
:0409C900005B565029
:0409CA00005A554F2B
:0409CB00007E7975BC
:0409CC00006F6A66E8
:0409CD00005F5A5617
:0409CE00005C57531F
:0409CF0000635E5A09
:0409D00000696460F6
:0409D1000067625EFB
:0409D20000625D5909
:0409D30000635E5A05
:0409D40000635E5A04
:0409D50000615C5809
:0409D60000605B570B
:0409D700005F5A560D
:0409D800005D585412
:0409D900005C575314
:0409DA00005B585313
:0409DB00005D5A550C
:0409DC00005F5E5901
:0409DD00006F6E69D0
:0409DE000042413C56
:0409DF000041403B58
:0409E0000046454048
:0409E1000073726DC0
:0409E20000797873AD
:0409E3000082817C91
:0409E4000084837E8A
:0409E5000087868180
:0409E600008B8A8573
:0409E70000908F8A63
:0409E8000094938E56
:0409E900009796914C
:0409EA000099989345
:0409EB00009C9B973A
:0409EC00009E9D9933
:0409ED0000A1A09C29
:0409EE0000A3A29E22
:0409EF0000A3A29E21
:0409F00000A2A19D23
:0409F10000A09F9B28
:0409F200009E9D992D
:0409F300009A999538
:0409F4000095949046
:0409F500008F8E8A57
:0409F600008B8A8662
:0409F7000083827E79
:0409F800007B7A7690
:0409F90000595854F5
:0409FA0000807F7D7D
:0409FB00006B6768BE
:0409FC0000A4B3B8E8
:0409FD00003C707ECC
:0409FE00003B8DA28B
:0409FF000047B2C635
:040A00000041B6C734
:040A0100003EB0BB48
:040A0200003DACB750
:040A0300003EA9BB4D
:040A04000044AAC13F
:040A05000042A5C541
:040A0600005CB0C818
:040A0700002D6768EF
:040A080000324C2F3D
:040A090000DDD493A5
:040A0A0000EAC66ECA
:040A0B0000FAC865C0
:040A0C0000FFC760C0
:040A0D0000FDC763BE
:040A0E0000FBC968B8
:040A0F0000F8C96DB5
:040A100000F8CA74AC
:040A110000F8C979A7
:040A120000F9C77EA2
:040A130000D7A05F09
:040A1400007231003B
:040A150000AF63319A
:040A160000D37C4F3E
:040A170000D8754E40
:040A180000E2745331
:040A190000DE684C47
:040A1A0000E56E562F
:040A1B0000DD6E5A32
:040A1C0000D3726130
:040A1D0000C5796B2C
:040A1E00008E5A4F9D
:040A1F00006E534CC6
:040A200000B7AEA9C4
:040A210000656661A5
:040A220000656A669B
:040A230000696A6597
:040A2400008D8A8532
:040A250000A1989301
:040A2600009289822F
:040A270000A29B93FB
:040A28000099968F0C
:040A2900009C9D97F9
:040A2A0000A3A8A1DC
:040A2B000095988F0B
:040A2C00008F90881F
:040A2D000094948A13
:040A2E000095918618
:040A2F0000A69E93EC
:040A300000A3978BFD
:040A31000095847A2E
:040A320000A08E8210
:040A330000937F7637
:040A340000AB978EEE
:040A350000AA988EED
:040A3600009C8B8312
:040A3700009E918903
:040A380000A59A94E7
:040A390000A09792F0
:040A3A00009D948FF8
:040A3B0000B1A8A3BB
:040A3C0000958A8611
:040A3D0000B5AAA6B0
:040A3E0000E1D6D22B
:040A3F0000C1B6B08C
:040A400000ACA299CB
:040A410000B2A59CBE
:040A4200009C8F86FF
:040A430000AEA296C9
:040A440000B5A79AB8
:040A450000B5A79AB7
:040A460000ADA090CF
:040A470000AA9A8BDC
:040A480000AC9C8CD6
:040A490000AC9C8CD5
:040A4A0000A79A89DE
:040A4B0000AFA697BB
:040A4C0000AEA699B9
:040A4D0000AEA69BB6
:040A4E0000ADA79BB5
:040A4F0000ADA69CB4
:040A500000ADA69CB3
:040A510000ABA79EB1
:040A520000AAA7A0AF
:040A530000ADAAA5A3
:040A540000ABAAA5A4
:040A550000ABAAA6A2
:040A560000AAABA6A1
:040A570000AAAAA89F
:040A580000A9ABA89E
:040A590000A9ABA89D
:040A5A0000ABAAA69D
:040A5B0000BAAFA985
:040A5C0000B5A69F9C
:040A5D000095867FFB
:040A5E000078696251
:040A5F00007C6D6644
:040A6000008879721F
:040A61000083746D2D
:040A620000796A634A
:040A63000083746D2B
:040A64000083746D2A
:040A65000083746D29
:040A66000083746D28
:040A67000083746D27
:040A68000083746D26
:040A69000083746D25
:040A6A000082756D24
:040A6B000083796F1C
:040A6C000081796E1E
:040A6D00006F665D53
:040A6E000059524891
:040A6F000060595179
:040A700000534F469A
:040A7100006C67614D
:040A72000076716D2C
:040A7300007A75721E
:040A7400007A76731B
:040A7500007D79780F
:040A760000817D7E00
:040A770000858182F3
:040A780000878586E8
:040A7900008A888BDC
:040A7A00008B898ADA
:040A7B00009D9B9CA3
:040A7C00009D9C9AA3
:040A7D0000A3A2A090
:040A7E0000A9A8A67D
:040A7F0000BDB9B845
:040A800000B9B5B252
:040A81000097928EBA
:040A8200008D8884D7
:040A830000726B652D
:040A8400007F766F0A
:040A850000867C73F8
:040A86000081776E06
:040A87000080736A0E
:040A88000083766D04
:040A89000085776C01
:040A8A000082746909
:040A8B000084756E00
:040A8C000084736B04
:040A8D00008D7C74E8
:040A8E000082736C03
:040A8F000080716A08
:040A900000867971F2
:040A91000081746C00
:040A920000564B457A
:040A93000090857FCB
:040A940000B5ACA756
:040A950000A59E9882
:040A960000938E88B3
:040A9700008C8982C4
:040A980000918E89B2
:040A99000095948FA1
:040A9A00009695909D
:040A9B000094938EA2
:040A9C000095958D9F
:040A9D0000A09D9682
:040A9E00009C99928D
:040A9F0000B3B0A947
:040AA00000C9C6BF04
:040AA10000BFBCB521
:040AA20000BEBBB423
:040AA30000C4C1BA10
:040AA40000C6C3BC09
:040AA50000C6C3BC08
:040AA60000C5C2BB0A
:040AA70000C5C2BB09
:040AA80000C4C1BA0B
:040AA90000C3C0B90D
:040AAA0000C3C0B90C
:040AAB0000C2BFB80E
:040AAC0000B9B6B126
:040AAD0000B9B5B225
:040AAE0000B8B4B127
:040AAF0000B6B2AF2C
:040AB00000B4B0AD31
:040AB10000B3AFAC33
:040AB20000B4B0AD2F
:040AB30000B5B1AE2B
:040AB40000ABA7A448
:040AB50000A9A5A24D
:040AB60000A5A19E58
:040AB70000A19D9A63
:040AB800009B979474
:040AB900009793907F
:040ABA0000938F8C8A
:040ABB0000918D8A8F
:040ABC00007D7976CA
:040ABD000085817EB1
:040ABE00006E6A67F5
:040ABF000039353293
:040AC000005A56532F
:040AC100005D595625
:040AC20000736F6CE2
:040AC30000787471D2
:040AC4000084807DAD
:040AC5000086827FA6
:040AC600008985829C
:040AC700008D89868F
:040AC80000928E8B7F
:040AC9000096928F72
:040ACA000099959268
:040ACB00009B979461
:040ACC00009F9B9A52
:040ACD0000A19D9C4B
:040ACE0000A39F9E44
:040ACF0000A5A1A03D
:040AD00000A6A2A139
:040AD10000A5A1A03B
:040AD20000A29E9D43
:040AD30000A19D9C45
:040AD400009D999850
:040AD500009894935E
:040AD60000928E8D6F
:040AD700008E8A897A
:040AD8000086828191
:040AD900007D7978AB
:040ADA00005C58570D
:040ADB0000827E7D9A
:040ADC0000746E70C4
:040ADD0000A7B6BDFB
:040ADE0000366F80EF
:040ADF00002B879EC3
:040AE000002CA6BE82
:040AE1000021AABD89
:040AE2000027ACBB82
:040AE3000031B5C465
:040AE4000032AEC668
:040AE5000034ABC965
:040AE600002C9EC280
:040AE700004AAAC255
:040AE800001D5F5D31
:040AE9000029472178
:040AEA0000E7DC8DB8
:040AEB0000F4CD66E0
:040AEC0000FFCC5BE0
:040AED0000FFCB58E3
:040AEE0000FFCC5BDE
:040AEF0000FFCD60D7
:040AF00000FFCE65D0
:040AF10000FECE6CC9
:040AF20000FFCD74C0
:040AF30000FFCC79BB
:040AF40000D89C5337
:040AF50000722D005E
:040AF60000B5622CB9
:040AF70000D574476B
:040AF80000D96C4570
:040AF90000EF77553E
:040AFA0000EB684C59
:040AFB0000E9654C5D
:040AFC0000E6685256
:040AFD0000DF705D49
:040AFE0000CE776649
:040AFF0000905547C7
:040B0000006F4F44EF
:040B010000BEB1A9D8
:040B02000071726CA0
:040B03000073787291
:040B040000666762BE
:040B050000ACA9A4F3
:040B060000AAA19C04
:040B07000050474211
:040B0800003C352F49
:040B090000403D3635
:040B0A00004348411B
:040B0B00003A403636
:040B0C00003E3F3137
:040B0D00004441322D
:040B0E0000423B2B3B
:040B0F0000463A2A38
:040B1000005746360E
:040B110000644D3DF2
:040B1200005D42310F
:040B130000644735FE
:040B1400005E3E2F12
:040B150000674738F6
:040B160000644437FC
:040B1700005D3F340A
:040B180000604439FC
:040B1900005E433AFD
:040B1A00005E473FF3
:040B1B00006A564DC9
:040B1C0000614D44E3
:040B1D00005E4A41EB
:040B1E0000A5918815
:040B1F0000E9D5CC48
:040B200000CCB8ADA0
:040B210000B5A294E5
:040B220000DEC8BA6F
:040B230000DEC8BA6E
:040B240000BDA897D1
:040B250000D4BDAB90
:040B260000DDC7B275
:040B270000D2BCA597
:040B280000CEB59FA7
:040B290000D9C1A985
:040B2A0000E2CAB269
:040B2B0000E0CAB567
:040B2C0000E0CDBF59
:040B2D0000DECDC356
:040B2E0000DECDC553
:040B2F0000DECDC552
:040B300000DCCDC652
:040B310000DBCEC651
:040B320000D9CEC850
:040B330000D8CFCA4D
:040B340000DBD3D03F
:040B350000D9D4D03F
:040B360000D9D4D13D
:040B370000D8D4D33B
:040B380000D6D4D53A
:040B390000D5D5D539
:040B3A0000D5D5D538
:040B3B0000D8D4D337
:040B3C0000EEE3DF05
:040B3D0000E2D3CC33
:040B3E0000AC9D96D4
:040B3F00007E6F685D
:040B40000082736C50
:040B41000091827B22
:040B4200008A7B7436
:040B4300007F706956
:040B44000083746D49
:040B45000083746D48
:040B46000083746D47
:040B47000083746D46
:040B48000083746D45
:040B49000083746D44
:040B4A000083746D43
:040B4B000082756D42
:040B4C0000837A7137
:040B4D00007D766C45
:040B4E0000645D538F
:040B4F0000534C42C1
:040B500000665F5785
:040B5100005A564DA3
:040B52000068635D77
:040B5300006A67626B
:040B5400007975723D
:040B5500007A767537
:040B5600007D797A2B
:040B5700007E7C7D23
:040B580000817F8217
:040B5900008583860A
:040B5A000087858A01
:040B5B0000878789FF
:040B5C00009D9D9FBC
:040B5D0000A4A4A4A8
:040B5E0000AEAEAE89
:040B5F0000B0B0AE84
:040B600000B8B7B56D
:040B610000AFABA88E
:040B6200008F8A86F0
:040B63000089848001
:040B64000070696351
:040B6500007D746D2E
:040B660000847A711C
:040B67000080766D27
:040B6800007F72692F
:040B69000084776E1F
:040B6A000086786D1C
:040B6B000083756A24
:040B6C000084756E1E
:040B6D000089787013
:040B6E00008F7E7600
:040B6F000080716A27
:040B70000087787111
:040B710000897C7407
:040B72000071645C4E
:040B7300004D423CB3
:040B740000C4BBB44A
:040B750000DAD3CD02
:040B760000B7B2AC66
:040B7700008A857FEC
:040B78000068655E4E
:040B79000058575277
:040B7A000054534E82
:040B7B00004F504A8D
:040B7C00004B4C4698
:040B7D000057585075
:040B7E000052534B83
:040B7F00005050488A
:040B80000091928AC4
:040B810000E9E9E1BD
:040B820000FFFFF879
:040B830000F9F9F18B
:040B840000F2F3EB9D
:040B850000F2F2EA9E
:040B860000F0F1E9A1
:040B870000F1F1E99F
:040B880000EFF0E8A2
:040B890000EFEFE7A3
:040B8A0000EDEEE6A6
:040B8B0000EEEEE6A4
:040B8C0000EDECE7A5
:040B8D0000EAE6E3B1
:040B8E0000EDE9E6A7
:040B8F0000ECE8E5A9
:040B900000E6E2DFBA
:040B910000DDD9D6D4
:040B920000DAD6D3DC
:040B930000DFDBD8CC
:040B940000E5E1DEB9
:040B950000D5D1CEE8
:040B960000D2CECBF0
:040B970000CDC9C6FE
:040B980000C6C2BF12
:040B990000BFBBB826
:040B9A0000B8B4B13A
:040B9B0000B3AFAC48
:040B9C0000B0ACA950
:040B9D0000AAA6A361
:040B9E0000BAB6B330
:040B9F0000787471F5
:040BA000001D191605
:040BA1000046423F89
:040BA20000524E4B64
:040BA300006E6A670F
:040BA400007A7673EA
:040BA5000084807DCB
:040BA6000086827FC4
:040BA70000898582BA
:040BA800008D8986AD
:040BA90000928E8B9D
:040BAA000096928F90
:040BAB000099959286
:040BAC00009B97947F
:040BAD00009F9B9A70
:040BAE0000A19D9C69
:040BAF0000A4A09F5F
:040BB00000A6A2A158
:040BB10000A6A2A157
:040BB20000A5A1A059
:040BB30000A39F9E5E
:040BB40000A19D9C63
:040BB500009D99986E
:040BB600009894937C
:040BB70000928E8D8D
:040BB800008E8A8998
:040BB90000868281AF
:040BBA00007E7A79C6
:040BBB00005C58572B
:040BBC0000847E7EB5
:040BBD00006D6467FC
:040BBE00009BA8B13F
:040BBF00002A64782C
:040BC000002589A3E0
:040BC100002BB1CC88
:040BC2000020B6CF8A
:040BC3000021B7C88E
:040BC400002ABBCE7A
:040BC5000028B4CF81
:040BC600002EB3D476
:040BC700002CAAD282
:040BC8000046B0C86B
:040BC90000185F5958
:040BCA000028471B9D
:040BCB0000E9DB82E0
:040BCC0000FED563EF
:040BCD0000FEC7500F
:040BCE0000FFC74D10
:040BCF0000FFC8510A
:040BD00000FCC95606
:040BD10000FACA5EFE
:040BD20000F7CA65F9
:040BD30000F7C86CF3
:040BD40000FAC774E8
:040BD50000DAA0564C
:040BD600007E380065
:040BD70000BE6B37BA
:040BD80000D9784D7B
:040BD90000DF6E4C7F
:040BDA0000F77B5F46
:040BDB0000F56E585B
:040BDC0000F267526A
:040BDD0000F46C565E
:040BDE0000EF755E51
:040BDF0000DC7D6950
:040BE00000965342E6
:040BE10000795547FB
:040BE20000BBADA205
:040BE300006F6F67C9
:040BE40000767B75A7
:040BE50000666762DD
:040BE60000A8A5A01E
:040BE70000A69D982F
:040BE8000060575200
:040BE9000068615BE4
:040BEA000075746FAF
:040BEB0000737A73A6
:040BEC0000696C63CD
:040BED0000524B3B2C
:040BEE00008978669C
:040BEF00008A7562A1
:040BF000008E755F9F
:040BF100007D5E49DC
:040BF20000835F49D4
:040BF30000845A44DC
:040BF40000895A46D4
:040BF5000091614DBD
:040BF600008D5D49C8
:040BF70000855443DE
:040BF80000875848D2
:040BF900008F6152B6
:040BFA000081554AD7
:040BFB0000754A41F6
:040BFC00007A5449DE
:040BFD000078584BD9
:040BFE00006A4D3FFD
:040BFF00006447390E
:040C000000735646E1
:040C010000A1847456
:040C020000BC9D8B0A
:040C030000C4A591F3
:040C040000AA8B7641
:040C050000B8998416
:040C060000CCAC93DF
:040C070000D9B9A0B7
:040C080000D9B79CBC
:040C090000DAB89CB9
:040C0A0000E7C5A991
:040C0B0000F4D3B46A
:040C0C0000F7D7BE58
:040C0D0000FCDED336
:040C0E0000FADFD831
:040C0F0000FADEDA2F
:040C100000F8DFDA2F
:040C110000F7DFDB2E
:040C120000F5E0DB2E
:040C130000F4E0DF2A
:040C140000F1E2DF2A
:040C150000EFE1E02B
:040C160000EDE1E12B
:040C170000ECE2E328
:040C180000EBE2E328
:040C190000E9E3E526
:040C1A0000E8E4E525
:040C1B0000E6E4E724
:040C1C0000E9E3E325
:040C1D0000D7CCC868
:040C1E0000CEBFB88D
:040C1F0000A0918A16
:040C2000007D6E677E
:040C21000082736C6E
:040C22000085766F64
:040C23000080716A72
:040C240000897A7356
:040C25000083746D67
:040C26000083746D66
:040C27000083746D65
:040C28000083746D64
:040C29000083746D63
:040C2A000083746D62
:040C2B000083746D61
:040C2C000082756D60
:040C2D0000837A7155
:040C2E00007D766C63
:040C2F00005E574DBF
:040C3000004D463CF1
:040C310000646057A4
:040C32000058534DC6
:040C3300005C5954B4
:040C3400005C5855B3
:040C350000625E5D9E
:040C360000635F5E9A
:040C37000063616293
:040C3800006563668A
:040C39000068666B7E
:040C3A00006A686D77
:040C3B00006B6A6F71
:040C3C00006C6B706D
:040C3D000076777B4B
:040C3E00007D7E8037
:040C3F000088888A17
:040C40000088888818
:040C410000939290FA
:040C420000908F8D02
:040C4300007C787544
:040C440000807B773A
:040C4500006E676175
:040C4600007A736B52
:040C4700008378723C
:040C4800007F756C48
:040C4900007F72694D
:040C4A000084776E3D
:040C4B000087796E37
:040C4C000084766B3F
:040C4D000084756E3C
:040C4E000088777033
:040C4F00008A79722C
:040C50000083726B40
:040C5100008C7D7620
:040C5200008679712E
:040C530000786B6357
:040C5400004F443ECB
:040C550000BDB4AD7D
:040C560000F7F0EAC9
:040C570000D4CFC92D
:040C580000A39E98BF
:040C59000075726B45
:040C5A000054534EA1
:040C5B000042433DD3
:040C5C0000383933F0
:040C5D000034352FFB
:040C5E00003F403AD9
:040C5F0000353831F3
:040C60000030312B04
:040C6100007A7D7622
:040C620000E1E2DCEF
:040C630000FEFFFA96
:040C640000FCFDF79C
:040C650000FAFDF69E
:040C660000F2F3EDB8
:040C670000F1F4EDB7
:040C680000F1F2ECB9
:040C690000EFF2EBBB
:040C6A0000EFF0EABD
:040C6B0000EEF1EABC
:040C6C0000EEEFE9BE
:040C6D0000EEEFE9BD
:040C6E0000F3F2EEAF
:040C6F0000EEEAE7C2
:040C700000E4E0DDDF
:040C710000DEDAD7F0
:040C720000DCD8D5F5
:040C730000DEDAD7EE
:040C740000E0DCD9E7
:040C750000E1DDDAE3
:040C760000D5D1CE06
:040C770000D3CFCC0B
:040C780000CECAC719
:040C790000C8C4C12A
:040C7A0000C1BDBA3E
:040C7B0000BBB7B44F
:040C7C0000B6B2AF5D
:040C7D0000B4B0AD62
:040C7E0000A6A19E8D
:040C7F0000B6B1AE5C
